{"contracts/gooPoints.sol":{"gooPoints":{"abi":[{"anonymous":false,"inputs":[{"indexed":true,"internalType":"address","name":"owner","type":"address"},{"indexed":true,"internalType":"address","name":"spender","type":"address"},{"indexed":false,"internalType":"uint256","name":"value","type":"uint256"}],"name":"Approval","type":"event"},{"anonymous":false,"inputs":[{"indexed":true,"internalType":"address","name":"from","type":"address"},{"indexed":false,"internalType":"uint256","name":"value","type":"uint256"}],"name":"Burn","type":"event"},{"anonymous":false,"inputs":[{"indexed":true,"internalType":"address","name":"from","type":"address"},{"indexed":false,"internalType":"uint256","name":"value","type":"uint256"},{"indexed":false,"internalType":"uint256","name":"totalSupply","type":"uint256"}],"name":"Donation","type":"event"},{"anonymous":false,"inputs":[{"indexed":false,"internalType":"address","name":"monetaryPolicy","type":"address"}],"name":"LogMonetaryPolicyUpdated","type":"event"},{"anonymous":false,"inputs":[{"indexed":true,"internalType":"uint256","name":"epoch","type":"uint256"},{"indexed":false,"internalType":"uint256","name":"totalSupply","type":"uint256"}],"name":"LogRebase","type":"event"},{"anonymous":false,"inputs":[{"indexed":true,"internalType":"address","name":"to","type":"address"},{"indexed":false,"internalType":"uint256","name":"value","type":"uint256"}],"name":"Mint","type":"event"},{"anonymous":false,"inputs":[{"indexed":true,"internalType":"address","name":"from","type":"address"},{"indexed":true,"internalType":"address","name":"to","type":"address"},{"indexed":false,"internalType":"uint256","name":"value","type":"uint256"}],"name":"Transfer","type":"event"},{"anonymous":false,"inputs":[{"indexed":false,"internalType":"address","name":"from","type":"address"},{"indexed":false,"internalType":"uint256","name":"amount","type":"uint256"}],"name":"feePaid","type":"event"},{"inputs":[],"name":"DOMAIN_SEPARATOR","outputs":[{"internalType":"bytes32","name":"","type":"bytes32"}],"stateMutability":"view","type":"function"},{"inputs":[],"name":"EIP712_DOMAIN","outputs":[{"internalType":"bytes32","name":"","type":"bytes32"}],"stateMutability":"view","type":"function"},{"inputs":[],"name":"EIP712_REVISION","outputs":[{"internalType":"string","name":"","type":"string"}],"stateMutability":"view","type":"function"},{"inputs":[],"name":"MAX_SUPPLY","outputs":[{"internalType":"uint256","name":"","type":"uint256"}],"stateMutability":"view","type":"function"},{"inputs":[],"name":"PERMIT_TYPEHASH","outputs":[{"internalType":"bytes32","name":"","type":"bytes32"}],"stateMutability":"view","type":"function"},{"inputs":[{"internalType":"string","name":"name_","type":"string"},{"internalType":"string","name":"symbol_","type":"string"},{"internalType":"uint8","name":"decimals_","type":"uint8"}],"name":"__ERC20Detailed_init","outputs":[],"stateMutability":"nonpayable","type":"function"},{"inputs":[{"internalType":"string","name":"name","type":"string"},{"internalType":"string","name":"symbol","type":"string"},{"internalType":"address","name":"_gooTogether","type":"address"}],"name":"__UFragments_init","outputs":[],"stateMutability":"nonpayable","type":"function"},{"inputs":[{"internalType":"address","name":"","type":"address"}],"name":"_gonBalances","outputs":[{"internalType":"uint256","name":"","type":"uint256"}],"stateMutability":"view","type":"function"},{"inputs":[],"name":"_gonsPerFragment","outputs":[{"internalType":"uint256","name":"","type":"uint256"}],"stateMutability":"view","type":"function"},{"inputs":[],"name":"_reserve","outputs":[{"internalType":"address","name":"","type":"address"}],"stateMutability":"view","type":"function"},{"inputs":[],"name":"_totalGons","outputs":[{"internalType":"uint256","name":"","type":"uint256"}],"stateMutability":"view","type":"function"},{"inputs":[],"name":"_totalSupply","outputs":[{"internalType":"uint256","name":"","type":"uint256"}],"stateMutability":"view","type":"function"},{"inputs":[{"internalType":"address","name":"who","type":"address"}],"name":"balanceOf","outputs":[{"internalType":"uint256","name":"","type":"uint256"}],"stateMutability":"view","type":"function"},{"inputs":[{"internalType":"uint256","name":"multiPoints","type":"uint256"},{"internalType":"address","name":"_user","type":"address"}],"name":"burn","outputs":[],"stateMutability":"nonpayable","type":"function"},{"inputs":[],"name":"currentReserve","outputs":[{"internalType":"uint256","name":"","type":"uint256"}],"stateMutability":"view","type":"function"},{"inputs":[],"name":"decimals","outputs":[{"internalType":"uint8","name":"","type":"uint8"}],"stateMutability":"view","type":"function"},{"inputs":[{"internalType":"uint256","name":"goo","type":"uint256"}],"name":"donate","outputs":[],"stateMutability":"nonpayable","type":"function"},{"inputs":[],"name":"gobblerUnion","outputs":[{"internalType":"address","name":"","type":"address"}],"stateMutability":"view","type":"function"},{"inputs":[],"name":"gobblers","outputs":[{"internalType":"address","name":"","type":"address"}],"stateMutability":"view","type":"function"},{"inputs":[],"name":"gooTogether","outputs":[{"internalType":"address","name":"","type":"address"}],"stateMutability":"view","type":"function"},{"inputs":[{"internalType":"address","name":"_proxyAddress","type":"address"},{"internalType":"address","name":"_gooTogether","type":"address"}],"name":"initialize","outputs":[],"stateMutability":"nonpayable","type":"function"},{"inputs":[{"internalType":"uint256","name":"multiPoints","type":"uint256"},{"internalType":"address","name":"_user","type":"address"}],"name":"mint","outputs":[],"stateMutability":"nonpayable","type":"function"},{"inputs":[],"name":"monetaryPolicy","outputs":[{"internalType":"address","name":"","type":"address"}],"stateMutability":"view","type":"function"},{"inputs":[],"name":"name","outputs":[{"internalType":"string","name":"","type":"string"}],"stateMutability":"view","type":"function"},{"inputs":[{"internalType":"address","name":"who","type":"address"}],"name":"nonces","outputs":[{"internalType":"uint256","name":"","type":"uint256"}],"stateMutability":"view","type":"function"},{"inputs":[{"internalType":"uint256","name":"epoch","type":"uint256"},{"internalType":"uint256","name":"supplyAdd","type":"uint256"},{"internalType":"uint256","name":"supplyRemove","type":"uint256"}],"name":"rebase","outputs":[{"internalType":"uint256","name":"","type":"uint256"}],"stateMutability":"nonpayable","type":"function"},{"inputs":[],"name":"reserveAddress","outputs":[{"internalType":"address","name":"","type":"address"}],"stateMutability":"view","type":"function"},{"inputs":[],"name":"reserveRatio","outputs":[{"internalType":"uint256","name":"e18_reserve_ratio","type":"uint256"}],"stateMutability":"view","type":"function"},{"inputs":[{"internalType":"address","name":"who","type":"address"}],"name":"scaledBalanceOf","outputs":[{"internalType":"uint256","name":"","type":"uint256"}],"stateMutability":"view","type":"function"},{"inputs":[],"name":"scaledTotalSupply","outputs":[{"internalType":"uint256","name":"","type":"uint256"}],"stateMutability":"view","type":"function"},{"inputs":[],"name":"symbol","outputs":[{"internalType":"string","name":"","type":"string"}],"stateMutability":"view","type":"function"},{"inputs":[],"name":"totalSupply","outputs":[{"internalType":"uint256","name":"","type":"uint256"}],"stateMutability":"view","type":"function"}],"devdoc":{"details":"extends UFragments","kind":"dev","methods":{"DOMAIN_SEPARATOR()":{"returns":{"_0":"The computed DOMAIN_SEPARATOR to be used off-chain services         which implement EIP-712.         https://eips.ethereum.org/EIPS/eip-2612"}},"balanceOf(address)":{"params":{"who":"The address to query."},"returns":{"_0":"The balance of the specified address."}},"decimals()":{"returns":{"_0":"decimals for token"}},"initialize(address,address)":{"details":"consider adding decimals?"},"name()":{"returns":{"_0":"name of token"}},"nonces(address)":{"returns":{"_0":"The number of successful permits by the specified address."}},"rebase(uint256,uint256,uint256)":{"details":"Notifies Fragments contract about a new rebase cycle.","params":{"supplyAdd":"The number of new fragment tokens to add into circulation via expansion.","supplyRemove":"The number of new fragment tokens to remove into circulation via expansion."},"returns":{"_0":"The total number of fragments after the supply adjustment."}},"reserveAddress()":{"returns":{"_0":"decimals for of reserve currency"}},"reserveRatio()":{"returns":{"e18_reserve_ratio":"USDa reserve ratio"}},"scaledBalanceOf(address)":{"params":{"who":"The address to query."},"returns":{"_0":"The gon balance of the specified address."}},"scaledTotalSupply()":{"returns":{"_0":"the total number of gons."}},"symbol()":{"returns":{"_0":"symbol for token"}},"totalSupply()":{"returns":{"_0":"The total number of fragments."}}},"title":"gooPoints token contract","version":1},"evm":{"bytecode":{"linkReferences":{},"object":"608060405234801561001057600080fd5b506114b4806100206000396000f3fe608060405234801561001057600080fd5b50600436106101f05760003560e01c8063781603761161010f578063b1bf962d116100a2578063f14faf6f11610071578063f14faf6f1461044d578063f79ed94b14610460578063fcd3533c14610471578063fd5eb09d1461048457600080fd5b8063b1bf962d14610402578063c4996f511461040a578063d7f3285214610413578063e1b11da41461042657600080fd5b806394bf804d116100de57806394bf804d146103c157806395d89b41146103d4578063a10daee3146103dc578063a48daa4f146103ef57600080fd5b806378160376146103525780637da066c6146103725780637ecebe00146103855780638e27d7d7146103ae57600080fd5b80633570f3f111610187578063413ab4a811610156578063413ab4a8146102ee578063469ddd1214610319578063485cc9551461032c57806370a082311461033f57600080fd5b80633570f3f1146102a85780633644e515146102bd57806336fed975146102c55780633eaaf86b146102e557600080fd5b80632e12007c116101c35780632e12007c1461025657806330adf81f1461025e578063313ce5671461028557806332cb6b0c1461029f57600080fd5b806306fdde03146101f55780630c7d5cd81461021357806318160ddd146102255780631da24f3e1461022d575b600080fd5b6101fd61048d565b60405161020a9190610eb4565b60405180910390f35b603a545b60405190815260200161020a565b603954610217565b61021761023b366004610f1e565b6001600160a01b03166000908152603e602052604090205490565b61021761049c565b6102177f6e71edae12b1b97f4d1f60370fef10105fa2faae0126114a169c64845d6126c981565b61028d610513565b60405160ff909116815260200161020a565b61021760385481565b6102bb6102b6366004610fdc565b610521565b005b6102176106e1565b6102176102d3366004610f1e565b603e6020526000908152604090205481565b61021760395481565b604154610301906001600160a01b031681565b6040516001600160a01b03909116815260200161020a565b603b54610301906001600160a01b031681565b6102bb61033a366004611050565b61078d565b61021761034d366004610f1e565b610800565b6101fd604051806040016040528060018152602001603160f81b81525081565b603c54610301906001600160a01b031681565b610217610393366004610f1e565b6001600160a01b031660009081526040602081905290205490565b603654610301906001600160a01b031681565b6102bb6103cf366004611083565b610827565b6101fd6109a2565b6102bb6103ea3660046110a6565b6109ac565b6102176103fd366004611124565b610a43565b603754610217565b610217603a5481565b603d54610301906001600160a01b031681565b6102177f8b73c3c69bb8fe3d512ecc4cf759cc79239f7b179b0ffacaa9a75d522b39400f81565b6102bb61045b366004611150565b610b4b565b6041546001600160a01b0316610301565b6102bb61047f366004611083565b610bd8565b61021760375481565b6060610497610d96565b905090565b6041546040516370a0823160e01b815230600482015260009182916001600160a01b03909116906370a0823190602401602060405180830381865afa1580156104e9573d6000803e3d6000fd5b505050506040513d601f19601f8201168201806040525081019061050d9190611169565b92915050565b600061049760035460ff1690565b600054610100900460ff168061053a575060005460ff16155b61055f5760405162461bcd60e51b815260040161055690611182565b60405180910390fd5b600054610100900460ff16158015610581576000805461ffff19166101011790555b61058d848460126109ac565b6105996012600a6112ca565b6105a49060016112d6565b6105c29073af298d050e4395d69670b12b7f410000000000006112d6565b6037556fffffffffffffffffffffffffffffffff6038556105e56012600a6112ca565b6105f09060016112d6565b603981905560375460008052603e6020527f5f97c64b3c4bdfff50b5c8f505e633128432c6b07fc6c8abc77dce786c7317d481905561062f91906112ed565b603a55603b8054736761a059eb3881627ad33553dbef81a2ba576dbf6001600160a01b031991821617909155603c80547360bb1e2aa1c9acafb4d34f71585d7e959f387769908316179055603d80549091166001600160a01b03841617905560395460405190815260009030907fddf252ad1be2c89b69c2b068fc378daa952ba7f163c4a11628f55a4df523b3ef9060200160405180910390a380156106db576000805461ff00191690555b50505050565b6000467f8b73c3c69bb8fe3d512ecc4cf759cc79239f7b179b0ffacaa9a75d522b39400f61070d61048d565b805160209182012060408051808201825260018152603160f81b90840152805192830193909352918101919091527fc89efdaa54c0f20c7adf612882df0950f5a951637e0307cdcb4c672f298b8bc66060820152608081018290523060a082015260c0016040516020818303038152906040528051906020012091505090565b6107dd60405180604001604052806011815260200170676f6f546f676574686572506f696e747360781b8152506040518060400160405280600481526020016311d3d3d560e21b81525083610521565b50604180546001600160a01b0319166001600160a01b0392909216919091179055565b603a546001600160a01b0382166000908152603e6020526040812054909161050d916112ed565b603d60009054906101000a90046001600160a01b03166001600160a01b031663eb0c49556040518163ffffffff1660e01b8152600401600060405180830381600087803b15801561087757600080fd5b505af115801561088b573d6000803e3d6000fd5b5050603d546001600160a01b0316331491506108a8905057600080fd5b603a546108b590836112d6565b6001600160a01b0382166000908152603e60205260409020546108d8919061130f565b6001600160a01b0382166000908152603e60205260409020556039546108ff90839061130f565b603955603a5461090f90836112d6565b60375461091c919061130f565b6037556040518281526001600160a01b038216907f0f6798a560793a54c3bcfe86a93cde1e73087d944c0ea20544137d41213968859060200160405180910390a26040518281526001600160a01b038216906000907fddf252ad1be2c89b69c2b068fc378daa952ba7f163c4a11628f55a4df523b3ef9060200160405180910390a35050565b6060610497610e28565b600054610100900460ff16806109c5575060005460ff16155b6109e15760405162461bcd60e51b815260040161055690611182565b600054610100900460ff16158015610a03576000805461ffff19166101011790555b6001610a0f85826113ab565b506002610a1c84826113ab565b506003805460ff191660ff841617905580156106db576000805461ff001916905550505050565b603d546000906001600160a01b03163314610a5d57600080fd5b82158015610a69575081155b15610ab357837f72725a3b1e5bd622d6bcd1339bb31279c351abe8f541ac7fd320f24e1b1641f2603954604051610aa291815260200190565b60405180910390a250603954610b44565b8215610acf5782603954610ac7919061130f565b603955610ae1565b81603954610add919061146b565b6039555b6038546039541115610af4576038546039555b603954603754610b0491906112ed565b603a5560395460405190815284907f72725a3b1e5bd622d6bcd1339bb31279c351abe8f541ac7fd320f24e1b1641f29060200160405180910390a2506039545b9392505050565b603d60009054906101000a90046001600160a01b03166001600160a01b031663eb0c49556040518163ffffffff1660e01b8152600401600060405180830381600087803b158015610b9b57600080fd5b505af1158015610baf573d6000803e3d6000fd5b5050603d546001600160a01b031633149150610bcc905057600080fd5b610bd581610e37565b50565b603d60009054906101000a90046001600160a01b03166001600160a01b031663eb0c49556040518163ffffffff1660e01b8152600401600060405180830381600087803b158015610c2857600080fd5b505af1158015610c3c573d6000803e3d6000fd5b5050505081600003610c805760405162461bcd60e51b815260206004820152600d60248201526c043616e6e6f74206275726e203609c1b6044820152606401610556565b603d546001600160a01b03163314610c9757600080fd5b603a54610ca490836112d6565b6001600160a01b0382166000908152603e6020526040902054610cc7919061146b565b6001600160a01b0382166000908152603e6020526040902055603954610cee90839061146b565b603955603a54610cfe90836112d6565b603754610d0b919061146b565b6037556040518281526000906001600160a01b038316907fddf252ad1be2c89b69c2b068fc378daa952ba7f163c4a11628f55a4df523b3ef9060200160405180910390a3806001600160a01b03167fcc16f5dbb4873280815c1ee09dbd06736cffcc184412cf7a71a0fdb75d397ca583604051610d8a91815260200190565b60405180910390a25050565b606060018054610da590611322565b80601f0160208091040260200160405190810160405280929190818152602001828054610dd190611322565b8015610e1e5780601f10610df357610100808354040283529160200191610e1e565b820191906000526020600020905b815481529060010190602001808311610e0157829003601f168201915b5050505050905090565b606060028054610da590611322565b80603954610e45919061130f565b60398190556038541015610e5a576038546039555b603954603754610e6a91906112ed565b603a5560395460405133917f106aac375bbcf013d1e52338bbf9e740009a1a3a6869f8daa1b72aa1620f5fec91610ea991858252602082015260400190565b60405180910390a250565b600060208083528351808285015260005b81811015610ee157858101830151858201604001528201610ec5565b506000604082860101526040601f19601f8301168501019250505092915050565b80356001600160a01b0381168114610f1957600080fd5b919050565b600060208284031215610f3057600080fd5b610b4482610f02565b634e487b7160e01b600052604160045260246000fd5b600082601f830112610f6057600080fd5b813567ffffffffffffffff80821115610f7b57610f7b610f39565b604051601f8301601f19908116603f01168101908282118183101715610fa357610fa3610f39565b81604052838152866020858801011115610fbc57600080fd5b836020870160208301376000602085830101528094505050505092915050565b600080600060608486031215610ff157600080fd5b833567ffffffffffffffff8082111561100957600080fd5b61101587838801610f4f565b9450602086013591508082111561102b57600080fd5b5061103886828701610f4f565b92505061104760408501610f02565b90509250925092565b6000806040838503121561106357600080fd5b61106c83610f02565b915061107a60208401610f02565b90509250929050565b6000806040838503121561109657600080fd5b8235915061107a60208401610f02565b6000806000606084860312156110bb57600080fd5b833567ffffffffffffffff808211156110d357600080fd5b6110df87838801610f4f565b945060208601359150808211156110f557600080fd5b5061110286828701610f4f565b925050604084013560ff8116811461111957600080fd5b809150509250925092565b60008060006060848603121561113957600080fd5b505081359360208301359350604090920135919050565b60006020828403121561116257600080fd5b5035919050565b60006020828403121561117b57600080fd5b5051919050565b6020808252602e908201527f496e697469616c697a61626c653a20636f6e747261637420697320616c72656160408201526d191e481a5b9a5d1a585b1a5e995960921b606082015260800190565b634e487b7160e01b600052601160045260246000fd5b600181815b80851115611221578160001904821115611207576112076111d0565b8085161561121457918102915b93841c93908002906111eb565b509250929050565b6000826112385750600161050d565b816112455750600061050d565b816001811461125b576002811461126557611281565b600191505061050d565b60ff841115611276576112766111d0565b50506001821b61050d565b5060208310610133831016604e8410600b84101617156112a4575081810a61050d565b6112ae83836111e6565b80600019048211156112c2576112c26111d0565b029392505050565b6000610b448383611229565b808202811582820484141761050d5761050d6111d0565b60008261130a57634e487b7160e01b600052601260045260246000fd5b500490565b8082018082111561050d5761050d6111d0565b600181811c9082168061133657607f821691505b60208210810361135657634e487b7160e01b600052602260045260246000fd5b50919050565b601f8211156113a657600081815260208120601f850160051c810160208610156113835750805b601f850160051c820191505b818110156113a25782815560010161138f565b5050505b505050565b815167ffffffffffffffff8111156113c5576113c5610f39565b6113d9816113d38454611322565b8461135c565b602080601f83116001811461140e57600084156113f65750858301515b600019600386901b1c1916600185901b1785556113a2565b600085815260208120601f198616915b8281101561143d5788860151825594840194600190910190840161141e565b508582101561145b5787850151600019600388901b60f8161c191681555b5050505050600190811b01905550565b8181038181111561050d5761050d6111d056fea2646970667358221220f032a12b568a5d8e52a4d6d880ca94ddacdd6707efbcaa0c2488d486701ef7e964736f6c63430008110033","opcodes":"PUSH1 0x80 PUSH1 0x40 MSTORE CALLVALUE DUP1 ISZERO PUSH2 0x10 JUMPI PUSH1 0x0 DUP1 REVERT JUMPDEST POP PUSH2 0x14B4 DUP1 PUSH2 0x20 PUSH1 0x0 CODECOPY PUSH1 0x0 RETURN INVALID PUSH1 0x80 PUSH1 0x40 MSTORE CALLVALUE DUP1 ISZERO PUSH2 0x10 JUMPI PUSH1 0x0 DUP1 REVERT JUMPDEST POP PUSH1 0x4 CALLDATASIZE LT PUSH2 0x1F0 JUMPI PUSH1 0x0 CALLDATALOAD PUSH1 0xE0 SHR DUP1 PUSH4 0x78160376 GT PUSH2 0x10F JUMPI DUP1 PUSH4 0xB1BF962D GT PUSH2 0xA2 JUMPI DUP1 PUSH4 0xF14FAF6F GT PUSH2 0x71 JUMPI DUP1 PUSH4 0xF14FAF6F EQ PUSH2 0x44D JUMPI DUP1 PUSH4 0xF79ED94B EQ PUSH2 0x460 JUMPI DUP1 PUSH4 0xFCD3533C EQ PUSH2 0x471 JUMPI DUP1 PUSH4 0xFD5EB09D EQ PUSH2 0x484 JUMPI PUSH1 0x0 DUP1 REVERT JUMPDEST DUP1 PUSH4 0xB1BF962D EQ PUSH2 0x402 JUMPI DUP1 PUSH4 0xC4996F51 EQ PUSH2 0x40A JUMPI DUP1 PUSH4 0xD7F32852 EQ PUSH2 0x413 JUMPI DUP1 PUSH4 0xE1B11DA4 EQ PUSH2 0x426 JUMPI PUSH1 0x0 DUP1 REVERT JUMPDEST DUP1 PUSH4 0x94BF804D GT PUSH2 0xDE JUMPI DUP1 PUSH4 0x94BF804D EQ PUSH2 0x3C1 JUMPI DUP1 PUSH4 0x95D89B41 EQ PUSH2 0x3D4 JUMPI DUP1 PUSH4 0xA10DAEE3 EQ PUSH2 0x3DC JUMPI DUP1 PUSH4 0xA48DAA4F EQ PUSH2 0x3EF JUMPI PUSH1 0x0 DUP1 REVERT JUMPDEST DUP1 PUSH4 0x78160376 EQ PUSH2 0x352 JUMPI DUP1 PUSH4 0x7DA066C6 EQ PUSH2 0x372 JUMPI DUP1 PUSH4 0x7ECEBE00 EQ PUSH2 0x385 JUMPI DUP1 PUSH4 0x8E27D7D7 EQ PUSH2 0x3AE JUMPI PUSH1 0x0 DUP1 REVERT JUMPDEST DUP1 PUSH4 0x3570F3F1 GT PUSH2 0x187 JUMPI DUP1 PUSH4 0x413AB4A8 GT PUSH2 0x156 JUMPI DUP1 PUSH4 0x413AB4A8 EQ PUSH2 0x2EE JUMPI DUP1 PUSH4 0x469DDD12 EQ PUSH2 0x319 JUMPI DUP1 PUSH4 0x485CC955 EQ PUSH2 0x32C JUMPI DUP1 PUSH4 0x70A08231 EQ PUSH2 0x33F JUMPI PUSH1 0x0 DUP1 REVERT JUMPDEST DUP1 PUSH4 0x3570F3F1 EQ PUSH2 0x2A8 JUMPI DUP1 PUSH4 0x3644E515 EQ PUSH2 0x2BD JUMPI DUP1 PUSH4 0x36FED975 EQ PUSH2 0x2C5 JUMPI DUP1 PUSH4 0x3EAAF86B EQ PUSH2 0x2E5 JUMPI PUSH1 0x0 DUP1 REVERT JUMPDEST DUP1 PUSH4 0x2E12007C GT PUSH2 0x1C3 JUMPI DUP1 PUSH4 0x2E12007C EQ PUSH2 0x256 JUMPI DUP1 PUSH4 0x30ADF81F EQ PUSH2 0x25E JUMPI DUP1 PUSH4 0x313CE567 EQ PUSH2 0x285 JUMPI DUP1 PUSH4 0x32CB6B0C EQ PUSH2 0x29F JUMPI PUSH1 0x0 DUP1 REVERT JUMPDEST DUP1 PUSH4 0x6FDDE03 EQ PUSH2 0x1F5 JUMPI DUP1 PUSH4 0xC7D5CD8 EQ PUSH2 0x213 JUMPI DUP1 PUSH4 0x18160DDD EQ PUSH2 0x225 JUMPI DUP1 PUSH4 0x1DA24F3E EQ PUSH2 0x22D JUMPI JUMPDEST PUSH1 0x0 DUP1 REVERT JUMPDEST PUSH2 0x1FD PUSH2 0x48D JUMP JUMPDEST PUSH1 0x40 MLOAD PUSH2 0x20A SWAP2 SWAP1 PUSH2 0xEB4 JUMP JUMPDEST PUSH1 0x40 MLOAD DUP1 SWAP2 SUB SWAP1 RETURN JUMPDEST PUSH1 0x3A SLOAD JUMPDEST PUSH1 0x40 MLOAD SWAP1 DUP2 MSTORE PUSH1 0x20 ADD PUSH2 0x20A JUMP JUMPDEST PUSH1 0x39 SLOAD PUSH2 0x217 JUMP JUMPDEST PUSH2 0x217 PUSH2 0x23B CALLDATASIZE PUSH1 0x4 PUSH2 0xF1E JUMP JUMPDEST PUSH1 0x1 PUSH1 0x1 PUSH1 0xA0 SHL SUB AND PUSH1 0x0 SWAP1 DUP2 MSTORE PUSH1 0x3E PUSH1 0x20 MSTORE PUSH1 0x40 SWAP1 KECCAK256 SLOAD SWAP1 JUMP JUMPDEST PUSH2 0x217 PUSH2 0x49C JUMP JUMPDEST PUSH2 0x217 PUSH32 0x6E71EDAE12B1B97F4D1F60370FEF10105FA2FAAE0126114A169C64845D6126C9 DUP2 JUMP JUMPDEST PUSH2 0x28D PUSH2 0x513 JUMP JUMPDEST PUSH1 0x40 MLOAD PUSH1 0xFF SWAP1 SWAP2 AND DUP2 MSTORE PUSH1 0x20 ADD PUSH2 0x20A JUMP JUMPDEST PUSH2 0x217 PUSH1 0x38 SLOAD DUP2 JUMP JUMPDEST PUSH2 0x2BB PUSH2 0x2B6 CALLDATASIZE PUSH1 0x4 PUSH2 0xFDC JUMP JUMPDEST PUSH2 0x521 JUMP JUMPDEST STOP JUMPDEST PUSH2 0x217 PUSH2 0x6E1 JUMP JUMPDEST PUSH2 0x217 PUSH2 0x2D3 CALLDATASIZE PUSH1 0x4 PUSH2 0xF1E JUMP JUMPDEST PUSH1 0x3E PUSH1 0x20 MSTORE PUSH1 0x0 SWAP1 DUP2 MSTORE PUSH1 0x40 SWAP1 KECCAK256 SLOAD DUP2 JUMP JUMPDEST PUSH2 0x217 PUSH1 0x39 SLOAD DUP2 JUMP JUMPDEST PUSH1 0x41 SLOAD PUSH2 0x301 SWAP1 PUSH1 0x1 PUSH1 0x1 PUSH1 0xA0 SHL SUB AND DUP2 JUMP JUMPDEST PUSH1 0x40 MLOAD PUSH1 0x1 PUSH1 0x1 PUSH1 0xA0 SHL SUB SWAP1 SWAP2 AND DUP2 MSTORE PUSH1 0x20 ADD PUSH2 0x20A JUMP JUMPDEST PUSH1 0x3B SLOAD PUSH2 0x301 SWAP1 PUSH1 0x1 PUSH1 0x1 PUSH1 0xA0 SHL SUB AND DUP2 JUMP JUMPDEST PUSH2 0x2BB PUSH2 0x33A CALLDATASIZE PUSH1 0x4 PUSH2 0x1050 JUMP JUMPDEST PUSH2 0x78D JUMP JUMPDEST PUSH2 0x217 PUSH2 0x34D CALLDATASIZE PUSH1 0x4 PUSH2 0xF1E JUMP JUMPDEST PUSH2 0x800 JUMP JUMPDEST PUSH2 0x1FD PUSH1 0x40 MLOAD DUP1 PUSH1 0x40 ADD PUSH1 0x40 MSTORE DUP1 PUSH1 0x1 DUP2 MSTORE PUSH1 0x20 ADD PUSH1 0x31 PUSH1 0xF8 SHL DUP2 MSTORE POP DUP2 JUMP JUMPDEST PUSH1 0x3C SLOAD PUSH2 0x301 SWAP1 PUSH1 0x1 PUSH1 0x1 PUSH1 0xA0 SHL SUB AND DUP2 JUMP JUMPDEST PUSH2 0x217 PUSH2 0x393 CALLDATASIZE PUSH1 0x4 PUSH2 0xF1E JUMP JUMPDEST PUSH1 0x1 PUSH1 0x1 PUSH1 0xA0 SHL SUB AND PUSH1 0x0 SWAP1 DUP2 MSTORE PUSH1 0x40 PUSH1 0x20 DUP2 SWAP1 MSTORE SWAP1 KECCAK256 SLOAD SWAP1 JUMP JUMPDEST PUSH1 0x36 SLOAD PUSH2 0x301 SWAP1 PUSH1 0x1 PUSH1 0x1 PUSH1 0xA0 SHL SUB AND DUP2 JUMP JUMPDEST PUSH2 0x2BB PUSH2 0x3CF CALLDATASIZE PUSH1 0x4 PUSH2 0x1083 JUMP JUMPDEST PUSH2 0x827 JUMP JUMPDEST PUSH2 0x1FD PUSH2 0x9A2 JUMP JUMPDEST PUSH2 0x2BB PUSH2 0x3EA CALLDATASIZE PUSH1 0x4 PUSH2 0x10A6 JUMP JUMPDEST PUSH2 0x9AC JUMP JUMPDEST PUSH2 0x217 PUSH2 0x3FD CALLDATASIZE PUSH1 0x4 PUSH2 0x1124 JUMP JUMPDEST PUSH2 0xA43 JUMP JUMPDEST PUSH1 0x37 SLOAD PUSH2 0x217 JUMP JUMPDEST PUSH2 0x217 PUSH1 0x3A SLOAD DUP2 JUMP JUMPDEST PUSH1 0x3D SLOAD PUSH2 0x301 SWAP1 PUSH1 0x1 PUSH1 0x1 PUSH1 0xA0 SHL SUB AND DUP2 JUMP JUMPDEST PUSH2 0x217 PUSH32 0x8B73C3C69BB8FE3D512ECC4CF759CC79239F7B179B0FFACAA9A75D522B39400F DUP2 JUMP JUMPDEST PUSH2 0x2BB PUSH2 0x45B CALLDATASIZE PUSH1 0x4 PUSH2 0x1150 JUMP JUMPDEST PUSH2 0xB4B JUMP JUMPDEST PUSH1 0x41 SLOAD PUSH1 0x1 PUSH1 0x1 PUSH1 0xA0 SHL SUB AND PUSH2 0x301 JUMP JUMPDEST PUSH2 0x2BB PUSH2 0x47F CALLDATASIZE PUSH1 0x4 PUSH2 0x1083 JUMP JUMPDEST PUSH2 0xBD8 JUMP JUMPDEST PUSH2 0x217 PUSH1 0x37 SLOAD DUP2 JUMP JUMPDEST PUSH1 0x60 PUSH2 0x497 PUSH2 0xD96 JUMP JUMPDEST SWAP1 POP SWAP1 JUMP JUMPDEST PUSH1 0x41 SLOAD PUSH1 0x40 MLOAD PUSH4 0x70A08231 PUSH1 0xE0 SHL DUP2 MSTORE ADDRESS PUSH1 0x4 DUP3 ADD MSTORE PUSH1 0x0 SWAP2 DUP3 SWAP2 PUSH1 0x1 PUSH1 0x1 PUSH1 0xA0 SHL SUB SWAP1 SWAP2 AND SWAP1 PUSH4 0x70A08231 SWAP1 PUSH1 0x24 ADD PUSH1 0x20 PUSH1 0x40 MLOAD DUP1 DUP4 SUB DUP2 DUP7 GAS STATICCALL ISZERO DUP1 ISZERO PUSH2 0x4E9 JUMPI RETURNDATASIZE PUSH1 0x0 DUP1 RETURNDATACOPY RETURNDATASIZE PUSH1 0x0 REVERT JUMPDEST POP POP POP POP PUSH1 0x40 MLOAD RETURNDATASIZE PUSH1 0x1F NOT PUSH1 0x1F DUP3 ADD AND DUP3 ADD DUP1 PUSH1 0x40 MSTORE POP DUP2 ADD SWAP1 PUSH2 0x50D SWAP2 SWAP1 PUSH2 0x1169 JUMP JUMPDEST SWAP3 SWAP2 POP POP JUMP JUMPDEST PUSH1 0x0 PUSH2 0x497 PUSH1 0x3 SLOAD PUSH1 0xFF AND SWAP1 JUMP JUMPDEST PUSH1 0x0 SLOAD PUSH2 0x100 SWAP1 DIV PUSH1 0xFF AND DUP1 PUSH2 0x53A JUMPI POP PUSH1 0x0 SLOAD PUSH1 0xFF AND ISZERO JUMPDEST PUSH2 0x55F JUMPI PUSH1 0x40 MLOAD PUSH3 0x461BCD PUSH1 0xE5 SHL DUP2 MSTORE PUSH1 0x4 ADD PUSH2 0x556 SWAP1 PUSH2 0x1182 JUMP JUMPDEST PUSH1 0x40 MLOAD DUP1 SWAP2 SUB SWAP1 REVERT JUMPDEST PUSH1 0x0 SLOAD PUSH2 0x100 SWAP1 DIV PUSH1 0xFF AND ISZERO DUP1 ISZERO PUSH2 0x581 JUMPI PUSH1 0x0 DUP1 SLOAD PUSH2 0xFFFF NOT AND PUSH2 0x101 OR SWAP1 SSTORE JUMPDEST PUSH2 0x58D DUP5 DUP5 PUSH1 0x12 PUSH2 0x9AC JUMP JUMPDEST PUSH2 0x599 PUSH1 0x12 PUSH1 0xA PUSH2 0x12CA JUMP JUMPDEST PUSH2 0x5A4 SWAP1 PUSH1 0x1 PUSH2 0x12D6 JUMP JUMPDEST PUSH2 0x5C2 SWAP1 PUSH20 0xAF298D050E4395D69670B12B7F41000000000000 PUSH2 0x12D6 JUMP JUMPDEST PUSH1 0x37 SSTORE PUSH16 0xFFFFFFFFFFFFFFFFFFFFFFFFFFFFFFFF PUSH1 0x38 SSTORE PUSH2 0x5E5 PUSH1 0x12 PUSH1 0xA PUSH2 0x12CA JUMP JUMPDEST PUSH2 0x5F0 SWAP1 PUSH1 0x1 PUSH2 0x12D6 JUMP JUMPDEST PUSH1 0x39 DUP2 SWAP1 SSTORE PUSH1 0x37 SLOAD PUSH1 0x0 DUP1 MSTORE PUSH1 0x3E PUSH1 0x20 MSTORE PUSH32 0x5F97C64B3C4BDFFF50B5C8F505E633128432C6B07FC6C8ABC77DCE786C7317D4 DUP2 SWAP1 SSTORE PUSH2 0x62F SWAP2 SWAP1 PUSH2 0x12ED JUMP JUMPDEST PUSH1 0x3A SSTORE PUSH1 0x3B DUP1 SLOAD PUSH20 0x6761A059EB3881627AD33553DBEF81A2BA576DBF PUSH1 0x1 PUSH1 0x1 PUSH1 0xA0 SHL SUB NOT SWAP2 DUP3 AND OR SWAP1 SWAP2 SSTORE PUSH1 0x3C DUP1 SLOAD PUSH20 0x60BB1E2AA1C9ACAFB4D34F71585D7E959F387769 SWAP1 DUP4 AND OR SWAP1 SSTORE PUSH1 0x3D DUP1 SLOAD SWAP1 SWAP2 AND PUSH1 0x1 PUSH1 0x1 PUSH1 0xA0 SHL SUB DUP5 AND OR SWAP1 SSTORE PUSH1 0x39 SLOAD PUSH1 0x40 MLOAD SWAP1 DUP2 MSTORE PUSH1 0x0 SWAP1 ADDRESS SWAP1 PUSH32 0xDDF252AD1BE2C89B69C2B068FC378DAA952BA7F163C4A11628F55A4DF523B3EF SWAP1 PUSH1 0x20 ADD PUSH1 0x40 MLOAD DUP1 SWAP2 SUB SWAP1 LOG3 DUP1 ISZERO PUSH2 0x6DB JUMPI PUSH1 0x0 DUP1 SLOAD PUSH2 0xFF00 NOT AND SWAP1 SSTORE JUMPDEST POP POP POP POP JUMP JUMPDEST PUSH1 0x0 CHAINID PUSH32 0x8B73C3C69BB8FE3D512ECC4CF759CC79239F7B179B0FFACAA9A75D522B39400F PUSH2 0x70D PUSH2 0x48D JUMP JUMPDEST DUP1 MLOAD PUSH1 0x20 SWAP2 DUP3 ADD KECCAK256 PUSH1 0x40 DUP1 MLOAD DUP1 DUP3 ADD DUP3 MSTORE PUSH1 0x1 DUP2 MSTORE PUSH1 0x31 PUSH1 0xF8 SHL SWAP1 DUP5 ADD MSTORE DUP1 MLOAD SWAP3 DUP4 ADD SWAP4 SWAP1 SWAP4 MSTORE SWAP2 DUP2 ADD SWAP2 SWAP1 SWAP2 MSTORE PUSH32 0xC89EFDAA54C0F20C7ADF612882DF0950F5A951637E0307CDCB4C672F298B8BC6 PUSH1 0x60 DUP3 ADD MSTORE PUSH1 0x80 DUP2 ADD DUP3 SWAP1 MSTORE ADDRESS PUSH1 0xA0 DUP3 ADD MSTORE PUSH1 0xC0 ADD PUSH1 0x40 MLOAD PUSH1 0x20 DUP2 DUP4 SUB SUB DUP2 MSTORE SWAP1 PUSH1 0x40 MSTORE DUP1 MLOAD SWAP1 PUSH1 0x20 ADD KECCAK256 SWAP2 POP POP SWAP1 JUMP JUMPDEST PUSH2 0x7DD PUSH1 0x40 MLOAD DUP1 PUSH1 0x40 ADD PUSH1 0x40 MSTORE DUP1 PUSH1 0x11 DUP2 MSTORE PUSH1 0x20 ADD PUSH17 0x676F6F546F676574686572506F696E7473 PUSH1 0x78 SHL DUP2 MSTORE POP PUSH1 0x40 MLOAD DUP1 PUSH1 0x40 ADD PUSH1 0x40 MSTORE DUP1 PUSH1 0x4 DUP2 MSTORE PUSH1 0x20 ADD PUSH4 0x11D3D3D5 PUSH1 0xE2 SHL DUP2 MSTORE POP DUP4 PUSH2 0x521 JUMP JUMPDEST POP PUSH1 0x41 DUP1 SLOAD PUSH1 0x1 PUSH1 0x1 PUSH1 0xA0 SHL SUB NOT AND PUSH1 0x1 PUSH1 0x1 PUSH1 0xA0 SHL SUB SWAP3 SWAP1 SWAP3 AND SWAP2 SWAP1 SWAP2 OR SWAP1 SSTORE JUMP JUMPDEST PUSH1 0x3A SLOAD PUSH1 0x1 PUSH1 0x1 PUSH1 0xA0 SHL SUB DUP3 AND PUSH1 0x0 SWAP1 DUP2 MSTORE PUSH1 0x3E PUSH1 0x20 MSTORE PUSH1 0x40 DUP2 KECCAK256 SLOAD SWAP1 SWAP2 PUSH2 0x50D SWAP2 PUSH2 0x12ED JUMP JUMPDEST PUSH1 0x3D PUSH1 0x0 SWAP1 SLOAD SWAP1 PUSH2 0x100 EXP SWAP1 DIV PUSH1 0x1 PUSH1 0x1 PUSH1 0xA0 SHL SUB AND PUSH1 0x1 PUSH1 0x1 PUSH1 0xA0 SHL SUB AND PUSH4 0xEB0C4955 PUSH1 0x40 MLOAD DUP2 PUSH4 0xFFFFFFFF AND PUSH1 0xE0 SHL DUP2 MSTORE PUSH1 0x4 ADD PUSH1 0x0 PUSH1 0x40 MLOAD DUP1 DUP4 SUB DUP2 PUSH1 0x0 DUP8 DUP1 EXTCODESIZE ISZERO DUP1 ISZERO PUSH2 0x877 JUMPI PUSH1 0x0 DUP1 REVERT JUMPDEST POP GAS CALL ISZERO DUP1 ISZERO PUSH2 0x88B JUMPI RETURNDATASIZE PUSH1 0x0 DUP1 RETURNDATACOPY RETURNDATASIZE PUSH1 0x0 REVERT JUMPDEST POP POP PUSH1 0x3D SLOAD PUSH1 0x1 PUSH1 0x1 PUSH1 0xA0 SHL SUB AND CALLER EQ SWAP2 POP PUSH2 0x8A8 SWAP1 POP JUMPI PUSH1 0x0 DUP1 REVERT JUMPDEST PUSH1 0x3A SLOAD PUSH2 0x8B5 SWAP1 DUP4 PUSH2 0x12D6 JUMP JUMPDEST PUSH1 0x1 PUSH1 0x1 PUSH1 0xA0 SHL SUB DUP3 AND PUSH1 0x0 SWAP1 DUP2 MSTORE PUSH1 0x3E PUSH1 0x20 MSTORE PUSH1 0x40 SWAP1 KECCAK256 SLOAD PUSH2 0x8D8 SWAP2 SWAP1 PUSH2 0x130F JUMP JUMPDEST PUSH1 0x1 PUSH1 0x1 PUSH1 0xA0 SHL SUB DUP3 AND PUSH1 0x0 SWAP1 DUP2 MSTORE PUSH1 0x3E PUSH1 0x20 MSTORE PUSH1 0x40 SWAP1 KECCAK256 SSTORE PUSH1 0x39 SLOAD PUSH2 0x8FF SWAP1 DUP4 SWAP1 PUSH2 0x130F JUMP JUMPDEST PUSH1 0x39 SSTORE PUSH1 0x3A SLOAD PUSH2 0x90F SWAP1 DUP4 PUSH2 0x12D6 JUMP JUMPDEST PUSH1 0x37 SLOAD PUSH2 0x91C SWAP2 SWAP1 PUSH2 0x130F JUMP JUMPDEST PUSH1 0x37 SSTORE PUSH1 0x40 MLOAD DUP3 DUP2 MSTORE PUSH1 0x1 PUSH1 0x1 PUSH1 0xA0 SHL SUB DUP3 AND SWAP1 PUSH32 0xF6798A560793A54C3BCFE86A93CDE1E73087D944C0EA20544137D4121396885 SWAP1 PUSH1 0x20 ADD PUSH1 0x40 MLOAD DUP1 SWAP2 SUB SWAP1 LOG2 PUSH1 0x40 MLOAD DUP3 DUP2 MSTORE PUSH1 0x1 PUSH1 0x1 PUSH1 0xA0 SHL SUB DUP3 AND SWAP1 PUSH1 0x0 SWAP1 PUSH32 0xDDF252AD1BE2C89B69C2B068FC378DAA952BA7F163C4A11628F55A4DF523B3EF SWAP1 PUSH1 0x20 ADD PUSH1 0x40 MLOAD DUP1 SWAP2 SUB SWAP1 LOG3 POP POP JUMP JUMPDEST PUSH1 0x60 PUSH2 0x497 PUSH2 0xE28 JUMP JUMPDEST PUSH1 0x0 SLOAD PUSH2 0x100 SWAP1 DIV PUSH1 0xFF AND DUP1 PUSH2 0x9C5 JUMPI POP PUSH1 0x0 SLOAD PUSH1 0xFF AND ISZERO JUMPDEST PUSH2 0x9E1 JUMPI PUSH1 0x40 MLOAD PUSH3 0x461BCD PUSH1 0xE5 SHL DUP2 MSTORE PUSH1 0x4 ADD PUSH2 0x556 SWAP1 PUSH2 0x1182 JUMP JUMPDEST PUSH1 0x0 SLOAD PUSH2 0x100 SWAP1 DIV PUSH1 0xFF AND ISZERO DUP1 ISZERO PUSH2 0xA03 JUMPI PUSH1 0x0 DUP1 SLOAD PUSH2 0xFFFF NOT AND PUSH2 0x101 OR SWAP1 SSTORE JUMPDEST PUSH1 0x1 PUSH2 0xA0F DUP6 DUP3 PUSH2 0x13AB JUMP JUMPDEST POP PUSH1 0x2 PUSH2 0xA1C DUP5 DUP3 PUSH2 0x13AB JUMP JUMPDEST POP PUSH1 0x3 DUP1 SLOAD PUSH1 0xFF NOT AND PUSH1 0xFF DUP5 AND OR SWAP1 SSTORE DUP1 ISZERO PUSH2 0x6DB JUMPI PUSH1 0x0 DUP1 SLOAD PUSH2 0xFF00 NOT AND SWAP1 SSTORE POP POP POP POP JUMP JUMPDEST PUSH1 0x3D SLOAD PUSH1 0x0 SWAP1 PUSH1 0x1 PUSH1 0x1 PUSH1 0xA0 SHL SUB AND CALLER EQ PUSH2 0xA5D JUMPI PUSH1 0x0 DUP1 REVERT JUMPDEST DUP3 ISZERO DUP1 ISZERO PUSH2 0xA69 JUMPI POP DUP2 ISZERO JUMPDEST ISZERO PUSH2 0xAB3 JUMPI DUP4 PUSH32 0x72725A3B1E5BD622D6BCD1339BB31279C351ABE8F541AC7FD320F24E1B1641F2 PUSH1 0x39 SLOAD PUSH1 0x40 MLOAD PUSH2 0xAA2 SWAP2 DUP2 MSTORE PUSH1 0x20 ADD SWAP1 JUMP JUMPDEST PUSH1 0x40 MLOAD DUP1 SWAP2 SUB SWAP1 LOG2 POP PUSH1 0x39 SLOAD PUSH2 0xB44 JUMP JUMPDEST DUP3 ISZERO PUSH2 0xACF JUMPI DUP3 PUSH1 0x39 SLOAD PUSH2 0xAC7 SWAP2 SWAP1 PUSH2 0x130F JUMP JUMPDEST PUSH1 0x39 SSTORE PUSH2 0xAE1 JUMP JUMPDEST DUP2 PUSH1 0x39 SLOAD PUSH2 0xADD SWAP2 SWAP1 PUSH2 0x146B JUMP JUMPDEST PUSH1 0x39 SSTORE JUMPDEST PUSH1 0x38 SLOAD PUSH1 0x39 SLOAD GT ISZERO PUSH2 0xAF4 JUMPI PUSH1 0x38 SLOAD PUSH1 0x39 SSTORE JUMPDEST PUSH1 0x39 SLOAD PUSH1 0x37 SLOAD PUSH2 0xB04 SWAP2 SWAP1 PUSH2 0x12ED JUMP JUMPDEST PUSH1 0x3A SSTORE PUSH1 0x39 SLOAD PUSH1 0x40 MLOAD SWAP1 DUP2 MSTORE DUP5 SWAP1 PUSH32 0x72725A3B1E5BD622D6BCD1339BB31279C351ABE8F541AC7FD320F24E1B1641F2 SWAP1 PUSH1 0x20 ADD PUSH1 0x40 MLOAD DUP1 SWAP2 SUB SWAP1 LOG2 POP PUSH1 0x39 SLOAD JUMPDEST SWAP4 SWAP3 POP POP POP JUMP JUMPDEST PUSH1 0x3D PUSH1 0x0 SWAP1 SLOAD SWAP1 PUSH2 0x100 EXP SWAP1 DIV PUSH1 0x1 PUSH1 0x1 PUSH1 0xA0 SHL SUB AND PUSH1 0x1 PUSH1 0x1 PUSH1 0xA0 SHL SUB AND PUSH4 0xEB0C4955 PUSH1 0x40 MLOAD DUP2 PUSH4 0xFFFFFFFF AND PUSH1 0xE0 SHL DUP2 MSTORE PUSH1 0x4 ADD PUSH1 0x0 PUSH1 0x40 MLOAD DUP1 DUP4 SUB DUP2 PUSH1 0x0 DUP8 DUP1 EXTCODESIZE ISZERO DUP1 ISZERO PUSH2 0xB9B JUMPI PUSH1 0x0 DUP1 REVERT JUMPDEST POP GAS CALL ISZERO DUP1 ISZERO PUSH2 0xBAF JUMPI RETURNDATASIZE PUSH1 0x0 DUP1 RETURNDATACOPY RETURNDATASIZE PUSH1 0x0 REVERT JUMPDEST POP POP PUSH1 0x3D SLOAD PUSH1 0x1 PUSH1 0x1 PUSH1 0xA0 SHL SUB AND CALLER EQ SWAP2 POP PUSH2 0xBCC SWAP1 POP JUMPI PUSH1 0x0 DUP1 REVERT JUMPDEST PUSH2 0xBD5 DUP2 PUSH2 0xE37 JUMP JUMPDEST POP JUMP JUMPDEST PUSH1 0x3D PUSH1 0x0 SWAP1 SLOAD SWAP1 PUSH2 0x100 EXP SWAP1 DIV PUSH1 0x1 PUSH1 0x1 PUSH1 0xA0 SHL SUB AND PUSH1 0x1 PUSH1 0x1 PUSH1 0xA0 SHL SUB AND PUSH4 0xEB0C4955 PUSH1 0x40 MLOAD DUP2 PUSH4 0xFFFFFFFF AND PUSH1 0xE0 SHL DUP2 MSTORE PUSH1 0x4 ADD PUSH1 0x0 PUSH1 0x40 MLOAD DUP1 DUP4 SUB DUP2 PUSH1 0x0 DUP8 DUP1 EXTCODESIZE ISZERO DUP1 ISZERO PUSH2 0xC28 JUMPI PUSH1 0x0 DUP1 REVERT JUMPDEST POP GAS CALL ISZERO DUP1 ISZERO PUSH2 0xC3C JUMPI RETURNDATASIZE PUSH1 0x0 DUP1 RETURNDATACOPY RETURNDATASIZE PUSH1 0x0 REVERT JUMPDEST POP POP POP POP DUP2 PUSH1 0x0 SUB PUSH2 0xC80 JUMPI PUSH1 0x40 MLOAD PUSH3 0x461BCD PUSH1 0xE5 SHL DUP2 MSTORE PUSH1 0x20 PUSH1 0x4 DUP3 ADD MSTORE PUSH1 0xD PUSH1 0x24 DUP3 ADD MSTORE PUSH13 0x43616E6E6F74206275726E203 PUSH1 0x9C SHL PUSH1 0x44 DUP3 ADD MSTORE PUSH1 0x64 ADD PUSH2 0x556 JUMP JUMPDEST PUSH1 0x3D SLOAD PUSH1 0x1 PUSH1 0x1 PUSH1 0xA0 SHL SUB AND CALLER EQ PUSH2 0xC97 JUMPI PUSH1 0x0 DUP1 REVERT JUMPDEST PUSH1 0x3A SLOAD PUSH2 0xCA4 SWAP1 DUP4 PUSH2 0x12D6 JUMP JUMPDEST PUSH1 0x1 PUSH1 0x1 PUSH1 0xA0 SHL SUB DUP3 AND PUSH1 0x0 SWAP1 DUP2 MSTORE PUSH1 0x3E PUSH1 0x20 MSTORE PUSH1 0x40 SWAP1 KECCAK256 SLOAD PUSH2 0xCC7 SWAP2 SWAP1 PUSH2 0x146B JUMP JUMPDEST PUSH1 0x1 PUSH1 0x1 PUSH1 0xA0 SHL SUB DUP3 AND PUSH1 0x0 SWAP1 DUP2 MSTORE PUSH1 0x3E PUSH1 0x20 MSTORE PUSH1 0x40 SWAP1 KECCAK256 SSTORE PUSH1 0x39 SLOAD PUSH2 0xCEE SWAP1 DUP4 SWAP1 PUSH2 0x146B JUMP JUMPDEST PUSH1 0x39 SSTORE PUSH1 0x3A SLOAD PUSH2 0xCFE SWAP1 DUP4 PUSH2 0x12D6 JUMP JUMPDEST PUSH1 0x37 SLOAD PUSH2 0xD0B SWAP2 SWAP1 PUSH2 0x146B JUMP JUMPDEST PUSH1 0x37 SSTORE PUSH1 0x40 MLOAD DUP3 DUP2 MSTORE PUSH1 0x0 SWAP1 PUSH1 0x1 PUSH1 0x1 PUSH1 0xA0 SHL SUB DUP4 AND SWAP1 PUSH32 0xDDF252AD1BE2C89B69C2B068FC378DAA952BA7F163C4A11628F55A4DF523B3EF SWAP1 PUSH1 0x20 ADD PUSH1 0x40 MLOAD DUP1 SWAP2 SUB SWAP1 LOG3 DUP1 PUSH1 0x1 PUSH1 0x1 PUSH1 0xA0 SHL SUB AND PUSH32 0xCC16F5DBB4873280815C1EE09DBD06736CFFCC184412CF7A71A0FDB75D397CA5 DUP4 PUSH1 0x40 MLOAD PUSH2 0xD8A SWAP2 DUP2 MSTORE PUSH1 0x20 ADD SWAP1 JUMP JUMPDEST PUSH1 0x40 MLOAD DUP1 SWAP2 SUB SWAP1 LOG2 POP POP JUMP JUMPDEST PUSH1 0x60 PUSH1 0x1 DUP1 SLOAD PUSH2 0xDA5 SWAP1 PUSH2 0x1322 JUMP JUMPDEST DUP1 PUSH1 0x1F ADD PUSH1 0x20 DUP1 SWAP2 DIV MUL PUSH1 0x20 ADD PUSH1 0x40 MLOAD SWAP1 DUP2 ADD PUSH1 0x40 MSTORE DUP1 SWAP3 SWAP2 SWAP1 DUP2 DUP2 MSTORE PUSH1 0x20 ADD DUP3 DUP1 SLOAD PUSH2 0xDD1 SWAP1 PUSH2 0x1322 JUMP JUMPDEST DUP1 ISZERO PUSH2 0xE1E JUMPI DUP1 PUSH1 0x1F LT PUSH2 0xDF3 JUMPI PUSH2 0x100 DUP1 DUP4 SLOAD DIV MUL DUP4 MSTORE SWAP2 PUSH1 0x20 ADD SWAP2 PUSH2 0xE1E JUMP JUMPDEST DUP3 ADD SWAP2 SWAP1 PUSH1 0x0 MSTORE PUSH1 0x20 PUSH1 0x0 KECCAK256 SWAP1 JUMPDEST DUP2 SLOAD DUP2 MSTORE SWAP1 PUSH1 0x1 ADD SWAP1 PUSH1 0x20 ADD DUP1 DUP4 GT PUSH2 0xE01 JUMPI DUP3 SWAP1 SUB PUSH1 0x1F AND DUP3 ADD SWAP2 JUMPDEST POP POP POP POP POP SWAP1 POP SWAP1 JUMP JUMPDEST PUSH1 0x60 PUSH1 0x2 DUP1 SLOAD PUSH2 0xDA5 SWAP1 PUSH2 0x1322 JUMP JUMPDEST DUP1 PUSH1 0x39 SLOAD PUSH2 0xE45 SWAP2 SWAP1 PUSH2 0x130F JUMP JUMPDEST PUSH1 0x39 DUP2 SWAP1 SSTORE PUSH1 0x38 SLOAD LT ISZERO PUSH2 0xE5A JUMPI PUSH1 0x38 SLOAD PUSH1 0x39 SSTORE JUMPDEST PUSH1 0x39 SLOAD PUSH1 0x37 SLOAD PUSH2 0xE6A SWAP2 SWAP1 PUSH2 0x12ED JUMP JUMPDEST PUSH1 0x3A SSTORE PUSH1 0x39 SLOAD PUSH1 0x40 MLOAD CALLER SWAP2 PUSH32 0x106AAC375BBCF013D1E52338BBF9E740009A1A3A6869F8DAA1B72AA1620F5FEC SWAP2 PUSH2 0xEA9 SWAP2 DUP6 DUP3 MSTORE PUSH1 0x20 DUP3 ADD MSTORE PUSH1 0x40 ADD SWAP1 JUMP JUMPDEST PUSH1 0x40 MLOAD DUP1 SWAP2 SUB SWAP1 LOG2 POP JUMP JUMPDEST PUSH1 0x0 PUSH1 0x20 DUP1 DUP4 MSTORE DUP4 MLOAD DUP1 DUP3 DUP6 ADD MSTORE PUSH1 0x0 JUMPDEST DUP2 DUP2 LT ISZERO PUSH2 0xEE1 JUMPI DUP6 DUP2 ADD DUP4 ADD MLOAD DUP6 DUP3 ADD PUSH1 0x40 ADD MSTORE DUP3 ADD PUSH2 0xEC5 JUMP JUMPDEST POP PUSH1 0x0 PUSH1 0x40 DUP3 DUP7 ADD ADD MSTORE PUSH1 0x40 PUSH1 0x1F NOT PUSH1 0x1F DUP4 ADD AND DUP6 ADD ADD SWAP3 POP POP POP SWAP3 SWAP2 POP POP JUMP JUMPDEST DUP1 CALLDATALOAD PUSH1 0x1 PUSH1 0x1 PUSH1 0xA0 SHL SUB DUP2 AND DUP2 EQ PUSH2 0xF19 JUMPI PUSH1 0x0 DUP1 REVERT JUMPDEST SWAP2 SWAP1 POP JUMP JUMPDEST PUSH1 0x0 PUSH1 0x20 DUP3 DUP5 SUB SLT ISZERO PUSH2 0xF30 JUMPI PUSH1 0x0 DUP1 REVERT JUMPDEST PUSH2 0xB44 DUP3 PUSH2 0xF02 JUMP JUMPDEST PUSH4 0x4E487B71 PUSH1 0xE0 SHL PUSH1 0x0 MSTORE PUSH1 0x41 PUSH1 0x4 MSTORE PUSH1 0x24 PUSH1 0x0 REVERT JUMPDEST PUSH1 0x0 DUP3 PUSH1 0x1F DUP4 ADD SLT PUSH2 0xF60 JUMPI PUSH1 0x0 DUP1 REVERT JUMPDEST DUP2 CALLDATALOAD PUSH8 0xFFFFFFFFFFFFFFFF DUP1 DUP3 GT ISZERO PUSH2 0xF7B JUMPI PUSH2 0xF7B PUSH2 0xF39 JUMP JUMPDEST PUSH1 0x40 MLOAD PUSH1 0x1F DUP4 ADD PUSH1 0x1F NOT SWAP1 DUP2 AND PUSH1 0x3F ADD AND DUP2 ADD SWAP1 DUP3 DUP3 GT DUP2 DUP4 LT OR ISZERO PUSH2 0xFA3 JUMPI PUSH2 0xFA3 PUSH2 0xF39 JUMP JUMPDEST DUP2 PUSH1 0x40 MSTORE DUP4 DUP2 MSTORE DUP7 PUSH1 0x20 DUP6 DUP9 ADD ADD GT ISZERO PUSH2 0xFBC JUMPI PUSH1 0x0 DUP1 REVERT JUMPDEST DUP4 PUSH1 0x20 DUP8 ADD PUSH1 0x20 DUP4 ADD CALLDATACOPY PUSH1 0x0 PUSH1 0x20 DUP6 DUP4 ADD ADD MSTORE DUP1 SWAP5 POP POP POP POP POP SWAP3 SWAP2 POP POP JUMP JUMPDEST PUSH1 0x0 DUP1 PUSH1 0x0 PUSH1 0x60 DUP5 DUP7 SUB SLT ISZERO PUSH2 0xFF1 JUMPI PUSH1 0x0 DUP1 REVERT JUMPDEST DUP4 CALLDATALOAD PUSH8 0xFFFFFFFFFFFFFFFF DUP1 DUP3 GT ISZERO PUSH2 0x1009 JUMPI PUSH1 0x0 DUP1 REVERT JUMPDEST PUSH2 0x1015 DUP8 DUP4 DUP9 ADD PUSH2 0xF4F JUMP JUMPDEST SWAP5 POP PUSH1 0x20 DUP7 ADD CALLDATALOAD SWAP2 POP DUP1 DUP3 GT ISZERO PUSH2 0x102B JUMPI PUSH1 0x0 DUP1 REVERT JUMPDEST POP PUSH2 0x1038 DUP7 DUP3 DUP8 ADD PUSH2 0xF4F JUMP JUMPDEST SWAP3 POP POP PUSH2 0x1047 PUSH1 0x40 DUP6 ADD PUSH2 0xF02 JUMP JUMPDEST SWAP1 POP SWAP3 POP SWAP3 POP SWAP3 JUMP JUMPDEST PUSH1 0x0 DUP1 PUSH1 0x40 DUP4 DUP6 SUB SLT ISZERO PUSH2 0x1063 JUMPI PUSH1 0x0 DUP1 REVERT JUMPDEST PUSH2 0x106C DUP4 PUSH2 0xF02 JUMP JUMPDEST SWAP2 POP PUSH2 0x107A PUSH1 0x20 DUP5 ADD PUSH2 0xF02 JUMP JUMPDEST SWAP1 POP SWAP3 POP SWAP3 SWAP1 POP JUMP JUMPDEST PUSH1 0x0 DUP1 PUSH1 0x40 DUP4 DUP6 SUB SLT ISZERO PUSH2 0x1096 JUMPI PUSH1 0x0 DUP1 REVERT JUMPDEST DUP3 CALLDATALOAD SWAP2 POP PUSH2 0x107A PUSH1 0x20 DUP5 ADD PUSH2 0xF02 JUMP JUMPDEST PUSH1 0x0 DUP1 PUSH1 0x0 PUSH1 0x60 DUP5 DUP7 SUB SLT ISZERO PUSH2 0x10BB JUMPI PUSH1 0x0 DUP1 REVERT JUMPDEST DUP4 CALLDATALOAD PUSH8 0xFFFFFFFFFFFFFFFF DUP1 DUP3 GT ISZERO PUSH2 0x10D3 JUMPI PUSH1 0x0 DUP1 REVERT JUMPDEST PUSH2 0x10DF DUP8 DUP4 DUP9 ADD PUSH2 0xF4F JUMP JUMPDEST SWAP5 POP PUSH1 0x20 DUP7 ADD CALLDATALOAD SWAP2 POP DUP1 DUP3 GT ISZERO PUSH2 0x10F5 JUMPI PUSH1 0x0 DUP1 REVERT JUMPDEST POP PUSH2 0x1102 DUP7 DUP3 DUP8 ADD PUSH2 0xF4F JUMP JUMPDEST SWAP3 POP POP PUSH1 0x40 DUP5 ADD CALLDATALOAD PUSH1 0xFF DUP2 AND DUP2 EQ PUSH2 0x1119 JUMPI PUSH1 0x0 DUP1 REVERT JUMPDEST DUP1 SWAP2 POP POP SWAP3 POP SWAP3 POP SWAP3 JUMP JUMPDEST PUSH1 0x0 DUP1 PUSH1 0x0 PUSH1 0x60 DUP5 DUP7 SUB SLT ISZERO PUSH2 0x1139 JUMPI PUSH1 0x0 DUP1 REVERT JUMPDEST POP POP DUP2 CALLDATALOAD SWAP4 PUSH1 0x20 DUP4 ADD CALLDATALOAD SWAP4 POP PUSH1 0x40 SWAP1 SWAP3 ADD CALLDATALOAD SWAP2 SWAP1 POP JUMP JUMPDEST PUSH1 0x0 PUSH1 0x20 DUP3 DUP5 SUB SLT ISZERO PUSH2 0x1162 JUMPI PUSH1 0x0 DUP1 REVERT JUMPDEST POP CALLDATALOAD SWAP2 SWAP1 POP JUMP JUMPDEST PUSH1 0x0 PUSH1 0x20 DUP3 DUP5 SUB SLT ISZERO PUSH2 0x117B JUMPI PUSH1 0x0 DUP1 REVERT JUMPDEST POP MLOAD SWAP2 SWAP1 POP JUMP JUMPDEST PUSH1 0x20 DUP1 DUP3 MSTORE PUSH1 0x2E SWAP1 DUP3 ADD MSTORE PUSH32 0x496E697469616C697A61626C653A20636F6E747261637420697320616C726561 PUSH1 0x40 DUP3 ADD MSTORE PUSH14 0x191E481A5B9A5D1A585B1A5E9959 PUSH1 0x92 SHL PUSH1 0x60 DUP3 ADD MSTORE PUSH1 0x80 ADD SWAP1 JUMP JUMPDEST PUSH4 0x4E487B71 PUSH1 0xE0 SHL PUSH1 0x0 MSTORE PUSH1 0x11 PUSH1 0x4 MSTORE PUSH1 0x24 PUSH1 0x0 REVERT JUMPDEST PUSH1 0x1 DUP2 DUP2 JUMPDEST DUP1 DUP6 GT ISZERO PUSH2 0x1221 JUMPI DUP2 PUSH1 0x0 NOT DIV DUP3 GT ISZERO PUSH2 0x1207 JUMPI PUSH2 0x1207 PUSH2 0x11D0 JUMP JUMPDEST DUP1 DUP6 AND ISZERO PUSH2 0x1214 JUMPI SWAP2 DUP2 MUL SWAP2 JUMPDEST SWAP4 DUP5 SHR SWAP4 SWAP1 DUP1 MUL SWAP1 PUSH2 0x11EB JUMP JUMPDEST POP SWAP3 POP SWAP3 SWAP1 POP JUMP JUMPDEST PUSH1 0x0 DUP3 PUSH2 0x1238 JUMPI POP PUSH1 0x1 PUSH2 0x50D JUMP JUMPDEST DUP2 PUSH2 0x1245 JUMPI POP PUSH1 0x0 PUSH2 0x50D JUMP JUMPDEST DUP2 PUSH1 0x1 DUP2 EQ PUSH2 0x125B JUMPI PUSH1 0x2 DUP2 EQ PUSH2 0x1265 JUMPI PUSH2 0x1281 JUMP JUMPDEST PUSH1 0x1 SWAP2 POP POP PUSH2 0x50D JUMP JUMPDEST PUSH1 0xFF DUP5 GT ISZERO PUSH2 0x1276 JUMPI PUSH2 0x1276 PUSH2 0x11D0 JUMP JUMPDEST POP POP PUSH1 0x1 DUP3 SHL PUSH2 0x50D JUMP JUMPDEST POP PUSH1 0x20 DUP4 LT PUSH2 0x133 DUP4 LT AND PUSH1 0x4E DUP5 LT PUSH1 0xB DUP5 LT AND OR ISZERO PUSH2 0x12A4 JUMPI POP DUP2 DUP2 EXP PUSH2 0x50D JUMP JUMPDEST PUSH2 0x12AE DUP4 DUP4 PUSH2 0x11E6 JUMP JUMPDEST DUP1 PUSH1 0x0 NOT DIV DUP3 GT ISZERO PUSH2 0x12C2 JUMPI PUSH2 0x12C2 PUSH2 0x11D0 JUMP JUMPDEST MUL SWAP4 SWAP3 POP POP POP JUMP JUMPDEST PUSH1 0x0 PUSH2 0xB44 DUP4 DUP4 PUSH2 0x1229 JUMP JUMPDEST DUP1 DUP3 MUL DUP2 ISZERO DUP3 DUP3 DIV DUP5 EQ OR PUSH2 0x50D JUMPI PUSH2 0x50D PUSH2 0x11D0 JUMP JUMPDEST PUSH1 0x0 DUP3 PUSH2 0x130A JUMPI PUSH4 0x4E487B71 PUSH1 0xE0 SHL PUSH1 0x0 MSTORE PUSH1 0x12 PUSH1 0x4 MSTORE PUSH1 0x24 PUSH1 0x0 REVERT JUMPDEST POP DIV SWAP1 JUMP JUMPDEST DUP1 DUP3 ADD DUP1 DUP3 GT ISZERO PUSH2 0x50D JUMPI PUSH2 0x50D PUSH2 0x11D0 JUMP JUMPDEST PUSH1 0x1 DUP2 DUP2 SHR SWAP1 DUP3 AND DUP1 PUSH2 0x1336 JUMPI PUSH1 0x7F DUP3 AND SWAP2 POP JUMPDEST PUSH1 0x20 DUP3 LT DUP2 SUB PUSH2 0x1356 JUMPI PUSH4 0x4E487B71 PUSH1 0xE0 SHL PUSH1 0x0 MSTORE PUSH1 0x22 PUSH1 0x4 MSTORE PUSH1 0x24 PUSH1 0x0 REVERT JUMPDEST POP SWAP2 SWAP1 POP JUMP JUMPDEST PUSH1 0x1F DUP3 GT ISZERO PUSH2 0x13A6 JUMPI PUSH1 0x0 DUP2 DUP2 MSTORE PUSH1 0x20 DUP2 KECCAK256 PUSH1 0x1F DUP6 ADD PUSH1 0x5 SHR DUP2 ADD PUSH1 0x20 DUP7 LT ISZERO PUSH2 0x1383 JUMPI POP DUP1 JUMPDEST PUSH1 0x1F DUP6 ADD PUSH1 0x5 SHR DUP3 ADD SWAP2 POP JUMPDEST DUP2 DUP2 LT ISZERO PUSH2 0x13A2 JUMPI DUP3 DUP2 SSTORE PUSH1 0x1 ADD PUSH2 0x138F JUMP JUMPDEST POP POP POP JUMPDEST POP POP POP JUMP JUMPDEST DUP2 MLOAD PUSH8 0xFFFFFFFFFFFFFFFF DUP2 GT ISZERO PUSH2 0x13C5 JUMPI PUSH2 0x13C5 PUSH2 0xF39 JUMP JUMPDEST PUSH2 0x13D9 DUP2 PUSH2 0x13D3 DUP5 SLOAD PUSH2 0x1322 JUMP JUMPDEST DUP5 PUSH2 0x135C JUMP JUMPDEST PUSH1 0x20 DUP1 PUSH1 0x1F DUP4 GT PUSH1 0x1 DUP2 EQ PUSH2 0x140E JUMPI PUSH1 0x0 DUP5 ISZERO PUSH2 0x13F6 JUMPI POP DUP6 DUP4 ADD MLOAD JUMPDEST PUSH1 0x0 NOT PUSH1 0x3 DUP7 SWAP1 SHL SHR NOT AND PUSH1 0x1 DUP6 SWAP1 SHL OR DUP6 SSTORE PUSH2 0x13A2 JUMP JUMPDEST PUSH1 0x0 DUP6 DUP2 MSTORE PUSH1 0x20 DUP2 KECCAK256 PUSH1 0x1F NOT DUP7 AND SWAP2 JUMPDEST DUP3 DUP2 LT ISZERO PUSH2 0x143D JUMPI DUP9 DUP7 ADD MLOAD DUP3 SSTORE SWAP5 DUP5 ADD SWAP5 PUSH1 0x1 SWAP1 SWAP2 ADD SWAP1 DUP5 ADD PUSH2 0x141E JUMP JUMPDEST POP DUP6 DUP3 LT ISZERO PUSH2 0x145B JUMPI DUP8 DUP6 ADD MLOAD PUSH1 0x0 NOT PUSH1 0x3 DUP9 SWAP1 SHL PUSH1 0xF8 AND SHR NOT AND DUP2 SSTORE JUMPDEST POP POP POP POP POP PUSH1 0x1 SWAP1 DUP2 SHL ADD SWAP1 SSTORE POP JUMP JUMPDEST DUP2 DUP2 SUB DUP2 DUP2 GT ISZERO PUSH2 0x50D JUMPI PUSH2 0x50D PUSH2 0x11D0 JUMP INVALID LOG2 PUSH5 0x6970667358 0x22 SLT KECCAK256 CREATE ORIGIN LOG1 0x2B JUMP DUP11 0x5D DUP15 MSTORE LOG4 0xD6 0xD8 DUP1 0xCA SWAP5 0xDD 0xAC 0xDD PUSH8 0x7EFBCAA0C2488D4 DUP7 PUSH17 0x1EF7E964736F6C63430008110033000000 "},"methodIdentifiers":{"DOMAIN_SEPARATOR()":"3644e515","EIP712_DOMAIN()":"e1b11da4","EIP712_REVISION()":"78160376","MAX_SUPPLY()":"32cb6b0c","PERMIT_TYPEHASH()":"30adf81f","__ERC20Detailed_init(string,string,uint8)":"a10daee3","__UFragments_init(string,string,address)":"3570f3f1","_gonBalances(address)":"36fed975","_gonsPerFragment()":"c4996f51","_reserve()":"413ab4a8","_totalGons()":"fd5eb09d","_totalSupply()":"3eaaf86b","balanceOf(address)":"70a08231","burn(uint256,address)":"fcd3533c","currentReserve()":"2e12007c","decimals()":"313ce567","donate(uint256)":"f14faf6f","gobblerUnion()":"469ddd12","gobblers()":"7da066c6","gooTogether()":"d7f32852","initialize(address,address)":"485cc955","mint(uint256,address)":"94bf804d","monetaryPolicy()":"8e27d7d7","name()":"06fdde03","nonces(address)":"7ecebe00","rebase(uint256,uint256,uint256)":"a48daa4f","reserveAddress()":"f79ed94b","reserveRatio()":"0c7d5cd8","scaledBalanceOf(address)":"1da24f3e","scaledTotalSupply()":"b1bf962d","symbol()":"95d89b41","totalSupply()":"18160ddd"}},"storageLayout":{"storage":[{"astId":397,"contract":"contracts/gooPoints.sol:gooPoints","label":"_initialized","offset":0,"slot":"0","type":"t_bool"},{"astId":400,"contract":"contracts/gooPoints.sol:gooPoints","label":"_initializing","offset":1,"slot":"0","type":"t_bool"},{"astId":10,"contract":"contracts/gooPoints.sol:gooPoints","label":"_name","offset":0,"slot":"1","type":"t_string_storage"},{"astId":12,"contract":"contracts/gooPoints.sol:gooPoints","label":"_symbol","offset":0,"slot":"2","type":"t_string_storage"},{"astId":14,"contract":"contracts/gooPoints.sol:gooPoints","label":"_decimals","offset":0,"slot":"3","type":"t_uint8"},{"astId":70,"contract":"contracts/gooPoints.sol:gooPoints","label":"______gap","offset":0,"slot":"4","type":"t_array(t_uint256)50_storage"},{"astId":1377,"contract":"contracts/gooPoints.sol:gooPoints","label":"monetaryPolicy","offset":0,"slot":"54","type":"t_address"},{"astId":1431,"contract":"contracts/gooPoints.sol:gooPoints","label":"_totalGons","offset":0,"slot":"55","type":"t_uint256"},{"astId":1433,"contract":"contracts/gooPoints.sol:gooPoints","label":"MAX_SUPPLY","offset":0,"slot":"56","type":"t_uint256"},{"astId":1435,"contract":"contracts/gooPoints.sol:gooPoints","label":"_totalSupply","offset":0,"slot":"57","type":"t_uint256"},{"astId":1437,"contract":"contracts/gooPoints.sol:gooPoints","label":"_gonsPerFragment","offset":0,"slot":"58","type":"t_uint256"},{"astId":1439,"contract":"contracts/gooPoints.sol:gooPoints","label":"gobblerUnion","offset":0,"slot":"59","type":"t_address"},{"astId":1441,"contract":"contracts/gooPoints.sol:gooPoints","label":"gobblers","offset":0,"slot":"60","type":"t_address"},{"astId":1443,"contract":"contracts/gooPoints.sol:gooPoints","label":"gooTogether","offset":0,"slot":"61","type":"t_address"},{"astId":1447,"contract":"contracts/gooPoints.sol:gooPoints","label":"_gonBalances","offset":0,"slot":"62","type":"t_mapping(t_address,t_uint256)"},{"astId":1453,"contract":"contracts/gooPoints.sol:gooPoints","label":"_allowedFragments","offset":0,"slot":"63","type":"t_mapping(t_address,t_mapping(t_address,t_uint256))"},{"astId":1470,"contract":"contracts/gooPoints.sol:gooPoints","label":"_nonces","offset":0,"slot":"64","type":"t_mapping(t_address,t_uint256)"},{"astId":617,"contract":"contracts/gooPoints.sol:gooPoints","label":"_reserve","offset":0,"slot":"65","type":"t_address"}],"types":{"t_address":{"encoding":"inplace","label":"address","numberOfBytes":"20"},"t_array(t_uint256)50_storage":{"base":"t_uint256","encoding":"inplace","label":"uint256[50]","numberOfBytes":"1600"},"t_bool":{"encoding":"inplace","label":"bool","numberOfBytes":"1"},"t_mapping(t_address,t_mapping(t_address,t_uint256))":{"encoding":"mapping","key":"t_address","label":"mapping(address => mapping(address => uint256))","numberOfBytes":"32","value":"t_mapping(t_address,t_uint256)"},"t_mapping(t_address,t_uint256)":{"encoding":"mapping","key":"t_address","label":"mapping(address => uint256)","numberOfBytes":"32","value":"t_uint256"},"t_string_storage":{"encoding":"bytes","label":"string","numberOfBytes":"32"},"t_uint256":{"encoding":"inplace","label":"uint256","numberOfBytes":"32"},"t_uint8":{"encoding":"inplace","label":"uint8","numberOfBytes":"1"}}},"userdoc":{"kind":"user","methods":{"__ERC20Detailed_init(string,string,uint8)":{"notice":"constructor(string memory name_, string memory symbol_, uint8 decimals_){ _name = name_; _symbol = symbol_; _decimals = decimals_; }"},"burn(uint256,address)":{"notice":"admin function to burn gooPoints"},"decimals()":{"notice":"getter for decimals"},"donate(uint256)":{"notice":"donates goo to the protocol reserve"},"initialize(address,address)":{"notice":"initializer for contract"},"mint(uint256,address)":{"notice":"admin function to adjust multiPoints"},"name()":{"notice":"getter for name"},"reserveAddress()":{"notice":"getter for address of the reserve currency, or proxy address"},"reserveRatio()":{"notice":"get reserve ratio"},"symbol()":{"notice":"getter for symbol"}},"notice":"handles all minting/burning of gooPoints","version":1}}}}