{"contracts/uFragments.sol":{"UFragments":{"abi":[{"anonymous":false,"inputs":[{"indexed":true,"internalType":"address","name":"owner","type":"address"},{"indexed":true,"internalType":"address","name":"spender","type":"address"},{"indexed":false,"internalType":"uint256","name":"value","type":"uint256"}],"name":"Approval","type":"event"},{"anonymous":false,"inputs":[{"indexed":true,"internalType":"address","name":"from","type":"address"},{"indexed":false,"internalType":"uint256","name":"value","type":"uint256"}],"name":"Burn","type":"event"},{"anonymous":false,"inputs":[{"indexed":true,"internalType":"address","name":"from","type":"address"},{"indexed":false,"internalType":"uint256","name":"value","type":"uint256"},{"indexed":false,"internalType":"uint256","name":"totalSupply","type":"uint256"}],"name":"Donation","type":"event"},{"anonymous":false,"inputs":[{"indexed":false,"internalType":"address","name":"monetaryPolicy","type":"address"}],"name":"LogMonetaryPolicyUpdated","type":"event"},{"anonymous":false,"inputs":[{"indexed":true,"internalType":"uint256","name":"epoch","type":"uint256"},{"indexed":false,"internalType":"uint256","name":"totalSupply","type":"uint256"}],"name":"LogRebase","type":"event"},{"anonymous":false,"inputs":[{"indexed":true,"internalType":"address","name":"to","type":"address"},{"indexed":false,"internalType":"uint256","name":"value","type":"uint256"}],"name":"Mint","type":"event"},{"anonymous":false,"inputs":[{"indexed":true,"internalType":"address","name":"from","type":"address"},{"indexed":true,"internalType":"address","name":"to","type":"address"},{"indexed":false,"internalType":"uint256","name":"value","type":"uint256"}],"name":"Transfer","type":"event"},{"anonymous":false,"inputs":[{"indexed":false,"internalType":"address","name":"from","type":"address"},{"indexed":false,"internalType":"uint256","name":"amount","type":"uint256"}],"name":"feePaid","type":"event"},{"inputs":[],"name":"DOMAIN_SEPARATOR","outputs":[{"internalType":"bytes32","name":"","type":"bytes32"}],"stateMutability":"view","type":"function"},{"inputs":[],"name":"EIP712_DOMAIN","outputs":[{"internalType":"bytes32","name":"","type":"bytes32"}],"stateMutability":"view","type":"function"},{"inputs":[],"name":"EIP712_REVISION","outputs":[{"internalType":"string","name":"","type":"string"}],"stateMutability":"view","type":"function"},{"inputs":[],"name":"MAX_SUPPLY","outputs":[{"internalType":"uint256","name":"","type":"uint256"}],"stateMutability":"view","type":"function"},{"inputs":[],"name":"PERMIT_TYPEHASH","outputs":[{"internalType":"bytes32","name":"","type":"bytes32"}],"stateMutability":"view","type":"function"},{"inputs":[{"internalType":"string","name":"name_","type":"string"},{"internalType":"string","name":"symbol_","type":"string"},{"internalType":"uint8","name":"decimals_","type":"uint8"}],"name":"__ERC20Detailed_init","outputs":[],"stateMutability":"nonpayable","type":"function"},{"inputs":[{"internalType":"string","name":"name","type":"string"},{"internalType":"string","name":"symbol","type":"string"},{"internalType":"address","name":"_gooTogether","type":"address"}],"name":"__UFragments_init","outputs":[],"stateMutability":"nonpayable","type":"function"},{"inputs":[{"internalType":"address","name":"","type":"address"}],"name":"_gonBalances","outputs":[{"internalType":"uint256","name":"","type":"uint256"}],"stateMutability":"view","type":"function"},{"inputs":[],"name":"_gonsPerFragment","outputs":[{"internalType":"uint256","name":"","type":"uint256"}],"stateMutability":"view","type":"function"},{"inputs":[],"name":"_totalGons","outputs":[{"internalType":"uint256","name":"","type":"uint256"}],"stateMutability":"view","type":"function"},{"inputs":[],"name":"_totalSupply","outputs":[{"internalType":"uint256","name":"","type":"uint256"}],"stateMutability":"view","type":"function"},{"inputs":[{"internalType":"address","name":"who","type":"address"}],"name":"balanceOf","outputs":[{"internalType":"uint256","name":"","type":"uint256"}],"stateMutability":"view","type":"function"},{"inputs":[],"name":"decimals","outputs":[{"internalType":"uint8","name":"","type":"uint8"}],"stateMutability":"view","type":"function"},{"inputs":[],"name":"gobblerUnion","outputs":[{"internalType":"address","name":"","type":"address"}],"stateMutability":"view","type":"function"},{"inputs":[],"name":"gobblers","outputs":[{"internalType":"address","name":"","type":"address"}],"stateMutability":"view","type":"function"},{"inputs":[],"name":"gooTogether","outputs":[{"internalType":"address","name":"","type":"address"}],"stateMutability":"view","type":"function"},{"inputs":[],"name":"monetaryPolicy","outputs":[{"internalType":"address","name":"","type":"address"}],"stateMutability":"view","type":"function"},{"inputs":[],"name":"name","outputs":[{"internalType":"string","name":"","type":"string"}],"stateMutability":"view","type":"function"},{"inputs":[{"internalType":"address","name":"who","type":"address"}],"name":"nonces","outputs":[{"internalType":"uint256","name":"","type":"uint256"}],"stateMutability":"view","type":"function"},{"inputs":[{"internalType":"uint256","name":"epoch","type":"uint256"},{"internalType":"uint256","name":"supplyAdd","type":"uint256"},{"internalType":"uint256","name":"supplyRemove","type":"uint256"}],"name":"rebase","outputs":[{"internalType":"uint256","name":"","type":"uint256"}],"stateMutability":"nonpayable","type":"function"},{"inputs":[{"internalType":"address","name":"who","type":"address"}],"name":"scaledBalanceOf","outputs":[{"internalType":"uint256","name":"","type":"uint256"}],"stateMutability":"view","type":"function"},{"inputs":[],"name":"scaledTotalSupply","outputs":[{"internalType":"uint256","name":"","type":"uint256"}],"stateMutability":"view","type":"function"},{"inputs":[],"name":"symbol","outputs":[{"internalType":"string","name":"","type":"string"}],"stateMutability":"view","type":"function"},{"inputs":[],"name":"totalSupply","outputs":[{"internalType":"uint256","name":"","type":"uint256"}],"stateMutability":"view","type":"function"}],"devdoc":{"details":"USDL uses the uFragments concept from the Ideal Money project to play interest      Implementation is shamelessly borrowed from Ampleforth project      uFragments is a normal ERC20 token, but its supply can be adjusted by splitting and      combining tokens proportionally across all wallets.      uFragment balances are internally represented with a hidden denomination, 'gons'.      We support splitting the currency in expansion and combining the currency on contraction by      changing the exchange rate between the hidden 'gons' and the public 'fragments'.","kind":"dev","methods":{"DOMAIN_SEPARATOR()":{"returns":{"_0":"The computed DOMAIN_SEPARATOR to be used off-chain services         which implement EIP-712.         https://eips.ethereum.org/EIPS/eip-2612"}},"balanceOf(address)":{"params":{"who":"The address to query."},"returns":{"_0":"The balance of the specified address."}},"decimals()":{"returns":{"_0":"the number of decimals of the token."}},"name()":{"returns":{"_0":"the name of the token."}},"nonces(address)":{"returns":{"_0":"The number of successful permits by the specified address."}},"rebase(uint256,uint256,uint256)":{"details":"Notifies Fragments contract about a new rebase cycle.","params":{"supplyAdd":"The number of new fragment tokens to add into circulation via expansion.","supplyRemove":"The number of new fragment tokens to remove into circulation via expansion."},"returns":{"_0":"The total number of fragments after the supply adjustment."}},"scaledBalanceOf(address)":{"params":{"who":"The address to query."},"returns":{"_0":"The gon balance of the specified address."}},"scaledTotalSupply()":{"returns":{"_0":"the total number of gons."}},"symbol()":{"returns":{"_0":"the symbol of the token."}},"totalSupply()":{"returns":{"_0":"The total number of fragments."}}},"title":"uFragments ERC20 token","version":1},"evm":{"bytecode":{"linkReferences":{},"object":"608060405234801561001057600080fd5b50610dc1806100206000396000f3fe608060405234801561001057600080fd5b50600436106101585760003560e01c806378160376116100c3578063a48daa4f1161007c578063a48daa4f14610309578063b1bf962d1461031c578063c4996f5114610324578063d7f328521461032d578063e1b11da414610340578063fd5eb09d1461036757600080fd5b8063781603761461027f5780637da066c61461029f5780637ecebe00146102b25780638e27d7d7146102db57806395d89b41146102ee578063a10daee3146102f657600080fd5b80633570f3f1116101155780633570f3f1146101fb5780633644e5151461021057806336fed975146102185780633eaaf86b14610238578063469ddd121461024157806370a082311461026c57600080fd5b806306fdde031461015d57806318160ddd1461017b5780631da24f3e1461018d57806330adf81f146101b6578063313ce567146101dd57806332cb6b0c146101f2575b600080fd5b610165610370565b6040516101729190610849565b60405180910390f35b6039545b604051908152602001610172565b61017f61019b3660046108b3565b6001600160a01b03166000908152603e602052604090205490565b61017f7f6e71edae12b1b97f4d1f60370fef10105fa2faae0126114a169c64845d6126c981565b60035460405160ff9091168152602001610172565b61017f60385481565b61020e610209366004610971565b610402565b005b61017f6105c2565b61017f6102263660046108b3565b603e6020526000908152604090205481565b61017f60395481565b603b54610254906001600160a01b031681565b6040516001600160a01b039091168152602001610172565b61017f61027a3660046108b3565b61066e565b610165604051806040016040528060018152602001603160f81b81525081565b603c54610254906001600160a01b031681565b61017f6102c03660046108b3565b6001600160a01b031660009081526040602081905290205490565b603654610254906001600160a01b031681565b61016561069b565b61020e6103043660046109e5565b6106aa565b61017f610317366004610a63565b610741565b60375461017f565b61017f603a5481565b603d54610254906001600160a01b031681565b61017f7f8b73c3c69bb8fe3d512ecc4cf759cc79239f7b179b0ffacaa9a75d522b39400f81565b61017f60375481565b60606001805461037f90610a8f565b80601f01602080910402602001604051908101604052809291908181526020018280546103ab90610a8f565b80156103f85780601f106103cd576101008083540402835291602001916103f8565b820191906000526020600020905b8154815290600101906020018083116103db57829003601f168201915b5050505050905090565b600054610100900460ff168061041b575060005460ff16155b6104405760405162461bcd60e51b815260040161043790610ac9565b60405180910390fd5b600054610100900460ff16158015610462576000805461ffff19166101011790555b61046e848460126106aa565b61047a6012600a610c11565b610485906001610c1d565b6104a39073af298d050e4395d69670b12b7f41000000000000610c1d565b6037556fffffffffffffffffffffffffffffffff6038556104c66012600a610c11565b6104d1906001610c1d565b603981905560375460008052603e6020527f5f97c64b3c4bdfff50b5c8f505e633128432c6b07fc6c8abc77dce786c7317d48190556105109190610c34565b603a55603b8054736761a059eb3881627ad33553dbef81a2ba576dbf6001600160a01b031991821617909155603c80547360bb1e2aa1c9acafb4d34f71585d7e959f387769908316179055603d80549091166001600160a01b03841617905560395460405190815260009030907fddf252ad1be2c89b69c2b068fc378daa952ba7f163c4a11628f55a4df523b3ef9060200160405180910390a380156105bc576000805461ff00191690555b50505050565b6000467f8b73c3c69bb8fe3d512ecc4cf759cc79239f7b179b0ffacaa9a75d522b39400f6105ee610370565b805160209182012060408051808201825260018152603160f81b90840152805192830193909352918101919091527fc89efdaa54c0f20c7adf612882df0950f5a951637e0307cdcb4c672f298b8bc66060820152608081018290523060a082015260c0016040516020818303038152906040528051906020012091505090565b603a546001600160a01b0382166000908152603e6020526040812054909161069591610c34565b92915050565b60606002805461037f90610a8f565b600054610100900460ff16806106c3575060005460ff16155b6106df5760405162461bcd60e51b815260040161043790610ac9565b600054610100900460ff16158015610701576000805461ffff19166101011790555b600161070d8582610ca5565b50600261071a8482610ca5565b506003805460ff191660ff841617905580156105bc576000805461ff001916905550505050565b603d546000906001600160a01b0316331461075b57600080fd5b82158015610767575081155b156107b157837f72725a3b1e5bd622d6bcd1339bb31279c351abe8f541ac7fd320f24e1b1641f26039546040516107a091815260200190565b60405180910390a250603954610842565b82156107cd57826039546107c59190610d65565b6039556107df565b816039546107db9190610d78565b6039555b60385460395411156107f2576038546039555b6039546037546108029190610c34565b603a5560395460405190815284907f72725a3b1e5bd622d6bcd1339bb31279c351abe8f541ac7fd320f24e1b1641f29060200160405180910390a2506039545b9392505050565b600060208083528351808285015260005b818110156108765785810183015185820160400152820161085a565b506000604082860101526040601f19601f8301168501019250505092915050565b80356001600160a01b03811681146108ae57600080fd5b919050565b6000602082840312156108c557600080fd5b61084282610897565b634e487b7160e01b600052604160045260246000fd5b600082601f8301126108f557600080fd5b813567ffffffffffffffff80821115610910576109106108ce565b604051601f8301601f19908116603f01168101908282118183101715610938576109386108ce565b8160405283815286602085880101111561095157600080fd5b836020870160208301376000602085830101528094505050505092915050565b60008060006060848603121561098657600080fd5b833567ffffffffffffffff8082111561099e57600080fd5b6109aa878388016108e4565b945060208601359150808211156109c057600080fd5b506109cd868287016108e4565b9250506109dc60408501610897565b90509250925092565b6000806000606084860312156109fa57600080fd5b833567ffffffffffffffff80821115610a1257600080fd5b610a1e878388016108e4565b94506020860135915080821115610a3457600080fd5b50610a41868287016108e4565b925050604084013560ff81168114610a5857600080fd5b809150509250925092565b600080600060608486031215610a7857600080fd5b505081359360208301359350604090920135919050565b600181811c90821680610aa357607f821691505b602082108103610ac357634e487b7160e01b600052602260045260246000fd5b50919050565b6020808252602e908201527f496e697469616c697a61626c653a20636f6e747261637420697320616c72656160408201526d191e481a5b9a5d1a585b1a5e995960921b606082015260800190565b634e487b7160e01b600052601160045260246000fd5b600181815b80851115610b68578160001904821115610b4e57610b4e610b17565b80851615610b5b57918102915b93841c9390800290610b32565b509250929050565b600082610b7f57506001610695565b81610b8c57506000610695565b8160018114610ba25760028114610bac57610bc8565b6001915050610695565b60ff841115610bbd57610bbd610b17565b50506001821b610695565b5060208310610133831016604e8410600b8410161715610beb575081810a610695565b610bf58383610b2d565b8060001904821115610c0957610c09610b17565b029392505050565b60006108428383610b70565b808202811582820484141761069557610695610b17565b600082610c5157634e487b7160e01b600052601260045260246000fd5b500490565b601f821115610ca057600081815260208120601f850160051c81016020861015610c7d5750805b601f850160051c820191505b81811015610c9c57828155600101610c89565b5050505b505050565b815167ffffffffffffffff811115610cbf57610cbf6108ce565b610cd381610ccd8454610a8f565b84610c56565b602080601f831160018114610d085760008415610cf05750858301515b600019600386901b1c1916600185901b178555610c9c565b600085815260208120601f198616915b82811015610d3757888601518255948401946001909101908401610d18565b5085821015610d555787850151600019600388901b60f8161c191681555b5050505050600190811b01905550565b8082018082111561069557610695610b17565b8181038181111561069557610695610b1756fea2646970667358221220ec6748b1123005b657b8204d1f8cecf3b349bc53d916d9ba093ed2a66483b1ec64736f6c63430008110033","opcodes":"PUSH1 0x80 PUSH1 0x40 MSTORE CALLVALUE DUP1 ISZERO PUSH2 0x10 JUMPI PUSH1 0x0 DUP1 REVERT JUMPDEST POP PUSH2 0xDC1 DUP1 PUSH2 0x20 PUSH1 0x0 CODECOPY PUSH1 0x0 RETURN INVALID PUSH1 0x80 PUSH1 0x40 MSTORE CALLVALUE DUP1 ISZERO PUSH2 0x10 JUMPI PUSH1 0x0 DUP1 REVERT JUMPDEST POP PUSH1 0x4 CALLDATASIZE LT PUSH2 0x158 JUMPI PUSH1 0x0 CALLDATALOAD PUSH1 0xE0 SHR DUP1 PUSH4 0x78160376 GT PUSH2 0xC3 JUMPI DUP1 PUSH4 0xA48DAA4F GT PUSH2 0x7C JUMPI DUP1 PUSH4 0xA48DAA4F EQ PUSH2 0x309 JUMPI DUP1 PUSH4 0xB1BF962D EQ PUSH2 0x31C JUMPI DUP1 PUSH4 0xC4996F51 EQ PUSH2 0x324 JUMPI DUP1 PUSH4 0xD7F32852 EQ PUSH2 0x32D JUMPI DUP1 PUSH4 0xE1B11DA4 EQ PUSH2 0x340 JUMPI DUP1 PUSH4 0xFD5EB09D EQ PUSH2 0x367 JUMPI PUSH1 0x0 DUP1 REVERT JUMPDEST DUP1 PUSH4 0x78160376 EQ PUSH2 0x27F JUMPI DUP1 PUSH4 0x7DA066C6 EQ PUSH2 0x29F JUMPI DUP1 PUSH4 0x7ECEBE00 EQ PUSH2 0x2B2 JUMPI DUP1 PUSH4 0x8E27D7D7 EQ PUSH2 0x2DB JUMPI DUP1 PUSH4 0x95D89B41 EQ PUSH2 0x2EE JUMPI DUP1 PUSH4 0xA10DAEE3 EQ PUSH2 0x2F6 JUMPI PUSH1 0x0 DUP1 REVERT JUMPDEST DUP1 PUSH4 0x3570F3F1 GT PUSH2 0x115 JUMPI DUP1 PUSH4 0x3570F3F1 EQ PUSH2 0x1FB JUMPI DUP1 PUSH4 0x3644E515 EQ PUSH2 0x210 JUMPI DUP1 PUSH4 0x36FED975 EQ PUSH2 0x218 JUMPI DUP1 PUSH4 0x3EAAF86B EQ PUSH2 0x238 JUMPI DUP1 PUSH4 0x469DDD12 EQ PUSH2 0x241 JUMPI DUP1 PUSH4 0x70A08231 EQ PUSH2 0x26C JUMPI PUSH1 0x0 DUP1 REVERT JUMPDEST DUP1 PUSH4 0x6FDDE03 EQ PUSH2 0x15D JUMPI DUP1 PUSH4 0x18160DDD EQ PUSH2 0x17B JUMPI DUP1 PUSH4 0x1DA24F3E EQ PUSH2 0x18D JUMPI DUP1 PUSH4 0x30ADF81F EQ PUSH2 0x1B6 JUMPI DUP1 PUSH4 0x313CE567 EQ PUSH2 0x1DD JUMPI DUP1 PUSH4 0x32CB6B0C EQ PUSH2 0x1F2 JUMPI JUMPDEST PUSH1 0x0 DUP1 REVERT JUMPDEST PUSH2 0x165 PUSH2 0x370 JUMP JUMPDEST PUSH1 0x40 MLOAD PUSH2 0x172 SWAP2 SWAP1 PUSH2 0x849 JUMP JUMPDEST PUSH1 0x40 MLOAD DUP1 SWAP2 SUB SWAP1 RETURN JUMPDEST PUSH1 0x39 SLOAD JUMPDEST PUSH1 0x40 MLOAD SWAP1 DUP2 MSTORE PUSH1 0x20 ADD PUSH2 0x172 JUMP JUMPDEST PUSH2 0x17F PUSH2 0x19B CALLDATASIZE PUSH1 0x4 PUSH2 0x8B3 JUMP JUMPDEST PUSH1 0x1 PUSH1 0x1 PUSH1 0xA0 SHL SUB AND PUSH1 0x0 SWAP1 DUP2 MSTORE PUSH1 0x3E PUSH1 0x20 MSTORE PUSH1 0x40 SWAP1 KECCAK256 SLOAD SWAP1 JUMP JUMPDEST PUSH2 0x17F PUSH32 0x6E71EDAE12B1B97F4D1F60370FEF10105FA2FAAE0126114A169C64845D6126C9 DUP2 JUMP JUMPDEST PUSH1 0x3 SLOAD PUSH1 0x40 MLOAD PUSH1 0xFF SWAP1 SWAP2 AND DUP2 MSTORE PUSH1 0x20 ADD PUSH2 0x172 JUMP JUMPDEST PUSH2 0x17F PUSH1 0x38 SLOAD DUP2 JUMP JUMPDEST PUSH2 0x20E PUSH2 0x209 CALLDATASIZE PUSH1 0x4 PUSH2 0x971 JUMP JUMPDEST PUSH2 0x402 JUMP JUMPDEST STOP JUMPDEST PUSH2 0x17F PUSH2 0x5C2 JUMP JUMPDEST PUSH2 0x17F PUSH2 0x226 CALLDATASIZE PUSH1 0x4 PUSH2 0x8B3 JUMP JUMPDEST PUSH1 0x3E PUSH1 0x20 MSTORE PUSH1 0x0 SWAP1 DUP2 MSTORE PUSH1 0x40 SWAP1 KECCAK256 SLOAD DUP2 JUMP JUMPDEST PUSH2 0x17F PUSH1 0x39 SLOAD DUP2 JUMP JUMPDEST PUSH1 0x3B SLOAD PUSH2 0x254 SWAP1 PUSH1 0x1 PUSH1 0x1 PUSH1 0xA0 SHL SUB AND DUP2 JUMP JUMPDEST PUSH1 0x40 MLOAD PUSH1 0x1 PUSH1 0x1 PUSH1 0xA0 SHL SUB SWAP1 SWAP2 AND DUP2 MSTORE PUSH1 0x20 ADD PUSH2 0x172 JUMP JUMPDEST PUSH2 0x17F PUSH2 0x27A CALLDATASIZE PUSH1 0x4 PUSH2 0x8B3 JUMP JUMPDEST PUSH2 0x66E JUMP JUMPDEST PUSH2 0x165 PUSH1 0x40 MLOAD DUP1 PUSH1 0x40 ADD PUSH1 0x40 MSTORE DUP1 PUSH1 0x1 DUP2 MSTORE PUSH1 0x20 ADD PUSH1 0x31 PUSH1 0xF8 SHL DUP2 MSTORE POP DUP2 JUMP JUMPDEST PUSH1 0x3C SLOAD PUSH2 0x254 SWAP1 PUSH1 0x1 PUSH1 0x1 PUSH1 0xA0 SHL SUB AND DUP2 JUMP JUMPDEST PUSH2 0x17F PUSH2 0x2C0 CALLDATASIZE PUSH1 0x4 PUSH2 0x8B3 JUMP JUMPDEST PUSH1 0x1 PUSH1 0x1 PUSH1 0xA0 SHL SUB AND PUSH1 0x0 SWAP1 DUP2 MSTORE PUSH1 0x40 PUSH1 0x20 DUP2 SWAP1 MSTORE SWAP1 KECCAK256 SLOAD SWAP1 JUMP JUMPDEST PUSH1 0x36 SLOAD PUSH2 0x254 SWAP1 PUSH1 0x1 PUSH1 0x1 PUSH1 0xA0 SHL SUB AND DUP2 JUMP JUMPDEST PUSH2 0x165 PUSH2 0x69B JUMP JUMPDEST PUSH2 0x20E PUSH2 0x304 CALLDATASIZE PUSH1 0x4 PUSH2 0x9E5 JUMP JUMPDEST PUSH2 0x6AA JUMP JUMPDEST PUSH2 0x17F PUSH2 0x317 CALLDATASIZE PUSH1 0x4 PUSH2 0xA63 JUMP JUMPDEST PUSH2 0x741 JUMP JUMPDEST PUSH1 0x37 SLOAD PUSH2 0x17F JUMP JUMPDEST PUSH2 0x17F PUSH1 0x3A SLOAD DUP2 JUMP JUMPDEST PUSH1 0x3D SLOAD PUSH2 0x254 SWAP1 PUSH1 0x1 PUSH1 0x1 PUSH1 0xA0 SHL SUB AND DUP2 JUMP JUMPDEST PUSH2 0x17F PUSH32 0x8B73C3C69BB8FE3D512ECC4CF759CC79239F7B179B0FFACAA9A75D522B39400F DUP2 JUMP JUMPDEST PUSH2 0x17F PUSH1 0x37 SLOAD DUP2 JUMP JUMPDEST PUSH1 0x60 PUSH1 0x1 DUP1 SLOAD PUSH2 0x37F SWAP1 PUSH2 0xA8F JUMP JUMPDEST DUP1 PUSH1 0x1F ADD PUSH1 0x20 DUP1 SWAP2 DIV MUL PUSH1 0x20 ADD PUSH1 0x40 MLOAD SWAP1 DUP2 ADD PUSH1 0x40 MSTORE DUP1 SWAP3 SWAP2 SWAP1 DUP2 DUP2 MSTORE PUSH1 0x20 ADD DUP3 DUP1 SLOAD PUSH2 0x3AB SWAP1 PUSH2 0xA8F JUMP JUMPDEST DUP1 ISZERO PUSH2 0x3F8 JUMPI DUP1 PUSH1 0x1F LT PUSH2 0x3CD JUMPI PUSH2 0x100 DUP1 DUP4 SLOAD DIV MUL DUP4 MSTORE SWAP2 PUSH1 0x20 ADD SWAP2 PUSH2 0x3F8 JUMP JUMPDEST DUP3 ADD SWAP2 SWAP1 PUSH1 0x0 MSTORE PUSH1 0x20 PUSH1 0x0 KECCAK256 SWAP1 JUMPDEST DUP2 SLOAD DUP2 MSTORE SWAP1 PUSH1 0x1 ADD SWAP1 PUSH1 0x20 ADD DUP1 DUP4 GT PUSH2 0x3DB JUMPI DUP3 SWAP1 SUB PUSH1 0x1F AND DUP3 ADD SWAP2 JUMPDEST POP POP POP POP POP SWAP1 POP SWAP1 JUMP JUMPDEST PUSH1 0x0 SLOAD PUSH2 0x100 SWAP1 DIV PUSH1 0xFF AND DUP1 PUSH2 0x41B JUMPI POP PUSH1 0x0 SLOAD PUSH1 0xFF AND ISZERO JUMPDEST PUSH2 0x440 JUMPI PUSH1 0x40 MLOAD PUSH3 0x461BCD PUSH1 0xE5 SHL DUP2 MSTORE PUSH1 0x4 ADD PUSH2 0x437 SWAP1 PUSH2 0xAC9 JUMP JUMPDEST PUSH1 0x40 MLOAD DUP1 SWAP2 SUB SWAP1 REVERT JUMPDEST PUSH1 0x0 SLOAD PUSH2 0x100 SWAP1 DIV PUSH1 0xFF AND ISZERO DUP1 ISZERO PUSH2 0x462 JUMPI PUSH1 0x0 DUP1 SLOAD PUSH2 0xFFFF NOT AND PUSH2 0x101 OR SWAP1 SSTORE JUMPDEST PUSH2 0x46E DUP5 DUP5 PUSH1 0x12 PUSH2 0x6AA JUMP JUMPDEST PUSH2 0x47A PUSH1 0x12 PUSH1 0xA PUSH2 0xC11 JUMP JUMPDEST PUSH2 0x485 SWAP1 PUSH1 0x1 PUSH2 0xC1D JUMP JUMPDEST PUSH2 0x4A3 SWAP1 PUSH20 0xAF298D050E4395D69670B12B7F41000000000000 PUSH2 0xC1D JUMP JUMPDEST PUSH1 0x37 SSTORE PUSH16 0xFFFFFFFFFFFFFFFFFFFFFFFFFFFFFFFF PUSH1 0x38 SSTORE PUSH2 0x4C6 PUSH1 0x12 PUSH1 0xA PUSH2 0xC11 JUMP JUMPDEST PUSH2 0x4D1 SWAP1 PUSH1 0x1 PUSH2 0xC1D JUMP JUMPDEST PUSH1 0x39 DUP2 SWAP1 SSTORE PUSH1 0x37 SLOAD PUSH1 0x0 DUP1 MSTORE PUSH1 0x3E PUSH1 0x20 MSTORE PUSH32 0x5F97C64B3C4BDFFF50B5C8F505E633128432C6B07FC6C8ABC77DCE786C7317D4 DUP2 SWAP1 SSTORE PUSH2 0x510 SWAP2 SWAP1 PUSH2 0xC34 JUMP JUMPDEST PUSH1 0x3A SSTORE PUSH1 0x3B DUP1 SLOAD PUSH20 0x6761A059EB3881627AD33553DBEF81A2BA576DBF PUSH1 0x1 PUSH1 0x1 PUSH1 0xA0 SHL SUB NOT SWAP2 DUP3 AND OR SWAP1 SWAP2 SSTORE PUSH1 0x3C DUP1 SLOAD PUSH20 0x60BB1E2AA1C9ACAFB4D34F71585D7E959F387769 SWAP1 DUP4 AND OR SWAP1 SSTORE PUSH1 0x3D DUP1 SLOAD SWAP1 SWAP2 AND PUSH1 0x1 PUSH1 0x1 PUSH1 0xA0 SHL SUB DUP5 AND OR SWAP1 SSTORE PUSH1 0x39 SLOAD PUSH1 0x40 MLOAD SWAP1 DUP2 MSTORE PUSH1 0x0 SWAP1 ADDRESS SWAP1 PUSH32 0xDDF252AD1BE2C89B69C2B068FC378DAA952BA7F163C4A11628F55A4DF523B3EF SWAP1 PUSH1 0x20 ADD PUSH1 0x40 MLOAD DUP1 SWAP2 SUB SWAP1 LOG3 DUP1 ISZERO PUSH2 0x5BC JUMPI PUSH1 0x0 DUP1 SLOAD PUSH2 0xFF00 NOT AND SWAP1 SSTORE JUMPDEST POP POP POP POP JUMP JUMPDEST PUSH1 0x0 CHAINID PUSH32 0x8B73C3C69BB8FE3D512ECC4CF759CC79239F7B179B0FFACAA9A75D522B39400F PUSH2 0x5EE PUSH2 0x370 JUMP JUMPDEST DUP1 MLOAD PUSH1 0x20 SWAP2 DUP3 ADD KECCAK256 PUSH1 0x40 DUP1 MLOAD DUP1 DUP3 ADD DUP3 MSTORE PUSH1 0x1 DUP2 MSTORE PUSH1 0x31 PUSH1 0xF8 SHL SWAP1 DUP5 ADD MSTORE DUP1 MLOAD SWAP3 DUP4 ADD SWAP4 SWAP1 SWAP4 MSTORE SWAP2 DUP2 ADD SWAP2 SWAP1 SWAP2 MSTORE PUSH32 0xC89EFDAA54C0F20C7ADF612882DF0950F5A951637E0307CDCB4C672F298B8BC6 PUSH1 0x60 DUP3 ADD MSTORE PUSH1 0x80 DUP2 ADD DUP3 SWAP1 MSTORE ADDRESS PUSH1 0xA0 DUP3 ADD MSTORE PUSH1 0xC0 ADD PUSH1 0x40 MLOAD PUSH1 0x20 DUP2 DUP4 SUB SUB DUP2 MSTORE SWAP1 PUSH1 0x40 MSTORE DUP1 MLOAD SWAP1 PUSH1 0x20 ADD KECCAK256 SWAP2 POP POP SWAP1 JUMP JUMPDEST PUSH1 0x3A SLOAD PUSH1 0x1 PUSH1 0x1 PUSH1 0xA0 SHL SUB DUP3 AND PUSH1 0x0 SWAP1 DUP2 MSTORE PUSH1 0x3E PUSH1 0x20 MSTORE PUSH1 0x40 DUP2 KECCAK256 SLOAD SWAP1 SWAP2 PUSH2 0x695 SWAP2 PUSH2 0xC34 JUMP JUMPDEST SWAP3 SWAP2 POP POP JUMP JUMPDEST PUSH1 0x60 PUSH1 0x2 DUP1 SLOAD PUSH2 0x37F SWAP1 PUSH2 0xA8F JUMP JUMPDEST PUSH1 0x0 SLOAD PUSH2 0x100 SWAP1 DIV PUSH1 0xFF AND DUP1 PUSH2 0x6C3 JUMPI POP PUSH1 0x0 SLOAD PUSH1 0xFF AND ISZERO JUMPDEST PUSH2 0x6DF JUMPI PUSH1 0x40 MLOAD PUSH3 0x461BCD PUSH1 0xE5 SHL DUP2 MSTORE PUSH1 0x4 ADD PUSH2 0x437 SWAP1 PUSH2 0xAC9 JUMP JUMPDEST PUSH1 0x0 SLOAD PUSH2 0x100 SWAP1 DIV PUSH1 0xFF AND ISZERO DUP1 ISZERO PUSH2 0x701 JUMPI PUSH1 0x0 DUP1 SLOAD PUSH2 0xFFFF NOT AND PUSH2 0x101 OR SWAP1 SSTORE JUMPDEST PUSH1 0x1 PUSH2 0x70D DUP6 DUP3 PUSH2 0xCA5 JUMP JUMPDEST POP PUSH1 0x2 PUSH2 0x71A DUP5 DUP3 PUSH2 0xCA5 JUMP JUMPDEST POP PUSH1 0x3 DUP1 SLOAD PUSH1 0xFF NOT AND PUSH1 0xFF DUP5 AND OR SWAP1 SSTORE DUP1 ISZERO PUSH2 0x5BC JUMPI PUSH1 0x0 DUP1 SLOAD PUSH2 0xFF00 NOT AND SWAP1 SSTORE POP POP POP POP JUMP JUMPDEST PUSH1 0x3D SLOAD PUSH1 0x0 SWAP1 PUSH1 0x1 PUSH1 0x1 PUSH1 0xA0 SHL SUB AND CALLER EQ PUSH2 0x75B JUMPI PUSH1 0x0 DUP1 REVERT JUMPDEST DUP3 ISZERO DUP1 ISZERO PUSH2 0x767 JUMPI POP DUP2 ISZERO JUMPDEST ISZERO PUSH2 0x7B1 JUMPI DUP4 PUSH32 0x72725A3B1E5BD622D6BCD1339BB31279C351ABE8F541AC7FD320F24E1B1641F2 PUSH1 0x39 SLOAD PUSH1 0x40 MLOAD PUSH2 0x7A0 SWAP2 DUP2 MSTORE PUSH1 0x20 ADD SWAP1 JUMP JUMPDEST PUSH1 0x40 MLOAD DUP1 SWAP2 SUB SWAP1 LOG2 POP PUSH1 0x39 SLOAD PUSH2 0x842 JUMP JUMPDEST DUP3 ISZERO PUSH2 0x7CD JUMPI DUP3 PUSH1 0x39 SLOAD PUSH2 0x7C5 SWAP2 SWAP1 PUSH2 0xD65 JUMP JUMPDEST PUSH1 0x39 SSTORE PUSH2 0x7DF JUMP JUMPDEST DUP2 PUSH1 0x39 SLOAD PUSH2 0x7DB SWAP2 SWAP1 PUSH2 0xD78 JUMP JUMPDEST PUSH1 0x39 SSTORE JUMPDEST PUSH1 0x38 SLOAD PUSH1 0x39 SLOAD GT ISZERO PUSH2 0x7F2 JUMPI PUSH1 0x38 SLOAD PUSH1 0x39 SSTORE JUMPDEST PUSH1 0x39 SLOAD PUSH1 0x37 SLOAD PUSH2 0x802 SWAP2 SWAP1 PUSH2 0xC34 JUMP JUMPDEST PUSH1 0x3A SSTORE PUSH1 0x39 SLOAD PUSH1 0x40 MLOAD SWAP1 DUP2 MSTORE DUP5 SWAP1 PUSH32 0x72725A3B1E5BD622D6BCD1339BB31279C351ABE8F541AC7FD320F24E1B1641F2 SWAP1 PUSH1 0x20 ADD PUSH1 0x40 MLOAD DUP1 SWAP2 SUB SWAP1 LOG2 POP PUSH1 0x39 SLOAD JUMPDEST SWAP4 SWAP3 POP POP POP JUMP JUMPDEST PUSH1 0x0 PUSH1 0x20 DUP1 DUP4 MSTORE DUP4 MLOAD DUP1 DUP3 DUP6 ADD MSTORE PUSH1 0x0 JUMPDEST DUP2 DUP2 LT ISZERO PUSH2 0x876 JUMPI DUP6 DUP2 ADD DUP4 ADD MLOAD DUP6 DUP3 ADD PUSH1 0x40 ADD MSTORE DUP3 ADD PUSH2 0x85A JUMP JUMPDEST POP PUSH1 0x0 PUSH1 0x40 DUP3 DUP7 ADD ADD MSTORE PUSH1 0x40 PUSH1 0x1F NOT PUSH1 0x1F DUP4 ADD AND DUP6 ADD ADD SWAP3 POP POP POP SWAP3 SWAP2 POP POP JUMP JUMPDEST DUP1 CALLDATALOAD PUSH1 0x1 PUSH1 0x1 PUSH1 0xA0 SHL SUB DUP2 AND DUP2 EQ PUSH2 0x8AE JUMPI PUSH1 0x0 DUP1 REVERT JUMPDEST SWAP2 SWAP1 POP JUMP JUMPDEST PUSH1 0x0 PUSH1 0x20 DUP3 DUP5 SUB SLT ISZERO PUSH2 0x8C5 JUMPI PUSH1 0x0 DUP1 REVERT JUMPDEST PUSH2 0x842 DUP3 PUSH2 0x897 JUMP JUMPDEST PUSH4 0x4E487B71 PUSH1 0xE0 SHL PUSH1 0x0 MSTORE PUSH1 0x41 PUSH1 0x4 MSTORE PUSH1 0x24 PUSH1 0x0 REVERT JUMPDEST PUSH1 0x0 DUP3 PUSH1 0x1F DUP4 ADD SLT PUSH2 0x8F5 JUMPI PUSH1 0x0 DUP1 REVERT JUMPDEST DUP2 CALLDATALOAD PUSH8 0xFFFFFFFFFFFFFFFF DUP1 DUP3 GT ISZERO PUSH2 0x910 JUMPI PUSH2 0x910 PUSH2 0x8CE JUMP JUMPDEST PUSH1 0x40 MLOAD PUSH1 0x1F DUP4 ADD PUSH1 0x1F NOT SWAP1 DUP2 AND PUSH1 0x3F ADD AND DUP2 ADD SWAP1 DUP3 DUP3 GT DUP2 DUP4 LT OR ISZERO PUSH2 0x938 JUMPI PUSH2 0x938 PUSH2 0x8CE JUMP JUMPDEST DUP2 PUSH1 0x40 MSTORE DUP4 DUP2 MSTORE DUP7 PUSH1 0x20 DUP6 DUP9 ADD ADD GT ISZERO PUSH2 0x951 JUMPI PUSH1 0x0 DUP1 REVERT JUMPDEST DUP4 PUSH1 0x20 DUP8 ADD PUSH1 0x20 DUP4 ADD CALLDATACOPY PUSH1 0x0 PUSH1 0x20 DUP6 DUP4 ADD ADD MSTORE DUP1 SWAP5 POP POP POP POP POP SWAP3 SWAP2 POP POP JUMP JUMPDEST PUSH1 0x0 DUP1 PUSH1 0x0 PUSH1 0x60 DUP5 DUP7 SUB SLT ISZERO PUSH2 0x986 JUMPI PUSH1 0x0 DUP1 REVERT JUMPDEST DUP4 CALLDATALOAD PUSH8 0xFFFFFFFFFFFFFFFF DUP1 DUP3 GT ISZERO PUSH2 0x99E JUMPI PUSH1 0x0 DUP1 REVERT JUMPDEST PUSH2 0x9AA DUP8 DUP4 DUP9 ADD PUSH2 0x8E4 JUMP JUMPDEST SWAP5 POP PUSH1 0x20 DUP7 ADD CALLDATALOAD SWAP2 POP DUP1 DUP3 GT ISZERO PUSH2 0x9C0 JUMPI PUSH1 0x0 DUP1 REVERT JUMPDEST POP PUSH2 0x9CD DUP7 DUP3 DUP8 ADD PUSH2 0x8E4 JUMP JUMPDEST SWAP3 POP POP PUSH2 0x9DC PUSH1 0x40 DUP6 ADD PUSH2 0x897 JUMP JUMPDEST SWAP1 POP SWAP3 POP SWAP3 POP SWAP3 JUMP JUMPDEST PUSH1 0x0 DUP1 PUSH1 0x0 PUSH1 0x60 DUP5 DUP7 SUB SLT ISZERO PUSH2 0x9FA JUMPI PUSH1 0x0 DUP1 REVERT JUMPDEST DUP4 CALLDATALOAD PUSH8 0xFFFFFFFFFFFFFFFF DUP1 DUP3 GT ISZERO PUSH2 0xA12 JUMPI PUSH1 0x0 DUP1 REVERT JUMPDEST PUSH2 0xA1E DUP8 DUP4 DUP9 ADD PUSH2 0x8E4 JUMP JUMPDEST SWAP5 POP PUSH1 0x20 DUP7 ADD CALLDATALOAD SWAP2 POP DUP1 DUP3 GT ISZERO PUSH2 0xA34 JUMPI PUSH1 0x0 DUP1 REVERT JUMPDEST POP PUSH2 0xA41 DUP7 DUP3 DUP8 ADD PUSH2 0x8E4 JUMP JUMPDEST SWAP3 POP POP PUSH1 0x40 DUP5 ADD CALLDATALOAD PUSH1 0xFF DUP2 AND DUP2 EQ PUSH2 0xA58 JUMPI PUSH1 0x0 DUP1 REVERT JUMPDEST DUP1 SWAP2 POP POP SWAP3 POP SWAP3 POP SWAP3 JUMP JUMPDEST PUSH1 0x0 DUP1 PUSH1 0x0 PUSH1 0x60 DUP5 DUP7 SUB SLT ISZERO PUSH2 0xA78 JUMPI PUSH1 0x0 DUP1 REVERT JUMPDEST POP POP DUP2 CALLDATALOAD SWAP4 PUSH1 0x20 DUP4 ADD CALLDATALOAD SWAP4 POP PUSH1 0x40 SWAP1 SWAP3 ADD CALLDATALOAD SWAP2 SWAP1 POP JUMP JUMPDEST PUSH1 0x1 DUP2 DUP2 SHR SWAP1 DUP3 AND DUP1 PUSH2 0xAA3 JUMPI PUSH1 0x7F DUP3 AND SWAP2 POP JUMPDEST PUSH1 0x20 DUP3 LT DUP2 SUB PUSH2 0xAC3 JUMPI PUSH4 0x4E487B71 PUSH1 0xE0 SHL PUSH1 0x0 MSTORE PUSH1 0x22 PUSH1 0x4 MSTORE PUSH1 0x24 PUSH1 0x0 REVERT JUMPDEST POP SWAP2 SWAP1 POP JUMP JUMPDEST PUSH1 0x20 DUP1 DUP3 MSTORE PUSH1 0x2E SWAP1 DUP3 ADD MSTORE PUSH32 0x496E697469616C697A61626C653A20636F6E747261637420697320616C726561 PUSH1 0x40 DUP3 ADD MSTORE PUSH14 0x191E481A5B9A5D1A585B1A5E9959 PUSH1 0x92 SHL PUSH1 0x60 DUP3 ADD MSTORE PUSH1 0x80 ADD SWAP1 JUMP JUMPDEST PUSH4 0x4E487B71 PUSH1 0xE0 SHL PUSH1 0x0 MSTORE PUSH1 0x11 PUSH1 0x4 MSTORE PUSH1 0x24 PUSH1 0x0 REVERT JUMPDEST PUSH1 0x1 DUP2 DUP2 JUMPDEST DUP1 DUP6 GT ISZERO PUSH2 0xB68 JUMPI DUP2 PUSH1 0x0 NOT DIV DUP3 GT ISZERO PUSH2 0xB4E JUMPI PUSH2 0xB4E PUSH2 0xB17 JUMP JUMPDEST DUP1 DUP6 AND ISZERO PUSH2 0xB5B JUMPI SWAP2 DUP2 MUL SWAP2 JUMPDEST SWAP4 DUP5 SHR SWAP4 SWAP1 DUP1 MUL SWAP1 PUSH2 0xB32 JUMP JUMPDEST POP SWAP3 POP SWAP3 SWAP1 POP JUMP JUMPDEST PUSH1 0x0 DUP3 PUSH2 0xB7F JUMPI POP PUSH1 0x1 PUSH2 0x695 JUMP JUMPDEST DUP2 PUSH2 0xB8C JUMPI POP PUSH1 0x0 PUSH2 0x695 JUMP JUMPDEST DUP2 PUSH1 0x1 DUP2 EQ PUSH2 0xBA2 JUMPI PUSH1 0x2 DUP2 EQ PUSH2 0xBAC JUMPI PUSH2 0xBC8 JUMP JUMPDEST PUSH1 0x1 SWAP2 POP POP PUSH2 0x695 JUMP JUMPDEST PUSH1 0xFF DUP5 GT ISZERO PUSH2 0xBBD JUMPI PUSH2 0xBBD PUSH2 0xB17 JUMP JUMPDEST POP POP PUSH1 0x1 DUP3 SHL PUSH2 0x695 JUMP JUMPDEST POP PUSH1 0x20 DUP4 LT PUSH2 0x133 DUP4 LT AND PUSH1 0x4E DUP5 LT PUSH1 0xB DUP5 LT AND OR ISZERO PUSH2 0xBEB JUMPI POP DUP2 DUP2 EXP PUSH2 0x695 JUMP JUMPDEST PUSH2 0xBF5 DUP4 DUP4 PUSH2 0xB2D JUMP JUMPDEST DUP1 PUSH1 0x0 NOT DIV DUP3 GT ISZERO PUSH2 0xC09 JUMPI PUSH2 0xC09 PUSH2 0xB17 JUMP JUMPDEST MUL SWAP4 SWAP3 POP POP POP JUMP JUMPDEST PUSH1 0x0 PUSH2 0x842 DUP4 DUP4 PUSH2 0xB70 JUMP JUMPDEST DUP1 DUP3 MUL DUP2 ISZERO DUP3 DUP3 DIV DUP5 EQ OR PUSH2 0x695 JUMPI PUSH2 0x695 PUSH2 0xB17 JUMP JUMPDEST PUSH1 0x0 DUP3 PUSH2 0xC51 JUMPI PUSH4 0x4E487B71 PUSH1 0xE0 SHL PUSH1 0x0 MSTORE PUSH1 0x12 PUSH1 0x4 MSTORE PUSH1 0x24 PUSH1 0x0 REVERT JUMPDEST POP DIV SWAP1 JUMP JUMPDEST PUSH1 0x1F DUP3 GT ISZERO PUSH2 0xCA0 JUMPI PUSH1 0x0 DUP2 DUP2 MSTORE PUSH1 0x20 DUP2 KECCAK256 PUSH1 0x1F DUP6 ADD PUSH1 0x5 SHR DUP2 ADD PUSH1 0x20 DUP7 LT ISZERO PUSH2 0xC7D JUMPI POP DUP1 JUMPDEST PUSH1 0x1F DUP6 ADD PUSH1 0x5 SHR DUP3 ADD SWAP2 POP JUMPDEST DUP2 DUP2 LT ISZERO PUSH2 0xC9C JUMPI DUP3 DUP2 SSTORE PUSH1 0x1 ADD PUSH2 0xC89 JUMP JUMPDEST POP POP POP JUMPDEST POP POP POP JUMP JUMPDEST DUP2 MLOAD PUSH8 0xFFFFFFFFFFFFFFFF DUP2 GT ISZERO PUSH2 0xCBF JUMPI PUSH2 0xCBF PUSH2 0x8CE JUMP JUMPDEST PUSH2 0xCD3 DUP2 PUSH2 0xCCD DUP5 SLOAD PUSH2 0xA8F JUMP JUMPDEST DUP5 PUSH2 0xC56 JUMP JUMPDEST PUSH1 0x20 DUP1 PUSH1 0x1F DUP4 GT PUSH1 0x1 DUP2 EQ PUSH2 0xD08 JUMPI PUSH1 0x0 DUP5 ISZERO PUSH2 0xCF0 JUMPI POP DUP6 DUP4 ADD MLOAD JUMPDEST PUSH1 0x0 NOT PUSH1 0x3 DUP7 SWAP1 SHL SHR NOT AND PUSH1 0x1 DUP6 SWAP1 SHL OR DUP6 SSTORE PUSH2 0xC9C JUMP JUMPDEST PUSH1 0x0 DUP6 DUP2 MSTORE PUSH1 0x20 DUP2 KECCAK256 PUSH1 0x1F NOT DUP7 AND SWAP2 JUMPDEST DUP3 DUP2 LT ISZERO PUSH2 0xD37 JUMPI DUP9 DUP7 ADD MLOAD DUP3 SSTORE SWAP5 DUP5 ADD SWAP5 PUSH1 0x1 SWAP1 SWAP2 ADD SWAP1 DUP5 ADD PUSH2 0xD18 JUMP JUMPDEST POP DUP6 DUP3 LT ISZERO PUSH2 0xD55 JUMPI DUP8 DUP6 ADD MLOAD PUSH1 0x0 NOT PUSH1 0x3 DUP9 SWAP1 SHL PUSH1 0xF8 AND SHR NOT AND DUP2 SSTORE JUMPDEST POP POP POP POP POP PUSH1 0x1 SWAP1 DUP2 SHL ADD SWAP1 SSTORE POP JUMP JUMPDEST DUP1 DUP3 ADD DUP1 DUP3 GT ISZERO PUSH2 0x695 JUMPI PUSH2 0x695 PUSH2 0xB17 JUMP JUMPDEST DUP2 DUP2 SUB DUP2 DUP2 GT ISZERO PUSH2 0x695 JUMPI PUSH2 0x695 PUSH2 0xB17 JUMP INVALID LOG2 PUSH5 0x6970667358 0x22 SLT KECCAK256 0xEC PUSH8 0x48B1123005B657B8 KECCAK256 0x4D 0x1F DUP13 0xEC RETURN 0xB3 0x49 0xBC MSTORE8 0xD9 AND 0xD9 0xBA MULMOD RETURNDATACOPY 0xD2 0xA6 PUSH5 0x83B1EC6473 PUSH16 0x6C634300081100330000000000000000 "},"methodIdentifiers":{"DOMAIN_SEPARATOR()":"3644e515","EIP712_DOMAIN()":"e1b11da4","EIP712_REVISION()":"78160376","MAX_SUPPLY()":"32cb6b0c","PERMIT_TYPEHASH()":"30adf81f","__ERC20Detailed_init(string,string,uint8)":"a10daee3","__UFragments_init(string,string,address)":"3570f3f1","_gonBalances(address)":"36fed975","_gonsPerFragment()":"c4996f51","_totalGons()":"fd5eb09d","_totalSupply()":"3eaaf86b","balanceOf(address)":"70a08231","decimals()":"313ce567","gobblerUnion()":"469ddd12","gobblers()":"7da066c6","gooTogether()":"d7f32852","monetaryPolicy()":"8e27d7d7","name()":"06fdde03","nonces(address)":"7ecebe00","rebase(uint256,uint256,uint256)":"a48daa4f","scaledBalanceOf(address)":"1da24f3e","scaledTotalSupply()":"b1bf962d","symbol()":"95d89b41","totalSupply()":"18160ddd"}},"storageLayout":{"storage":[{"astId":397,"contract":"contracts/uFragments.sol:UFragments","label":"_initialized","offset":0,"slot":"0","type":"t_bool"},{"astId":400,"contract":"contracts/uFragments.sol:UFragments","label":"_initializing","offset":1,"slot":"0","type":"t_bool"},{"astId":10,"contract":"contracts/uFragments.sol:UFragments","label":"_name","offset":0,"slot":"1","type":"t_string_storage"},{"astId":12,"contract":"contracts/uFragments.sol:UFragments","label":"_symbol","offset":0,"slot":"2","type":"t_string_storage"},{"astId":14,"contract":"contracts/uFragments.sol:UFragments","label":"_decimals","offset":0,"slot":"3","type":"t_uint8"},{"astId":70,"contract":"contracts/uFragments.sol:UFragments","label":"______gap","offset":0,"slot":"4","type":"t_array(t_uint256)50_storage"},{"astId":1377,"contract":"contracts/uFragments.sol:UFragments","label":"monetaryPolicy","offset":0,"slot":"54","type":"t_address"},{"astId":1431,"contract":"contracts/uFragments.sol:UFragments","label":"_totalGons","offset":0,"slot":"55","type":"t_uint256"},{"astId":1433,"contract":"contracts/uFragments.sol:UFragments","label":"MAX_SUPPLY","offset":0,"slot":"56","type":"t_uint256"},{"astId":1435,"contract":"contracts/uFragments.sol:UFragments","label":"_totalSupply","offset":0,"slot":"57","type":"t_uint256"},{"astId":1437,"contract":"contracts/uFragments.sol:UFragments","label":"_gonsPerFragment","offset":0,"slot":"58","type":"t_uint256"},{"astId":1439,"contract":"contracts/uFragments.sol:UFragments","label":"gobblerUnion","offset":0,"slot":"59","type":"t_address"},{"astId":1441,"contract":"contracts/uFragments.sol:UFragments","label":"gobblers","offset":0,"slot":"60","type":"t_address"},{"astId":1443,"contract":"contracts/uFragments.sol:UFragments","label":"gooTogether","offset":0,"slot":"61","type":"t_address"},{"astId":1447,"contract":"contracts/uFragments.sol:UFragments","label":"_gonBalances","offset":0,"slot":"62","type":"t_mapping(t_address,t_uint256)"},{"astId":1453,"contract":"contracts/uFragments.sol:UFragments","label":"_allowedFragments","offset":0,"slot":"63","type":"t_mapping(t_address,t_mapping(t_address,t_uint256))"},{"astId":1470,"contract":"contracts/uFragments.sol:UFragments","label":"_nonces","offset":0,"slot":"64","type":"t_mapping(t_address,t_uint256)"}],"types":{"t_address":{"encoding":"inplace","label":"address","numberOfBytes":"20"},"t_array(t_uint256)50_storage":{"base":"t_uint256","encoding":"inplace","label":"uint256[50]","numberOfBytes":"1600"},"t_bool":{"encoding":"inplace","label":"bool","numberOfBytes":"1"},"t_mapping(t_address,t_mapping(t_address,t_uint256))":{"encoding":"mapping","key":"t_address","label":"mapping(address => mapping(address => uint256))","numberOfBytes":"32","value":"t_mapping(t_address,t_uint256)"},"t_mapping(t_address,t_uint256)":{"encoding":"mapping","key":"t_address","label":"mapping(address => uint256)","numberOfBytes":"32","value":"t_uint256"},"t_string_storage":{"encoding":"bytes","label":"string","numberOfBytes":"32"},"t_uint256":{"encoding":"inplace","label":"uint256","numberOfBytes":"32"},"t_uint8":{"encoding":"inplace","label":"uint8","numberOfBytes":"1"}}},"userdoc":{"kind":"user","methods":{"__ERC20Detailed_init(string,string,uint8)":{"notice":"constructor(string memory name_, string memory symbol_, uint8 decimals_){ _name = name_; _symbol = symbol_; _decimals = decimals_; }"}},"version":1}}}}