{"contracts/gooBalanceProxy.sol":{"gooBalanceProxy":{"abi":[{"inputs":[{"internalType":"address","name":"_address","type":"address"}],"name":"balanceOf","outputs":[{"internalType":"uint256","name":"","type":"uint256"}],"stateMutability":"view","type":"function"},{"inputs":[],"name":"gobblers","outputs":[{"internalType":"address","name":"","type":"address"}],"stateMutability":"view","type":"function"},{"inputs":[],"name":"gooToken","outputs":[{"internalType":"address","name":"","type":"address"}],"stateMutability":"view","type":"function"}],"devdoc":{"kind":"dev","methods":{},"version":1},"evm":{"bytecode":{"linkReferences":{},"object":"60c060405273600000000a36f3cd48407e35eb7c5c910dc1f7a86080527360bb1e2aa1c9acafb4d34f71585d7e959f38776960a05234801561004057600080fd5b5060805160a05161029b6100716000396000818160b001526101800152600081816071015260f6015261029b6000f3fe608060405234801561001057600080fd5b50600436106100415760003560e01c806370a08231146100465780637b10c7df1461006c5780637da066c6146100ab575b600080fd5b6100596100543660046101fc565b6100d2565b6040519081526020015b60405180910390f35b6100937f000000000000000000000000000000000000000000000000000000000000000081565b6040516001600160a01b039091168152602001610063565b6100937f000000000000000000000000000000000000000000000000000000000000000081565b6040516370a0823160e01b81526001600160a01b03828116600483015260009182917f000000000000000000000000000000000000000000000000000000000000000016906370a0823190602401602060405180830381865afa15801561013d573d6000803e3d6000fd5b505050506040513d601f19601f820116820180604052508101906101619190610225565b60405163683afddd60e11b81526001600160a01b0385811660048301527f0000000000000000000000000000000000000000000000000000000000000000169063d075fbba90602401602060405180830381865afa1580156101c7573d6000803e3d6000fd5b505050506040513d601f19601f820116820180604052508101906101eb9190610225565b6101f5919061023e565b9392505050565b60006020828403121561020e57600080fd5b81356001600160a01b03811681146101f557600080fd5b60006020828403121561023757600080fd5b5051919050565b8082018082111561025f57634e487b7160e01b600052601160045260246000fd5b9291505056fea2646970667358221220d4f16c563a1a47a59d4d5c1f7febae9058c37e1e1a35823b9e20d5a87ecb721f64736f6c63430008110033","opcodes":"PUSH1 0xC0 PUSH1 0x40 MSTORE PUSH20 0x600000000A36F3CD48407E35EB7C5C910DC1F7A8 PUSH1 0x80 MSTORE PUSH20 0x60BB1E2AA1C9ACAFB4D34F71585D7E959F387769 PUSH1 0xA0 MSTORE CALLVALUE DUP1 ISZERO PUSH2 0x40 JUMPI PUSH1 0x0 DUP1 REVERT JUMPDEST POP PUSH1 0x80 MLOAD PUSH1 0xA0 MLOAD PUSH2 0x29B PUSH2 0x71 PUSH1 0x0 CODECOPY PUSH1 0x0 DUP2 DUP2 PUSH1 0xB0 ADD MSTORE PUSH2 0x180 ADD MSTORE PUSH1 0x0 DUP2 DUP2 PUSH1 0x71 ADD MSTORE PUSH1 0xF6 ADD MSTORE PUSH2 0x29B PUSH1 0x0 RETURN INVALID PUSH1 0x80 PUSH1 0x40 MSTORE CALLVALUE DUP1 ISZERO PUSH2 0x10 JUMPI PUSH1 0x0 DUP1 REVERT JUMPDEST POP PUSH1 0x4 CALLDATASIZE LT PUSH2 0x41 JUMPI PUSH1 0x0 CALLDATALOAD PUSH1 0xE0 SHR DUP1 PUSH4 0x70A08231 EQ PUSH2 0x46 JUMPI DUP1 PUSH4 0x7B10C7DF EQ PUSH2 0x6C JUMPI DUP1 PUSH4 0x7DA066C6 EQ PUSH2 0xAB JUMPI JUMPDEST PUSH1 0x0 DUP1 REVERT JUMPDEST PUSH2 0x59 PUSH2 0x54 CALLDATASIZE PUSH1 0x4 PUSH2 0x1FC JUMP JUMPDEST PUSH2 0xD2 JUMP JUMPDEST PUSH1 0x40 MLOAD SWAP1 DUP2 MSTORE PUSH1 0x20 ADD JUMPDEST PUSH1 0x40 MLOAD DUP1 SWAP2 SUB SWAP1 RETURN JUMPDEST PUSH2 0x93 PUSH32 0x0 DUP2 JUMP JUMPDEST PUSH1 0x40 MLOAD PUSH1 0x1 PUSH1 0x1 PUSH1 0xA0 SHL SUB SWAP1 SWAP2 AND DUP2 MSTORE PUSH1 0x20 ADD PUSH2 0x63 JUMP JUMPDEST PUSH2 0x93 PUSH32 0x0 DUP2 JUMP JUMPDEST PUSH1 0x40 MLOAD PUSH4 0x70A08231 PUSH1 0xE0 SHL DUP2 MSTORE PUSH1 0x1 PUSH1 0x1 PUSH1 0xA0 SHL SUB DUP3 DUP2 AND PUSH1 0x4 DUP4 ADD MSTORE PUSH1 0x0 SWAP2 DUP3 SWAP2 PUSH32 0x0 AND SWAP1 PUSH4 0x70A08231 SWAP1 PUSH1 0x24 ADD PUSH1 0x20 PUSH1 0x40 MLOAD DUP1 DUP4 SUB DUP2 DUP7 GAS STATICCALL ISZERO DUP1 ISZERO PUSH2 0x13D JUMPI RETURNDATASIZE PUSH1 0x0 DUP1 RETURNDATACOPY RETURNDATASIZE PUSH1 0x0 REVERT JUMPDEST POP POP POP POP PUSH1 0x40 MLOAD RETURNDATASIZE PUSH1 0x1F NOT PUSH1 0x1F DUP3 ADD AND DUP3 ADD DUP1 PUSH1 0x40 MSTORE POP DUP2 ADD SWAP1 PUSH2 0x161 SWAP2 SWAP1 PUSH2 0x225 JUMP JUMPDEST PUSH1 0x40 MLOAD PUSH4 0x683AFDDD PUSH1 0xE1 SHL DUP2 MSTORE PUSH1 0x1 PUSH1 0x1 PUSH1 0xA0 SHL SUB DUP6 DUP2 AND PUSH1 0x4 DUP4 ADD MSTORE PUSH32 0x0 AND SWAP1 PUSH4 0xD075FBBA SWAP1 PUSH1 0x24 ADD PUSH1 0x20 PUSH1 0x40 MLOAD DUP1 DUP4 SUB DUP2 DUP7 GAS STATICCALL ISZERO DUP1 ISZERO PUSH2 0x1C7 JUMPI RETURNDATASIZE PUSH1 0x0 DUP1 RETURNDATACOPY RETURNDATASIZE PUSH1 0x0 REVERT JUMPDEST POP POP POP POP PUSH1 0x40 MLOAD RETURNDATASIZE PUSH1 0x1F NOT PUSH1 0x1F DUP3 ADD AND DUP3 ADD DUP1 PUSH1 0x40 MSTORE POP DUP2 ADD SWAP1 PUSH2 0x1EB SWAP2 SWAP1 PUSH2 0x225 JUMP JUMPDEST PUSH2 0x1F5 SWAP2 SWAP1 PUSH2 0x23E JUMP JUMPDEST SWAP4 SWAP3 POP POP POP JUMP JUMPDEST PUSH1 0x0 PUSH1 0x20 DUP3 DUP5 SUB SLT ISZERO PUSH2 0x20E JUMPI PUSH1 0x0 DUP1 REVERT JUMPDEST DUP2 CALLDATALOAD PUSH1 0x1 PUSH1 0x1 PUSH1 0xA0 SHL SUB DUP2 AND DUP2 EQ PUSH2 0x1F5 JUMPI PUSH1 0x0 DUP1 REVERT JUMPDEST PUSH1 0x0 PUSH1 0x20 DUP3 DUP5 SUB SLT ISZERO PUSH2 0x237 JUMPI PUSH1 0x0 DUP1 REVERT JUMPDEST POP MLOAD SWAP2 SWAP1 POP JUMP JUMPDEST DUP1 DUP3 ADD DUP1 DUP3 GT ISZERO PUSH2 0x25F JUMPI PUSH4 0x4E487B71 PUSH1 0xE0 SHL PUSH1 0x0 MSTORE PUSH1 0x11 PUSH1 0x4 MSTORE PUSH1 0x24 PUSH1 0x0 REVERT JUMPDEST SWAP3 SWAP2 POP POP JUMP INVALID LOG2 PUSH5 0x6970667358 0x22 SLT KECCAK256 0xD4 CALL PUSH13 0x563A1A47A59D4D5C1F7FEBAE90 PC 0xC3 PUSH31 0x1E1A35823B9E20D5A87ECB721F64736F6C6343000811003300000000000000 "},"methodIdentifiers":{"balanceOf(address)":"70a08231","gobblers()":"7da066c6","gooToken()":"7b10c7df"}},"storageLayout":{"storage":[],"types":null},"userdoc":{"kind":"user","methods":{},"version":1}}}}