{
  "_format": "hh-sol-artifact-1",
  "contractName": "UFragments",
  "sourceName": "contracts/uFragments.sol",
  "abi": [
    {
      "anonymous": false,
      "inputs": [
        {
          "indexed": true,
          "internalType": "address",
          "name": "owner",
          "type": "address"
        },
        {
          "indexed": true,
          "internalType": "address",
          "name": "spender",
          "type": "address"
        },
        {
          "indexed": false,
          "internalType": "uint256",
          "name": "value",
          "type": "uint256"
        }
      ],
      "name": "Approval",
      "type": "event"
    },
    {
      "anonymous": false,
      "inputs": [
        {
          "indexed": true,
          "internalType": "address",
          "name": "from",
          "type": "address"
        },
        {
          "indexed": false,
          "internalType": "uint256",
          "name": "value",
          "type": "uint256"
        }
      ],
      "name": "Burn",
      "type": "event"
    },
    {
      "anonymous": false,
      "inputs": [
        {
          "indexed": true,
          "internalType": "address",
          "name": "from",
          "type": "address"
        },
        {
          "indexed": false,
          "internalType": "uint256",
          "name": "value",
          "type": "uint256"
        },
        {
          "indexed": false,
          "internalType": "uint256",
          "name": "totalSupply",
          "type": "uint256"
        }
      ],
      "name": "Donation",
      "type": "event"
    },
    {
      "anonymous": false,
      "inputs": [
        {
          "indexed": false,
          "internalType": "address",
          "name": "monetaryPolicy",
          "type": "address"
        }
      ],
      "name": "LogMonetaryPolicyUpdated",
      "type": "event"
    },
    {
      "anonymous": false,
      "inputs": [
        {
          "indexed": true,
          "internalType": "uint256",
          "name": "epoch",
          "type": "uint256"
        },
        {
          "indexed": false,
          "internalType": "uint256",
          "name": "totalSupply",
          "type": "uint256"
        }
      ],
      "name": "LogRebase",
      "type": "event"
    },
    {
      "anonymous": false,
      "inputs": [
        {
          "indexed": true,
          "internalType": "address",
          "name": "to",
          "type": "address"
        },
        {
          "indexed": false,
          "internalType": "uint256",
          "name": "value",
          "type": "uint256"
        }
      ],
      "name": "Mint",
      "type": "event"
    },
    {
      "anonymous": false,
      "inputs": [
        {
          "indexed": true,
          "internalType": "address",
          "name": "from",
          "type": "address"
        },
        {
          "indexed": true,
          "internalType": "address",
          "name": "to",
          "type": "address"
        },
        {
          "indexed": false,
          "internalType": "uint256",
          "name": "value",
          "type": "uint256"
        }
      ],
      "name": "Transfer",
      "type": "event"
    },
    {
      "anonymous": false,
      "inputs": [
        {
          "indexed": false,
          "internalType": "address",
          "name": "from",
          "type": "address"
        },
        {
          "indexed": false,
          "internalType": "uint256",
          "name": "amount",
          "type": "uint256"
        }
      ],
      "name": "feePaid",
      "type": "event"
    },
    {
      "inputs": [],
      "name": "DOMAIN_SEPARATOR",
      "outputs": [
        {
          "internalType": "bytes32",
          "name": "",
          "type": "bytes32"
        }
      ],
      "stateMutability": "view",
      "type": "function"
    },
    {
      "inputs": [],
      "name": "EIP712_DOMAIN",
      "outputs": [
        {
          "internalType": "bytes32",
          "name": "",
          "type": "bytes32"
        }
      ],
      "stateMutability": "view",
      "type": "function"
    },
    {
      "inputs": [],
      "name": "EIP712_REVISION",
      "outputs": [
        {
          "internalType": "string",
          "name": "",
          "type": "string"
        }
      ],
      "stateMutability": "view",
      "type": "function"
    },
    {
      "inputs": [],
      "name": "MAX_SUPPLY",
      "outputs": [
        {
          "internalType": "uint256",
          "name": "",
          "type": "uint256"
        }
      ],
      "stateMutability": "view",
      "type": "function"
    },
    {
      "inputs": [],
      "name": "PERMIT_TYPEHASH",
      "outputs": [
        {
          "internalType": "bytes32",
          "name": "",
          "type": "bytes32"
        }
      ],
      "stateMutability": "view",
      "type": "function"
    },
    {
      "inputs": [
        {
          "internalType": "string",
          "name": "name_",
          "type": "string"
        },
        {
          "internalType": "string",
          "name": "symbol_",
          "type": "string"
        },
        {
          "internalType": "uint8",
          "name": "decimals_",
          "type": "uint8"
        }
      ],
      "name": "__ERC20Detailed_init",
      "outputs": [],
      "stateMutability": "nonpayable",
      "type": "function"
    },
    {
      "inputs": [
        {
          "internalType": "string",
          "name": "name",
          "type": "string"
        },
        {
          "internalType": "string",
          "name": "symbol",
          "type": "string"
        },
        {
          "internalType": "address",
          "name": "_gooTogether",
          "type": "address"
        }
      ],
      "name": "__UFragments_init",
      "outputs": [],
      "stateMutability": "nonpayable",
      "type": "function"
    },
    {
      "inputs": [
        {
          "internalType": "address",
          "name": "",
          "type": "address"
        }
      ],
      "name": "_gonBalances",
      "outputs": [
        {
          "internalType": "uint256",
          "name": "",
          "type": "uint256"
        }
      ],
      "stateMutability": "view",
      "type": "function"
    },
    {
      "inputs": [],
      "name": "_gonsPerFragment",
      "outputs": [
        {
          "internalType": "uint256",
          "name": "",
          "type": "uint256"
        }
      ],
      "stateMutability": "view",
      "type": "function"
    },
    {
      "inputs": [],
      "name": "_totalGons",
      "outputs": [
        {
          "internalType": "uint256",
          "name": "",
          "type": "uint256"
        }
      ],
      "stateMutability": "view",
      "type": "function"
    },
    {
      "inputs": [],
      "name": "_totalSupply",
      "outputs": [
        {
          "internalType": "uint256",
          "name": "",
          "type": "uint256"
        }
      ],
      "stateMutability": "view",
      "type": "function"
    },
    {
      "inputs": [
        {
          "internalType": "address",
          "name": "who",
          "type": "address"
        }
      ],
      "name": "balanceOf",
      "outputs": [
        {
          "internalType": "uint256",
          "name": "",
          "type": "uint256"
        }
      ],
      "stateMutability": "view",
      "type": "function"
    },
    {
      "inputs": [],
      "name": "decimals",
      "outputs": [
        {
          "internalType": "uint8",
          "name": "",
          "type": "uint8"
        }
      ],
      "stateMutability": "view",
      "type": "function"
    },
    {
      "inputs": [],
      "name": "gobblerUnion",
      "outputs": [
        {
          "internalType": "address",
          "name": "",
          "type": "address"
        }
      ],
      "stateMutability": "view",
      "type": "function"
    },
    {
      "inputs": [],
      "name": "gobblers",
      "outputs": [
        {
          "internalType": "address",
          "name": "",
          "type": "address"
        }
      ],
      "stateMutability": "view",
      "type": "function"
    },
    {
      "inputs": [],
      "name": "gooTogether",
      "outputs": [
        {
          "internalType": "address",
          "name": "",
          "type": "address"
        }
      ],
      "stateMutability": "view",
      "type": "function"
    },
    {
      "inputs": [],
      "name": "monetaryPolicy",
      "outputs": [
        {
          "internalType": "address",
          "name": "",
          "type": "address"
        }
      ],
      "stateMutability": "view",
      "type": "function"
    },
    {
      "inputs": [],
      "name": "name",
      "outputs": [
        {
          "internalType": "string",
          "name": "",
          "type": "string"
        }
      ],
      "stateMutability": "view",
      "type": "function"
    },
    {
      "inputs": [
        {
          "internalType": "address",
          "name": "who",
          "type": "address"
        }
      ],
      "name": "nonces",
      "outputs": [
        {
          "internalType": "uint256",
          "name": "",
          "type": "uint256"
        }
      ],
      "stateMutability": "view",
      "type": "function"
    },
    {
      "inputs": [
        {
          "internalType": "uint256",
          "name": "epoch",
          "type": "uint256"
        },
        {
          "internalType": "uint256",
          "name": "supplyAdd",
          "type": "uint256"
        },
        {
          "internalType": "uint256",
          "name": "supplyRemove",
          "type": "uint256"
        }
      ],
      "name": "rebase",
      "outputs": [
        {
          "internalType": "uint256",
          "name": "",
          "type": "uint256"
        }
      ],
      "stateMutability": "nonpayable",
      "type": "function"
    },
    {
      "inputs": [
        {
          "internalType": "address",
          "name": "who",
          "type": "address"
        }
      ],
      "name": "scaledBalanceOf",
      "outputs": [
        {
          "internalType": "uint256",
          "name": "",
          "type": "uint256"
        }
      ],
      "stateMutability": "view",
      "type": "function"
    },
    {
      "inputs": [],
      "name": "scaledTotalSupply",
      "outputs": [
        {
          "internalType": "uint256",
          "name": "",
          "type": "uint256"
        }
      ],
      "stateMutability": "view",
      "type": "function"
    },
    {
      "inputs": [],
      "name": "symbol",
      "outputs": [
        {
          "internalType": "string",
          "name": "",
          "type": "string"
        }
      ],
      "stateMutability": "view",
      "type": "function"
    },
    {
      "inputs": [],
      "name": "totalSupply",
      "outputs": [
        {
          "internalType": "uint256",
          "name": "",
          "type": "uint256"
        }
      ],
      "stateMutability": "view",
      "type": "function"
    }
  ],
  "bytecode": "0x608060405234801561001057600080fd5b50610dc1806100206000396000f3fe608060405234801561001057600080fd5b50600436106101585760003560e01c806378160376116100c3578063a48daa4f1161007c578063a48daa4f14610309578063b1bf962d1461031c578063c4996f5114610324578063d7f328521461032d578063e1b11da414610340578063fd5eb09d1461036757600080fd5b8063781603761461027f5780637da066c61461029f5780637ecebe00146102b25780638e27d7d7146102db57806395d89b41146102ee578063a10daee3146102f657600080fd5b80633570f3f1116101155780633570f3f1146101fb5780633644e5151461021057806336fed975146102185780633eaaf86b14610238578063469ddd121461024157806370a082311461026c57600080fd5b806306fdde031461015d57806318160ddd1461017b5780631da24f3e1461018d57806330adf81f146101b6578063313ce567146101dd57806332cb6b0c146101f2575b600080fd5b610165610370565b6040516101729190610849565b60405180910390f35b6039545b604051908152602001610172565b61017f61019b3660046108b3565b6001600160a01b03166000908152603e602052604090205490565b61017f7f6e71edae12b1b97f4d1f60370fef10105fa2faae0126114a169c64845d6126c981565b60035460405160ff9091168152602001610172565b61017f60385481565b61020e610209366004610971565b610402565b005b61017f6105c2565b61017f6102263660046108b3565b603e6020526000908152604090205481565b61017f60395481565b603b54610254906001600160a01b031681565b6040516001600160a01b039091168152602001610172565b61017f61027a3660046108b3565b61066e565b610165604051806040016040528060018152602001603160f81b81525081565b603c54610254906001600160a01b031681565b61017f6102c03660046108b3565b6001600160a01b031660009081526040602081905290205490565b603654610254906001600160a01b031681565b61016561069b565b61020e6103043660046109e5565b6106aa565b61017f610317366004610a63565b610741565b60375461017f565b61017f603a5481565b603d54610254906001600160a01b031681565b61017f7f8b73c3c69bb8fe3d512ecc4cf759cc79239f7b179b0ffacaa9a75d522b39400f81565b61017f60375481565b60606001805461037f90610a8f565b80601f01602080910402602001604051908101604052809291908181526020018280546103ab90610a8f565b80156103f85780601f106103cd576101008083540402835291602001916103f8565b820191906000526020600020905b8154815290600101906020018083116103db57829003601f168201915b5050505050905090565b600054610100900460ff168061041b575060005460ff16155b6104405760405162461bcd60e51b815260040161043790610ac9565b60405180910390fd5b600054610100900460ff16158015610462576000805461ffff19166101011790555b61046e848460126106aa565b61047a6012600a610c11565b610485906001610c1d565b6104a39073af298d050e4395d69670b12b7f41000000000000610c1d565b6037556fffffffffffffffffffffffffffffffff6038556104c66012600a610c11565b6104d1906001610c1d565b603981905560375460008052603e6020527f5f97c64b3c4bdfff50b5c8f505e633128432c6b07fc6c8abc77dce786c7317d48190556105109190610c34565b603a55603b8054736761a059eb3881627ad33553dbef81a2ba576dbf6001600160a01b031991821617909155603c80547360bb1e2aa1c9acafb4d34f71585d7e959f387769908316179055603d80549091166001600160a01b03841617905560395460405190815260009030907fddf252ad1be2c89b69c2b068fc378daa952ba7f163c4a11628f55a4df523b3ef9060200160405180910390a380156105bc576000805461ff00191690555b50505050565b6000467f8b73c3c69bb8fe3d512ecc4cf759cc79239f7b179b0ffacaa9a75d522b39400f6105ee610370565b805160209182012060408051808201825260018152603160f81b90840152805192830193909352918101919091527fc89efdaa54c0f20c7adf612882df0950f5a951637e0307cdcb4c672f298b8bc66060820152608081018290523060a082015260c0016040516020818303038152906040528051906020012091505090565b603a546001600160a01b0382166000908152603e6020526040812054909161069591610c34565b92915050565b60606002805461037f90610a8f565b600054610100900460ff16806106c3575060005460ff16155b6106df5760405162461bcd60e51b815260040161043790610ac9565b600054610100900460ff16158015610701576000805461ffff19166101011790555b600161070d8582610ca5565b50600261071a8482610ca5565b506003805460ff191660ff841617905580156105bc576000805461ff001916905550505050565b603d546000906001600160a01b0316331461075b57600080fd5b82158015610767575081155b156107b157837f72725a3b1e5bd622d6bcd1339bb31279c351abe8f541ac7fd320f24e1b1641f26039546040516107a091815260200190565b60405180910390a250603954610842565b82156107cd57826039546107c59190610d65565b6039556107df565b816039546107db9190610d78565b6039555b60385460395411156107f2576038546039555b6039546037546108029190610c34565b603a5560395460405190815284907f72725a3b1e5bd622d6bcd1339bb31279c351abe8f541ac7fd320f24e1b1641f29060200160405180910390a2506039545b9392505050565b600060208083528351808285015260005b818110156108765785810183015185820160400152820161085a565b506000604082860101526040601f19601f8301168501019250505092915050565b80356001600160a01b03811681146108ae57600080fd5b919050565b6000602082840312156108c557600080fd5b61084282610897565b634e487b7160e01b600052604160045260246000fd5b600082601f8301126108f557600080fd5b813567ffffffffffffffff80821115610910576109106108ce565b604051601f8301601f19908116603f01168101908282118183101715610938576109386108ce565b8160405283815286602085880101111561095157600080fd5b836020870160208301376000602085830101528094505050505092915050565b60008060006060848603121561098657600080fd5b833567ffffffffffffffff8082111561099e57600080fd5b6109aa878388016108e4565b945060208601359150808211156109c057600080fd5b506109cd868287016108e4565b9250506109dc60408501610897565b90509250925092565b6000806000606084860312156109fa57600080fd5b833567ffffffffffffffff80821115610a1257600080fd5b610a1e878388016108e4565b94506020860135915080821115610a3457600080fd5b50610a41868287016108e4565b925050604084013560ff81168114610a5857600080fd5b809150509250925092565b600080600060608486031215610a7857600080fd5b505081359360208301359350604090920135919050565b600181811c90821680610aa357607f821691505b602082108103610ac357634e487b7160e01b600052602260045260246000fd5b50919050565b6020808252602e908201527f496e697469616c697a61626c653a20636f6e747261637420697320616c72656160408201526d191e481a5b9a5d1a585b1a5e995960921b606082015260800190565b634e487b7160e01b600052601160045260246000fd5b600181815b80851115610b68578160001904821115610b4e57610b4e610b17565b80851615610b5b57918102915b93841c9390800290610b32565b509250929050565b600082610b7f57506001610695565b81610b8c57506000610695565b8160018114610ba25760028114610bac57610bc8565b6001915050610695565b60ff841115610bbd57610bbd610b17565b50506001821b610695565b5060208310610133831016604e8410600b8410161715610beb575081810a610695565b610bf58383610b2d565b8060001904821115610c0957610c09610b17565b029392505050565b60006108428383610b70565b808202811582820484141761069557610695610b17565b600082610c5157634e487b7160e01b600052601260045260246000fd5b500490565b601f821115610ca057600081815260208120601f850160051c81016020861015610c7d5750805b601f850160051c820191505b81811015610c9c57828155600101610c89565b5050505b505050565b815167ffffffffffffffff811115610cbf57610cbf6108ce565b610cd381610ccd8454610a8f565b84610c56565b602080601f831160018114610d085760008415610cf05750858301515b600019600386901b1c1916600185901b178555610c9c565b600085815260208120601f198616915b82811015610d3757888601518255948401946001909101908401610d18565b5085821015610d555787850151600019600388901b60f8161c191681555b5050505050600190811b01905550565b8082018082111561069557610695610b17565b8181038181111561069557610695610b1756fea2646970667358221220ec6748b1123005b657b8204d1f8cecf3b349bc53d916d9ba093ed2a66483b1ec64736f6c63430008110033",
  "linkReferences": {},
  "deployedLinkReferences": {}
}