{
  "abi": [
    {
      "inputs": [
        {
          "internalType": "address",
          "name": "_setGooPoints",
          "type": "address"
        }
      ],
      "stateMutability": "nonpayable",
      "type": "constructor"
    },
    {
      "inputs": [],
      "name": "_gooPoints",
      "outputs": [
        {
          "internalType": "address",
          "name": "",
          "type": "address"
        }
      ],
      "stateMutability": "view",
      "type": "function"
    },
    {
      "inputs": [
        {
          "internalType": "uint256",
          "name": "_id",
          "type": "uint256"
        }
      ],
      "name": "deposit",
      "outputs": [],
      "stateMutability": "nonpayable",
      "type": "function"
    },
    {
      "inputs": [
        {
          "internalType": "address",
          "name": "",
          "type": "address"
        },
        {
          "internalType": "uint256",
          "name": "",
          "type": "uint256"
        }
      ],
      "name": "getUserData",
      "outputs": [
        {
          "internalType": "bool",
          "name": "",
          "type": "bool"
        }
      ],
      "stateMutability": "view",
      "type": "function"
    },
    {
      "inputs": [],
      "name": "gooPoints",
      "outputs": [
        {
          "internalType": "address",
          "name": "",
          "type": "address"
        }
      ],
      "stateMutability": "view",
      "type": "function"
    },
    {
      "inputs": [
        {
          "internalType": "address",
          "name": "",
          "type": "address"
        },
        {
          "internalType": "address",
          "name": "",
          "type": "address"
        },
        {
          "internalType": "uint256",
          "name": "",
          "type": "uint256"
        },
        {
          "internalType": "bytes",
          "name": "",
          "type": "bytes"
        }
      ],
      "name": "onERC721Received",
      "outputs": [
        {
          "internalType": "bytes4",
          "name": "",
          "type": "bytes4"
        }
      ],
      "stateMutability": "pure",
      "type": "function"
    },
    {
      "inputs": [],
      "name": "pay_interest",
      "outputs": [
        {
          "internalType": "uint256",
          "name": "",
          "type": "uint256"
        }
      ],
      "stateMutability": "nonpayable",
      "type": "function"
    },
    {
      "inputs": [],
      "name": "poolMulitple",
      "outputs": [
        {
          "internalType": "uint256",
          "name": "",
          "type": "uint256"
        }
      ],
      "stateMutability": "view",
      "type": "function"
    },
    {
      "inputs": [],
      "name": "totalGooInContract",
      "outputs": [
        {
          "internalType": "uint256",
          "name": "",
          "type": "uint256"
        }
      ],
      "stateMutability": "view",
      "type": "function"
    },
    {
      "inputs": [
        {
          "internalType": "address",
          "name": "",
          "type": "address"
        },
        {
          "internalType": "uint256",
          "name": "",
          "type": "uint256"
        }
      ],
      "name": "userGobblers",
      "outputs": [
        {
          "internalType": "uint256",
          "name": "",
          "type": "uint256"
        }
      ],
      "stateMutability": "view",
      "type": "function"
    },
    {
      "inputs": [
        {
          "internalType": "address",
          "name": "_user",
          "type": "address"
        }
      ],
      "name": "userTotalGooEstimated",
      "outputs": [
        {
          "internalType": "uint256",
          "name": "",
          "type": "uint256"
        }
      ],
      "stateMutability": "view",
      "type": "function"
    },
    {
      "inputs": [],
      "name": "viewGobblers",
      "outputs": [
        {
          "internalType": "address",
          "name": "",
          "type": "address"
        }
      ],
      "stateMutability": "view",
      "type": "function"
    },
    {
      "inputs": [],
      "name": "withdraw",
      "outputs": [],
      "stateMutability": "nonpayable",
      "type": "function"
    }
  ],
  "bytecode": {
    "object": "0x60e06040527360bb1e2aa1c9acafb4d34f71585d7e959f387769608052736761a059eb3881627ad33553dbef81a2ba576dbf60a05273600000000a36f3cd48407e35eb7c5c910dc1f7a860c05234801561005857600080fd5b506040516113ff3803806113ff833981016040819052610077916100a5565b600060035542600455600280546001600160a01b0319166001600160a01b03929092169190911790556100d5565b6000602082840312156100b757600080fd5b81516001600160a01b03811681146100ce57600080fd5b9392505050565b60805160a05160c0516112a7610158600039600081816102890152818161074601526108270152600061077501526000818161014401528181610311015281816103d001528181610474015281816106b80152818161096c015281816109f901528181610a9f01528181610d6601528181610de20152610f7801526112a76000f3fe608060405234801561001057600080fd5b50600436106100b45760003560e01c80634cd01af1116100715780634cd01af11461017a578063588c4f9a146101b5578063ae4b5ae4146101c6578063b6b55f25146101ce578063c0571080146101e1578063cfe14875146101f457600080fd5b8063150b7a02146100b9578063238c16c9146100f6578063273e0c1a1461011757806328928c721461014257806336088b92146101685780633ccfd60b14610170575b600080fd5b6100d86100c736600461100e565b630a85bd0160e11b95945050505050565b6040516001600160e01b031990911681526020015b60405180910390f35b6101096101043660046110a9565b6101fc565b6040519081526020016100ed565b60025461012a906001600160a01b031681565b6040516001600160a01b0390911681526020016100ed565b7f000000000000000000000000000000000000000000000000000000000000000061012a565b610109610271565b610178610393565b005b6101a56101883660046110cb565b600060208181529281526040808220909352908152205460ff1681565b60405190151581526020016100ed565b6002546001600160a01b031661012a565b610109610941565b6101786101dc3660046110f5565b610d3b565b6101096101ef3660046110cb565b610f22565b610109610f53565b6002546040516370a0823160e01b81526001600160a01b03838116600483015260009216906370a0823190602401602060405180830381865afa158015610247573d6000803e3d6000fd5b505050506040513d601f19601f8201168201806040525081019061026b919061110e565b92915050565b6040516370a0823160e01b81523060048201526000907f00000000000000000000000000000000000000000000000000000000000000006001600160a01b0316906370a0823190602401602060405180830381865afa1580156102d8573d6000803e3d6000fd5b505050506040513d601f19601f820116820180604052508101906102fc919061110e565b60405163683afddd60e11b81523060048201527f00000000000000000000000000000000000000000000000000000000000000006001600160a01b03169063d075fbba90602401602060405180830381865afa158015610360573d6000803e3d6000fd5b505050506040513d601f19601f82011682018060405250810190610384919061110e565b61038e919061113d565b905090565b61039b610941565b503360009081526001602052604081205490815b828111156105565760405163fa522a1560e01b8152600481018290526000907f00000000000000000000000000000000000000000000000000000000000000006001600160a01b03169063fa522a1590602401602060405180830381865afa15801561041f573d6000803e3d6000fd5b505050506040513d601f19601f82011682018060405250810190610443919061110e565b905061044f818461113d565b604051632142170760e11b8152306004820152336024820152604481018490529093507f00000000000000000000000000000000000000000000000000000000000000006001600160a01b0316906342842e0e90606401600060405180830381600087803b1580156104c057600080fd5b505af11580156104d4573d6000803e3d6000fd5b5050505080600360008282546104ea9190611150565b909155505033600090815260016020526040902080548061050d5761050d611163565b60008281526020808220830160001990810183905590920190925533825281815260408083208584529091529020805460ff19169055508061054e81611179565b9150506103af565b506002546040516370a0823160e01b81523360048201526000916001600160a01b0316906370a0823190602401602060405180830381865afa1580156105a0573d6000803e3d6000fd5b505050506040513d601f19601f820116820180604052508101906105c4919061110e565b600254604051633f34d4cf60e21b8152600481018590523360248201529192506001600160a01b03169063fcd3533c90604401600060405180830381600087803b15801561061157600080fd5b505af1158015610625573d6000803e3d6000fd5b505050506000600260009054906101000a90046001600160a01b03166001600160a01b03166390d1498c6040518163ffffffff1660e01b8152600401602060405180830381865afa15801561067e573d6000803e3d6000fd5b505050506040513d601f19601f820116820180604052508101906106a2919061110e565b6106ac9083611190565b90506001600160a01b037f000000000000000000000000000000000000000000000000000000000000000016639cc397fb60646106ea846062611190565b6106f491906111a7565b6040518263ffffffff1660e01b815260040161071291815260200190565b600060405180830381600087803b15801561072c57600080fd5b505af1158015610740573d6000803e3d6000fd5b505050507f00000000000000000000000000000000000000000000000000000000000000006001600160a01b031663a9059cbb7f000000000000000000000000000000000000000000000000000000000000000060648460026107a39190611190565b6107ad91906111a7565b6040516001600160e01b031960e085901b1681526001600160a01b03909216600483015260248201526044016020604051808303816000875af11580156107f8573d6000803e3d6000fd5b505050506040513d601f19601f8201168201806040525081019061081c91906111c9565b506001600160a01b037f00000000000000000000000000000000000000000000000000000000000000001663a9059cbb33606461085a856060611190565b61086491906111a7565b6040516001600160e01b031960e085901b1681526001600160a01b03909216600483015260248201526044016020604051808303816000875af11580156108af573d6000803e3d6000fd5b505050506040513d601f19601f820116820180604052508101906108d391906111c9565b506002546040516301e8454760e61b8152600481018390526001600160a01b0390911690637a1151c090602401600060405180830381600087803b15801561091a57600080fd5b505af115801561092e573d6000803e3d6000fd5b5050505061093a610941565b5050505050565b60405160016236769560e01b0319815230600482015260009081908190819081906001600160a01b037f0000000000000000000000000000000000000000000000000000000000000000169063ffc9896b90602401608060405180830381865afa1580156109b3573d6000803e3d6000fd5b505050506040513d601f19601f820116820180604052508101906109d791906111ff565b67ffffffffffffffff1693506001600160801b0316935063ffffffff169350507f00000000000000000000000000000000000000000000000000000000000000006001600160a01b0316639cc397fb60006040518263ffffffff1660e01b8152600401610a4691815260200190565b600060405180830381600087803b158015610a6057600080fd5b505af1158015610a74573d6000803e3d6000fd5b505060405160016236769560e01b031981523060048201526000925082915081906001600160a01b037f0000000000000000000000000000000000000000000000000000000000000000169063ffc9896b90602401608060405180830381865afa158015610ae6573d6000803e3d6000fd5b505050506040513d601f19601f82011682018060405250810190610b0a91906111ff565b67ffffffffffffffff1693506001600160801b0316935063ffffffff1693505060008482610b389190611150565b905080600003610b515750600098975050505050505050565b6000610b5e6005836111a7565b600354610b6b9190611190565b9050600085891115610c1257610b81868a611150565b6002549091506001600160a01b031663058ecdb46000610ba984678ac7230489e80000611190565b6040516001600160e01b031960e085901b168152600481019290925260248201526044016020604051808303816000875af1158015610bec573d6000803e3d6000fd5b505050506040513d601f19601f82011682018060405250810190610c10919061110e565b505b85891015610cb557610c248987611150565b6002549091506001600160a01b031663058ecdb4610c4a83678ac7230489e80000611190565b6040516001600160e01b031960e084901b1681526004810191909152600060248201526044016020604051808303816000875af1158015610c8f573d6000803e3d6000fd5b505050506040513d601f19601f82011682018060405250810190610cb3919061110e565b505b60025460405163560a982960e11b815260048101849052600060248201526001600160a01b039091169063ac153052906044016020604051808303816000875af1158015610d07573d6000803e3d6000fd5b505050506040513d601f19601f82011682018060405250810190610d2b919061110e565b50909a9950505050505050505050565b610d43610941565b50604051632142170760e11b8152336004820152306024820152604481018290527f00000000000000000000000000000000000000000000000000000000000000006001600160a01b0316906342842e0e90606401600060405180830381600087803b158015610db257600080fd5b505af1158015610dc6573d6000803e3d6000fd5b505060405163fa522a1560e01b815260048101849052600092507f00000000000000000000000000000000000000000000000000000000000000006001600160a01b0316915063fa522a1590602401602060405180830381865afa158015610e32573d6000803e3d6000fd5b505050506040513d601f19601f82011682018060405250810190610e56919061110e565b336000818152602081815260408083208784528252808320805460ff1916600190811790915593835283825282208054938401815582528120909101849055600380549293508392909190610eac90849061113d565b90915550506002546040516394bf804d60e01b8152600481018390523360248201526001600160a01b03909116906394bf804d90604401600060405180830381600087803b158015610efd57600080fd5b505af1158015610f11573d6000803e3d6000fd5b50505050610f1d610941565b505050565b60016020528160005260406000208181548110610f3e57600080fd5b90600052602060002001600091509150505481565b60405160016236769560e01b0319815230600482015260009081906001600160a01b037f0000000000000000000000000000000000000000000000000000000000000000169063ffc9896b90602401608060405180830381865afa158015610fbf573d6000803e3d6000fd5b505050506040513d601f19601f82011682018060405250810190610fe391906111ff565b505063ffffffff169392505050565b80356001600160a01b038116811461100957600080fd5b919050565b60008060008060006080868803121561102657600080fd5b61102f86610ff2565b945061103d60208701610ff2565b935060408601359250606086013567ffffffffffffffff8082111561106157600080fd5b818801915088601f83011261107557600080fd5b81358181111561108457600080fd5b89602082850101111561109657600080fd5b9699959850939650602001949392505050565b6000602082840312156110bb57600080fd5b6110c482610ff2565b9392505050565b600080604083850312156110de57600080fd5b6110e783610ff2565b946020939093013593505050565b60006020828403121561110757600080fd5b5035919050565b60006020828403121561112057600080fd5b5051919050565b634e487b7160e01b600052601160045260246000fd5b8082018082111561026b5761026b611127565b8181038181111561026b5761026b611127565b634e487b7160e01b600052603160045260246000fd5b60008161118857611188611127565b506000190190565b808202811582820484141761026b5761026b611127565b6000826111c457634e487b7160e01b600052601260045260246000fd5b500490565b6000602082840312156111db57600080fd5b815180151581146110c457600080fd5b805163ffffffff8116811461100957600080fd5b6000806000806080858703121561121557600080fd5b61121e856111eb565b935061122c602086016111eb565b925060408501516001600160801b038116811461124857600080fd5b606086015190925067ffffffffffffffff8116811461126657600080fd5b93969295509093505056fea2646970667358221220c07fe718491d49298006c1f23e52a34ada82c0439ad1b57b53260c26990ae85e64736f6c63430008110033",
    "linkReferences": {}
  },
  "methodIdentifiers": {
    "_gooPoints()": "273e0c1a",
    "deposit(uint256)": "b6b55f25",
    "getUserData(address,uint256)": "4cd01af1",
    "gooPoints()": "588c4f9a",
    "onERC721Received(address,address,uint256,bytes)": "150b7a02",
    "pay_interest()": "ae4b5ae4",
    "poolMulitple()": "cfe14875",
    "totalGooInContract()": "36088b92",
    "userGobblers(address,uint256)": "c0571080",
    "userTotalGooEstimated(address)": "238c16c9",
    "viewGobblers()": "28928c72",
    "withdraw()": "3ccfd60b"
  },
  "id": 26
}