{
  "abi": [
    {
      "anonymous": false,
      "inputs": [
        {
          "indexed": true,
          "internalType": "address",
          "name": "owner",
          "type": "address"
        },
        {
          "indexed": true,
          "internalType": "address",
          "name": "spender",
          "type": "address"
        },
        {
          "indexed": false,
          "internalType": "uint256",
          "name": "value",
          "type": "uint256"
        }
      ],
      "name": "Approval",
      "type": "event"
    },
    {
      "anonymous": false,
      "inputs": [
        {
          "indexed": true,
          "internalType": "address",
          "name": "from",
          "type": "address"
        },
        {
          "indexed": false,
          "internalType": "uint256",
          "name": "value",
          "type": "uint256"
        }
      ],
      "name": "Burn",
      "type": "event"
    },
    {
      "anonymous": false,
      "inputs": [
        {
          "indexed": true,
          "internalType": "address",
          "name": "from",
          "type": "address"
        },
        {
          "indexed": false,
          "internalType": "uint256",
          "name": "value",
          "type": "uint256"
        },
        {
          "indexed": false,
          "internalType": "uint256",
          "name": "totalSupply",
          "type": "uint256"
        }
      ],
      "name": "Donation",
      "type": "event"
    },
    {
      "anonymous": false,
      "inputs": [
        {
          "indexed": false,
          "internalType": "address",
          "name": "monetaryPolicy",
          "type": "address"
        }
      ],
      "name": "LogMonetaryPolicyUpdated",
      "type": "event"
    },
    {
      "anonymous": false,
      "inputs": [
        {
          "indexed": true,
          "internalType": "uint256",
          "name": "epoch",
          "type": "uint256"
        },
        {
          "indexed": false,
          "internalType": "uint256",
          "name": "totalSupply",
          "type": "uint256"
        }
      ],
      "name": "LogRebase",
      "type": "event"
    },
    {
      "anonymous": false,
      "inputs": [
        {
          "indexed": true,
          "internalType": "address",
          "name": "from",
          "type": "address"
        },
        {
          "indexed": false,
          "internalType": "uint256",
          "name": "value",
          "type": "uint256"
        },
        {
          "indexed": false,
          "internalType": "uint256",
          "name": "totalySupply",
          "type": "uint256"
        }
      ],
      "name": "Loss",
      "type": "event"
    },
    {
      "anonymous": false,
      "inputs": [
        {
          "indexed": true,
          "internalType": "address",
          "name": "to",
          "type": "address"
        },
        {
          "indexed": false,
          "internalType": "uint256",
          "name": "value",
          "type": "uint256"
        }
      ],
      "name": "Mint",
      "type": "event"
    },
    {
      "anonymous": false,
      "inputs": [
        {
          "indexed": true,
          "internalType": "address",
          "name": "from",
          "type": "address"
        },
        {
          "indexed": true,
          "internalType": "address",
          "name": "to",
          "type": "address"
        },
        {
          "indexed": false,
          "internalType": "uint256",
          "name": "value",
          "type": "uint256"
        }
      ],
      "name": "Transfer",
      "type": "event"
    },
    {
      "anonymous": false,
      "inputs": [
        {
          "indexed": false,
          "internalType": "address",
          "name": "from",
          "type": "address"
        },
        {
          "indexed": false,
          "internalType": "uint256",
          "name": "amount",
          "type": "uint256"
        }
      ],
      "name": "feePaid",
      "type": "event"
    },
    {
      "inputs": [],
      "name": "DOMAIN_SEPARATOR",
      "outputs": [
        {
          "internalType": "bytes32",
          "name": "",
          "type": "bytes32"
        }
      ],
      "stateMutability": "view",
      "type": "function"
    },
    {
      "inputs": [],
      "name": "EIP712_DOMAIN",
      "outputs": [
        {
          "internalType": "bytes32",
          "name": "",
          "type": "bytes32"
        }
      ],
      "stateMutability": "view",
      "type": "function"
    },
    {
      "inputs": [],
      "name": "EIP712_REVISION",
      "outputs": [
        {
          "internalType": "string",
          "name": "",
          "type": "string"
        }
      ],
      "stateMutability": "view",
      "type": "function"
    },
    {
      "inputs": [],
      "name": "MAX_SUPPLY",
      "outputs": [
        {
          "internalType": "uint256",
          "name": "",
          "type": "uint256"
        }
      ],
      "stateMutability": "view",
      "type": "function"
    },
    {
      "inputs": [],
      "name": "PERMIT_TYPEHASH",
      "outputs": [
        {
          "internalType": "bytes32",
          "name": "",
          "type": "bytes32"
        }
      ],
      "stateMutability": "view",
      "type": "function"
    },
    {
      "inputs": [
        {
          "internalType": "string",
          "name": "name_",
          "type": "string"
        },
        {
          "internalType": "string",
          "name": "symbol_",
          "type": "string"
        },
        {
          "internalType": "uint8",
          "name": "decimals_",
          "type": "uint8"
        }
      ],
      "name": "__ERC20Detailed_init",
      "outputs": [],
      "stateMutability": "nonpayable",
      "type": "function"
    },
    {
      "inputs": [
        {
          "internalType": "string",
          "name": "name",
          "type": "string"
        },
        {
          "internalType": "string",
          "name": "symbol",
          "type": "string"
        },
        {
          "internalType": "address",
          "name": "_gooTogether",
          "type": "address"
        }
      ],
      "name": "__UFragments_init",
      "outputs": [],
      "stateMutability": "nonpayable",
      "type": "function"
    },
    {
      "inputs": [
        {
          "internalType": "address",
          "name": "",
          "type": "address"
        }
      ],
      "name": "_gonBalances",
      "outputs": [
        {
          "internalType": "uint256",
          "name": "",
          "type": "uint256"
        }
      ],
      "stateMutability": "view",
      "type": "function"
    },
    {
      "inputs": [],
      "name": "_gonsPerFragment",
      "outputs": [
        {
          "internalType": "uint256",
          "name": "",
          "type": "uint256"
        }
      ],
      "stateMutability": "view",
      "type": "function"
    },
    {
      "inputs": [],
      "name": "_reserve",
      "outputs": [
        {
          "internalType": "address",
          "name": "",
          "type": "address"
        }
      ],
      "stateMutability": "view",
      "type": "function"
    },
    {
      "inputs": [],
      "name": "_totalGons",
      "outputs": [
        {
          "internalType": "uint256",
          "name": "",
          "type": "uint256"
        }
      ],
      "stateMutability": "view",
      "type": "function"
    },
    {
      "inputs": [],
      "name": "_totalSupply",
      "outputs": [
        {
          "internalType": "uint256",
          "name": "",
          "type": "uint256"
        }
      ],
      "stateMutability": "view",
      "type": "function"
    },
    {
      "inputs": [
        {
          "internalType": "address",
          "name": "who",
          "type": "address"
        }
      ],
      "name": "balanceOf",
      "outputs": [
        {
          "internalType": "uint256",
          "name": "",
          "type": "uint256"
        }
      ],
      "stateMutability": "view",
      "type": "function"
    },
    {
      "inputs": [
        {
          "internalType": "uint256",
          "name": "multiPoints",
          "type": "uint256"
        },
        {
          "internalType": "address",
          "name": "_user",
          "type": "address"
        }
      ],
      "name": "burn",
      "outputs": [],
      "stateMutability": "nonpayable",
      "type": "function"
    },
    {
      "inputs": [],
      "name": "currentReserve",
      "outputs": [
        {
          "internalType": "uint256",
          "name": "",
          "type": "uint256"
        }
      ],
      "stateMutability": "view",
      "type": "function"
    },
    {
      "inputs": [],
      "name": "decimals",
      "outputs": [
        {
          "internalType": "uint8",
          "name": "",
          "type": "uint8"
        }
      ],
      "stateMutability": "view",
      "type": "function"
    },
    {
      "inputs": [
        {
          "internalType": "uint256",
          "name": "goo",
          "type": "uint256"
        }
      ],
      "name": "donate",
      "outputs": [],
      "stateMutability": "nonpayable",
      "type": "function"
    },
    {
      "inputs": [],
      "name": "epoch",
      "outputs": [
        {
          "internalType": "uint256",
          "name": "",
          "type": "uint256"
        }
      ],
      "stateMutability": "view",
      "type": "function"
    },
    {
      "inputs": [
        {
          "internalType": "address",
          "name": "who",
          "type": "address"
        }
      ],
      "name": "estUserGooAmount",
      "outputs": [
        {
          "internalType": "uint256",
          "name": "",
          "type": "uint256"
        }
      ],
      "stateMutability": "view",
      "type": "function"
    },
    {
      "inputs": [],
      "name": "gobblerUnion",
      "outputs": [
        {
          "internalType": "address",
          "name": "",
          "type": "address"
        }
      ],
      "stateMutability": "view",
      "type": "function"
    },
    {
      "inputs": [],
      "name": "gobblers",
      "outputs": [
        {
          "internalType": "address",
          "name": "",
          "type": "address"
        }
      ],
      "stateMutability": "view",
      "type": "function"
    },
    {
      "inputs": [],
      "name": "gooSharePerFragment",
      "outputs": [
        {
          "internalType": "uint256",
          "name": "",
          "type": "uint256"
        }
      ],
      "stateMutability": "view",
      "type": "function"
    },
    {
      "inputs": [],
      "name": "gooSharePerGon",
      "outputs": [
        {
          "internalType": "uint256",
          "name": "",
          "type": "uint256"
        }
      ],
      "stateMutability": "view",
      "type": "function"
    },
    {
      "inputs": [],
      "name": "gooTogether",
      "outputs": [
        {
          "internalType": "address",
          "name": "",
          "type": "address"
        }
      ],
      "stateMutability": "view",
      "type": "function"
    },
    {
      "inputs": [
        {
          "internalType": "address",
          "name": "_proxyAddress",
          "type": "address"
        },
        {
          "internalType": "address",
          "name": "_gooTogether",
          "type": "address"
        }
      ],
      "name": "initialize",
      "outputs": [],
      "stateMutability": "nonpayable",
      "type": "function"
    },
    {
      "inputs": [],
      "name": "internalGooBalance",
      "outputs": [
        {
          "internalType": "uint256",
          "name": "",
          "type": "uint256"
        }
      ],
      "stateMutability": "view",
      "type": "function"
    },
    {
      "inputs": [
        {
          "internalType": "uint256",
          "name": "goo",
          "type": "uint256"
        }
      ],
      "name": "loss",
      "outputs": [],
      "stateMutability": "nonpayable",
      "type": "function"
    },
    {
      "inputs": [
        {
          "internalType": "uint256",
          "name": "multiPoints",
          "type": "uint256"
        },
        {
          "internalType": "address",
          "name": "_user",
          "type": "address"
        }
      ],
      "name": "mint",
      "outputs": [],
      "stateMutability": "nonpayable",
      "type": "function"
    },
    {
      "inputs": [],
      "name": "name",
      "outputs": [
        {
          "internalType": "string",
          "name": "",
          "type": "string"
        }
      ],
      "stateMutability": "view",
      "type": "function"
    },
    {
      "inputs": [
        {
          "internalType": "address",
          "name": "who",
          "type": "address"
        }
      ],
      "name": "nonces",
      "outputs": [
        {
          "internalType": "uint256",
          "name": "",
          "type": "uint256"
        }
      ],
      "stateMutability": "view",
      "type": "function"
    },
    {
      "inputs": [
        {
          "internalType": "uint256",
          "name": "supplyAdd",
          "type": "uint256"
        },
        {
          "internalType": "uint256",
          "name": "supplyRemove",
          "type": "uint256"
        }
      ],
      "name": "rebase",
      "outputs": [
        {
          "internalType": "uint256",
          "name": "",
          "type": "uint256"
        }
      ],
      "stateMutability": "nonpayable",
      "type": "function"
    },
    {
      "inputs": [
        {
          "internalType": "uint256",
          "name": "supplyAdd",
          "type": "uint256"
        },
        {
          "internalType": "uint256",
          "name": "supplyRemove",
          "type": "uint256"
        }
      ],
      "name": "rebaseGons",
      "outputs": [
        {
          "internalType": "uint256",
          "name": "",
          "type": "uint256"
        }
      ],
      "stateMutability": "nonpayable",
      "type": "function"
    },
    {
      "inputs": [],
      "name": "reserveAddress",
      "outputs": [
        {
          "internalType": "address",
          "name": "",
          "type": "address"
        }
      ],
      "stateMutability": "view",
      "type": "function"
    },
    {
      "inputs": [],
      "name": "reserveRatio",
      "outputs": [
        {
          "internalType": "uint256",
          "name": "e18_reserve_ratio",
          "type": "uint256"
        }
      ],
      "stateMutability": "view",
      "type": "function"
    },
    {
      "inputs": [
        {
          "internalType": "address",
          "name": "who",
          "type": "address"
        }
      ],
      "name": "scaledBalanceOf",
      "outputs": [
        {
          "internalType": "uint256",
          "name": "",
          "type": "uint256"
        }
      ],
      "stateMutability": "view",
      "type": "function"
    },
    {
      "inputs": [],
      "name": "scaledTotalSupply",
      "outputs": [
        {
          "internalType": "uint256",
          "name": "",
          "type": "uint256"
        }
      ],
      "stateMutability": "view",
      "type": "function"
    },
    {
      "inputs": [],
      "name": "startTime",
      "outputs": [
        {
          "internalType": "uint256",
          "name": "",
          "type": "uint256"
        }
      ],
      "stateMutability": "view",
      "type": "function"
    },
    {
      "inputs": [],
      "name": "symbol",
      "outputs": [
        {
          "internalType": "string",
          "name": "",
          "type": "string"
        }
      ],
      "stateMutability": "view",
      "type": "function"
    },
    {
      "inputs": [],
      "name": "totalSupply",
      "outputs": [
        {
          "internalType": "uint256",
          "name": "",
          "type": "uint256"
        }
      ],
      "stateMutability": "view",
      "type": "function"
    },
    {
      "inputs": [
        {
          "internalType": "address",
          "name": "who",
          "type": "address"
        }
      ],
      "name": "userGooAmount",
      "outputs": [
        {
          "internalType": "uint256",
          "name": "",
          "type": "uint256"
        }
      ],
      "stateMutability": "view",
      "type": "function"
    }
  ],
  "bytecode": {
    "object": "0x608060405234801561001057600080fd5b506118aa806100206000396000f3fe608060405234801561001057600080fd5b50600436106102485760003560e01c806378e979251161013b578063b1bf962d116100b8578063f14faf6f1161007c578063f14faf6f14610500578063f6df866914610513578063f79ed94b1461051c578063fcd3533c1461052d578063fd5eb09d1461054057600080fd5b8063b1bf962d146104a2578063c4996f51146104aa578063c7758423146104b3578063d7f32852146104c6578063e1b11da4146104d957600080fd5b806390d1498c116100ff57806390d1498c1461045957806394bf804d1461046157806395d89b4114610474578063a10daee31461047c578063ac1530521461048f57600080fd5b806378e97925146103f85780637a1151c0146104015780637da066c6146104145780637ecebe0014610427578063900cf0cf1461045057600080fd5b80633644e515116101c9578063485cc9551161018d578063485cc955146103975780634b5d28a4146103aa57806370a08231146103bd57806374692e43146103d057806378160376146103d857600080fd5b80633644e5151461032857806336fed975146103305780633eaaf86b14610350578063413ab4a814610359578063469ddd121461038457600080fd5b80632e12007c116102105780632e12007c146102c157806330adf81f146102c9578063313ce567146102f057806332cb6b0c1461030a5780633570f3f11461031357600080fd5b8063058ecdb41461024d57806306fdde03146102735780630c7d5cd81461028857806318160ddd146102905780631da24f3e14610298575b600080fd5b61026061025b366004611384565b610549565b6040519081526020015b60405180910390f35b61027b61066b565b60405161026a91906113a6565b603954610260565b603854610260565b6102606102a6366004611409565b6001600160a01b031660009081526040602081905290205490565b61026061067a565b6102607f6e71edae12b1b97f4d1f60370fef10105fa2faae0126114a169c64845d6126c981565b6102f86106eb565b60405160ff909116815260200161026a565b61026060375481565b6103266103213660046114d0565b6106f9565b005b61026061086f565b61026061033e366004611409565b60406020819052600091825290205481565b61026060385481565b60435461036c906001600160a01b031681565b6040516001600160a01b03909116815260200161026a565b603a5461036c906001600160a01b031681565b6103266103a5366004611548565b61091b565b6102606103b8366004611409565b61098e565b6102606103cb366004611409565b6109dc565b610260610a03565b61027b604051806040016040528060018152602001603160f81b81525081565b610260603e5481565b61032661040f366004611581565b610a15565b603b5461036c906001600160a01b031681565b610260610435366004611409565b6001600160a01b031660009081526042602052604090205490565b610260603d5481565b610260610aa2565b61032661046f36600461159a565b610ac1565b61027b610c5c565b61032661048a3660046115bf565b610c66565b61026061049d366004611384565b610cfd565b603654610260565b61026060395481565b6102606104c1366004611409565b610dc2565b603c5461036c906001600160a01b031681565b6102607f8b73c3c69bb8fe3d512ecc4cf759cc79239f7b179b0ffacaa9a75d522b39400f81565b61032661050e366004611581565b610e57565b610260603f5481565b6043546001600160a01b031661036c565b61032661053b36600461159a565b610ee1565b61026060365481565b603c546000906001600160a01b0316331461056357600080fd5b6001603d60008282546105769190611648565b909155505082158015610587575081155b156105d357603d547f72725a3b1e5bd622d6bcd1339bb31279c351abe8f541ac7fd320f24e1b1641f26038546040516105c291815260200190565b60405180910390a250603854610665565b82156105ef57826038546105e79190611648565b603855610601565b816038546105fd919061165b565b6038555b6037546038541115610614576037546038555b603854603654610624919061166e565b603955603d546038546040519081527f72725a3b1e5bd622d6bcd1339bb31279c351abe8f541ac7fd320f24e1b1641f29060200160405180910390a2506038545b92915050565b606061067561108c565b905090565b6043546040516370a0823160e01b815230600482015260009182916001600160a01b03909116906370a0823190602401602060405180830381865afa1580156106c7573d6000803e3d6000fd5b505050506040513d601f19601f820116820180604052508101906106659190611690565b600061067560035460ff1690565b600054610100900460ff1680610712575060005460ff16155b6107375760405162461bcd60e51b815260040161072e906116a9565b60405180910390fd5b600054610100900460ff16158015610759576000805461ffff19166101011790555b61076584846012610c66565b671bc16d674ec800006036819055600019603755670de0b6b3a764000060388190556000805260406020527f72d0927ca0fe30cbe8022c9a81259da3fa697099c3a44d94726bf134bd7668ca8290556107bd9161166e565b603955603a8054736761a059eb3881627ad33553dbef81a2ba576dbf6001600160a01b031991821617909155603b80547360bb1e2aa1c9acafb4d34f71585d7e959f387769908316179055603c80549091166001600160a01b03841617905560385460405190815260009030907fddf252ad1be2c89b69c2b068fc378daa952ba7f163c4a11628f55a4df523b3ef9060200160405180910390a38015610869576000805461ff00191690555b50505050565b6000467f8b73c3c69bb8fe3d512ecc4cf759cc79239f7b179b0ffacaa9a75d522b39400f61089b61066b565b805160209182012060408051808201825260018152603160f81b90840152805192830193909352918101919091527fc89efdaa54c0f20c7adf612882df0950f5a951637e0307cdcb4c672f298b8bc66060820152608081018290523060a082015260c0016040516020818303038152906040528051906020012091505090565b61096b60405180604001604052806011815260200170676f6f546f676574686572506f696e747360781b8152506040518060400160405280600481526020016311d3d3d560e21b815250836106f9565b50604380546001600160a01b0319166001600160a01b0392909216919091179055565b6039546001600160a01b03821660009081526040602081905281205490916109b59161166e565b6039546036546109c5919061166e565b603f546109d2919061166e565b61066591906116f7565b6039546001600160a01b03821660009081526040602081905281205490916106659161166e565b6000603654603f54610675919061166e565b603c60009054906101000a90046001600160a01b03166001600160a01b031663ae4b5ae46040518163ffffffff1660e01b8152600401600060405180830381600087803b158015610a6557600080fd5b505af1158015610a79573d6000803e3d6000fd5b5050603c546001600160a01b031633149150610a96905057600080fd5b610a9f8161111e565b50565b6000603954603654610ab4919061166e565b603f54610675919061166e565b603c60009054906101000a90046001600160a01b03166001600160a01b031663ae4b5ae46040518163ffffffff1660e01b8152600401600060405180830381600087803b158015610b1157600080fd5b505af1158015610b25573d6000803e3d6000fd5b5050603c546001600160a01b031633149150610b42905057600080fd5b6000670de0b6b3a7640000603654610b5a919061166e565b610b6c84670de0b6b3a76400006116f7565b610b76919061166e565b6001600160a01b038316600090815260406020819052902054909150610b9d908290611648565b6001600160a01b038316600090815260406020819052902055603654610bc4908290611648565b603655603854610bd5908490611648565b6038556040518381526001600160a01b038316907f0f6798a560793a54c3bcfe86a93cde1e73087d944c0ea20544137d41213968859060200160405180910390a26040518381526001600160a01b038316906000907fddf252ad1be2c89b69c2b068fc378daa952ba7f163c4a11628f55a4df523b3ef9060200160405180910390a3505050565b606061067561124f565b600054610100900460ff1680610c7f575060005460ff16155b610c9b5760405162461bcd60e51b815260040161072e906116a9565b600054610100900460ff16158015610cbd576000805461ffff19166101011790555b6001610cc98582611797565b506002610cd68482611797565b506003805460ff191660ff84161790558015610869576000805461ff001916905550505050565b603c546000906001600160a01b03163314610d1757600080fd5b6001603d6000828254610d2a9190611648565b909155505082158015610d3b575081155b15610d8757603d547f72725a3b1e5bd622d6bcd1339bb31279c351abe8f541ac7fd320f24e1b1641f2603654604051610d7691815260200190565b60405180910390a250603654610665565b8215610da35782603654610d9b9190611648565b603655610614565b81603654610db1919061165b565b60368190556038546106249161166e565b6001600160a01b0381811660009081526040602081905280822054603654603b54603c54935163683afddd60e11b8152938616600485015293949193909291169063d075fbba90602401602060405180830381865afa158015610e29573d6000803e3d6000fd5b505050506040513d601f19601f82011682018060405250810190610e4d9190611690565b6109d2919061166e565b603c60009054906101000a90046001600160a01b03166001600160a01b031663ae4b5ae46040518163ffffffff1660e01b8152600401600060405180830381600087803b158015610ea757600080fd5b505af1158015610ebb573d6000803e3d6000fd5b5050603c546001600160a01b031633149150610ed8905057600080fd5b610a9f8161125e565b603c60009054906101000a90046001600160a01b03166001600160a01b031663ae4b5ae46040518163ffffffff1660e01b8152600401600060405180830381600087803b158015610f3157600080fd5b505af1158015610f45573d6000803e3d6000fd5b5050505081600003610f895760405162461bcd60e51b815260206004820152600d60248201526c043616e6e6f74206275726e203609c1b604482015260640161072e565b603c546001600160a01b03163314610fa057600080fd5b6001600160a01b038116600090815260406020819052902054603654610fc6919061165b565b6036556001600160a01b038116600090815260406020819052812055610ff482670de0b6b3a76400006116f7565b603854611001919061165b565b6038556040518281526000906001600160a01b038316907fddf252ad1be2c89b69c2b068fc378daa952ba7f163c4a11628f55a4df523b3ef9060200160405180910390a3806001600160a01b03167fcc16f5dbb4873280815c1ee09dbd06736cffcc184412cf7a71a0fdb75d397ca58360405161108091815260200190565b60405180910390a25050565b60606001805461109b9061170e565b80601f01602080910402602001604051908101604052809291908181526020018280546110c79061170e565b80156111145780601f106110e957610100808354040283529160200191611114565b820191906000526020600020905b8154815290600101906020018083116110f757829003601f168201915b5050505050905090565b603c60009054906101000a90046001600160a01b03166001600160a01b03166328928c726040518163ffffffff1660e01b8152600401602060405180830381865afa158015611171573d6000803e3d6000fd5b505050506040513d601f19601f820116820180604052508101906111959190611857565b604051639cc397fb60e01b8152600060048201526001600160a01b039190911690639cc397fb90602401600060405180830381600087803b1580156111d957600080fd5b505af11580156111ed573d6000803e3d6000fd5b5050505080603f6000828254611203919061165b565b9091555050603f5460405133917f68968dce3e47f9519d4b1886045d266b13a87545a0831788b35556bbf8abb6c79161124491858252602082015260400190565b60405180910390a250565b60606002805461109b9061170e565b603c60009054906101000a90046001600160a01b03166001600160a01b03166328928c726040518163ffffffff1660e01b8152600401602060405180830381865afa1580156112b1573d6000803e3d6000fd5b505050506040513d601f19601f820116820180604052508101906112d59190611857565b604051639cc397fb60e01b8152600060048201526001600160a01b039190911690639cc397fb90602401600060405180830381600087803b15801561131957600080fd5b505af115801561132d573d6000803e3d6000fd5b5050505080603f60008282546113439190611648565b9091555050603f5460405133917f106aac375bbcf013d1e52338bbf9e740009a1a3a6869f8daa1b72aa1620f5fec9161124491858252602082015260400190565b6000806040838503121561139757600080fd5b50508035926020909101359150565b600060208083528351808285015260005b818110156113d3578581018301518582016040015282016113b7565b506000604082860101526040601f19601f8301168501019250505092915050565b6001600160a01b0381168114610a9f57600080fd5b60006020828403121561141b57600080fd5b8135611426816113f4565b9392505050565b634e487b7160e01b600052604160045260246000fd5b600082601f83011261145457600080fd5b813567ffffffffffffffff8082111561146f5761146f61142d565b604051601f8301601f19908116603f011681019082821181831017156114975761149761142d565b816040528381528660208588010111156114b057600080fd5b836020870160208301376000602085830101528094505050505092915050565b6000806000606084860312156114e557600080fd5b833567ffffffffffffffff808211156114fd57600080fd5b61150987838801611443565b9450602086013591508082111561151f57600080fd5b5061152c86828701611443565b925050604084013561153d816113f4565b809150509250925092565b6000806040838503121561155b57600080fd5b8235611566816113f4565b91506020830135611576816113f4565b809150509250929050565b60006020828403121561159357600080fd5b5035919050565b600080604083850312156115ad57600080fd5b823591506020830135611576816113f4565b6000806000606084860312156115d457600080fd5b833567ffffffffffffffff808211156115ec57600080fd5b6115f887838801611443565b9450602086013591508082111561160e57600080fd5b5061161b86828701611443565b925050604084013560ff8116811461153d57600080fd5b634e487b7160e01b600052601160045260246000fd5b8082018082111561066557610665611632565b8181038181111561066557610665611632565b60008261168b57634e487b7160e01b600052601260045260246000fd5b500490565b6000602082840312156116a257600080fd5b5051919050565b6020808252602e908201527f496e697469616c697a61626c653a20636f6e747261637420697320616c72656160408201526d191e481a5b9a5d1a585b1a5e995960921b606082015260800190565b808202811582820484141761066557610665611632565b600181811c9082168061172257607f821691505b60208210810361174257634e487b7160e01b600052602260045260246000fd5b50919050565b601f82111561179257600081815260208120601f850160051c8101602086101561176f5750805b601f850160051c820191505b8181101561178e5782815560010161177b565b5050505b505050565b815167ffffffffffffffff8111156117b1576117b161142d565b6117c5816117bf845461170e565b84611748565b602080601f8311600181146117fa57600084156117e25750858301515b600019600386901b1c1916600185901b17855561178e565b600085815260208120601f198616915b828110156118295788860151825594840194600190910190840161180a565b50858210156118475787850151600019600388901b60f8161c191681555b5050505050600190811b01905550565b60006020828403121561186957600080fd5b8151611426816113f456fea2646970667358221220f4a9ff44d516aa1b8d9f91a0f3f37bf282af307da1601afff20d170dcddb294f64736f6c63430008110033",
    "linkReferences": {}
  },
  "methodIdentifiers": {
    "DOMAIN_SEPARATOR()": "3644e515",
    "EIP712_DOMAIN()": "e1b11da4",
    "EIP712_REVISION()": "78160376",
    "MAX_SUPPLY()": "32cb6b0c",
    "PERMIT_TYPEHASH()": "30adf81f",
    "__ERC20Detailed_init(string,string,uint8)": "a10daee3",
    "__UFragments_init(string,string,address)": "3570f3f1",
    "_gonBalances(address)": "36fed975",
    "_gonsPerFragment()": "c4996f51",
    "_reserve()": "413ab4a8",
    "_totalGons()": "fd5eb09d",
    "_totalSupply()": "3eaaf86b",
    "balanceOf(address)": "70a08231",
    "burn(uint256,address)": "fcd3533c",
    "currentReserve()": "2e12007c",
    "decimals()": "313ce567",
    "donate(uint256)": "f14faf6f",
    "epoch()": "900cf0cf",
    "estUserGooAmount(address)": "c7758423",
    "gobblerUnion()": "469ddd12",
    "gobblers()": "7da066c6",
    "gooSharePerFragment()": "90d1498c",
    "gooSharePerGon()": "74692e43",
    "gooTogether()": "d7f32852",
    "initialize(address,address)": "485cc955",
    "internalGooBalance()": "f6df8669",
    "loss(uint256)": "7a1151c0",
    "mint(uint256,address)": "94bf804d",
    "name()": "06fdde03",
    "nonces(address)": "7ecebe00",
    "rebase(uint256,uint256)": "058ecdb4",
    "rebaseGons(uint256,uint256)": "ac153052",
    "reserveAddress()": "f79ed94b",
    "reserveRatio()": "0c7d5cd8",
    "scaledBalanceOf(address)": "1da24f3e",
    "scaledTotalSupply()": "b1bf962d",
    "startTime()": "78e97925",
    "symbol()": "95d89b41",
    "totalSupply()": "18160ddd",
    "userGooAmount(address)": "4b5d28a4"
  },
  "id": 25
}