{
  "abi": [
    {
      "anonymous": false,
      "inputs": [
        {
          "indexed": true,
          "internalType": "address",
          "name": "owner",
          "type": "address"
        },
        {
          "indexed": true,
          "internalType": "address",
          "name": "spender",
          "type": "address"
        },
        {
          "indexed": false,
          "internalType": "uint256",
          "name": "value",
          "type": "uint256"
        }
      ],
      "name": "Approval",
      "type": "event"
    },
    {
      "anonymous": false,
      "inputs": [
        {
          "indexed": true,
          "internalType": "address",
          "name": "from",
          "type": "address"
        },
        {
          "indexed": false,
          "internalType": "uint256",
          "name": "value",
          "type": "uint256"
        }
      ],
      "name": "Burn",
      "type": "event"
    },
    {
      "anonymous": false,
      "inputs": [
        {
          "indexed": true,
          "internalType": "address",
          "name": "from",
          "type": "address"
        },
        {
          "indexed": false,
          "internalType": "uint256",
          "name": "value",
          "type": "uint256"
        },
        {
          "indexed": false,
          "internalType": "uint256",
          "name": "totalSupply",
          "type": "uint256"
        }
      ],
      "name": "Donation",
      "type": "event"
    },
    {
      "anonymous": false,
      "inputs": [
        {
          "indexed": false,
          "internalType": "address",
          "name": "monetaryPolicy",
          "type": "address"
        }
      ],
      "name": "LogMonetaryPolicyUpdated",
      "type": "event"
    },
    {
      "anonymous": false,
      "inputs": [
        {
          "indexed": true,
          "internalType": "uint256",
          "name": "epoch",
          "type": "uint256"
        },
        {
          "indexed": false,
          "internalType": "uint256",
          "name": "totalSupply",
          "type": "uint256"
        }
      ],
      "name": "LogRebase",
      "type": "event"
    },
    {
      "anonymous": false,
      "inputs": [
        {
          "indexed": true,
          "internalType": "address",
          "name": "from",
          "type": "address"
        },
        {
          "indexed": false,
          "internalType": "uint256",
          "name": "value",
          "type": "uint256"
        },
        {
          "indexed": false,
          "internalType": "uint256",
          "name": "totalySupply",
          "type": "uint256"
        }
      ],
      "name": "Loss",
      "type": "event"
    },
    {
      "anonymous": false,
      "inputs": [
        {
          "indexed": true,
          "internalType": "address",
          "name": "to",
          "type": "address"
        },
        {
          "indexed": false,
          "internalType": "uint256",
          "name": "value",
          "type": "uint256"
        }
      ],
      "name": "Mint",
      "type": "event"
    },
    {
      "anonymous": false,
      "inputs": [
        {
          "indexed": true,
          "internalType": "address",
          "name": "from",
          "type": "address"
        },
        {
          "indexed": true,
          "internalType": "address",
          "name": "to",
          "type": "address"
        },
        {
          "indexed": false,
          "internalType": "uint256",
          "name": "value",
          "type": "uint256"
        }
      ],
      "name": "Transfer",
      "type": "event"
    },
    {
      "anonymous": false,
      "inputs": [
        {
          "indexed": false,
          "internalType": "address",
          "name": "from",
          "type": "address"
        },
        {
          "indexed": false,
          "internalType": "uint256",
          "name": "amount",
          "type": "uint256"
        }
      ],
      "name": "feePaid",
      "type": "event"
    },
    {
      "inputs": [],
      "name": "DOMAIN_SEPARATOR",
      "outputs": [
        {
          "internalType": "bytes32",
          "name": "",
          "type": "bytes32"
        }
      ],
      "stateMutability": "view",
      "type": "function"
    },
    {
      "inputs": [],
      "name": "EIP712_DOMAIN",
      "outputs": [
        {
          "internalType": "bytes32",
          "name": "",
          "type": "bytes32"
        }
      ],
      "stateMutability": "view",
      "type": "function"
    },
    {
      "inputs": [],
      "name": "EIP712_REVISION",
      "outputs": [
        {
          "internalType": "string",
          "name": "",
          "type": "string"
        }
      ],
      "stateMutability": "view",
      "type": "function"
    },
    {
      "inputs": [],
      "name": "MAX_SUPPLY",
      "outputs": [
        {
          "internalType": "uint256",
          "name": "",
          "type": "uint256"
        }
      ],
      "stateMutability": "view",
      "type": "function"
    },
    {
      "inputs": [],
      "name": "PERMIT_TYPEHASH",
      "outputs": [
        {
          "internalType": "bytes32",
          "name": "",
          "type": "bytes32"
        }
      ],
      "stateMutability": "view",
      "type": "function"
    },
    {
      "inputs": [
        {
          "internalType": "string",
          "name": "name_",
          "type": "string"
        },
        {
          "internalType": "string",
          "name": "symbol_",
          "type": "string"
        },
        {
          "internalType": "uint8",
          "name": "decimals_",
          "type": "uint8"
        }
      ],
      "name": "__ERC20Detailed_init",
      "outputs": [],
      "stateMutability": "nonpayable",
      "type": "function"
    },
    {
      "inputs": [
        {
          "internalType": "string",
          "name": "name",
          "type": "string"
        },
        {
          "internalType": "string",
          "name": "symbol",
          "type": "string"
        },
        {
          "internalType": "address",
          "name": "_gooTogether",
          "type": "address"
        }
      ],
      "name": "__UFragments_init",
      "outputs": [],
      "stateMutability": "nonpayable",
      "type": "function"
    },
    {
      "inputs": [
        {
          "internalType": "address",
          "name": "",
          "type": "address"
        }
      ],
      "name": "_gonBalances",
      "outputs": [
        {
          "internalType": "uint256",
          "name": "",
          "type": "uint256"
        }
      ],
      "stateMutability": "view",
      "type": "function"
    },
    {
      "inputs": [],
      "name": "_gonsPerFragment",
      "outputs": [
        {
          "internalType": "uint256",
          "name": "",
          "type": "uint256"
        }
      ],
      "stateMutability": "view",
      "type": "function"
    },
    {
      "inputs": [],
      "name": "_totalGons",
      "outputs": [
        {
          "internalType": "uint256",
          "name": "",
          "type": "uint256"
        }
      ],
      "stateMutability": "view",
      "type": "function"
    },
    {
      "inputs": [],
      "name": "_totalSupply",
      "outputs": [
        {
          "internalType": "uint256",
          "name": "",
          "type": "uint256"
        }
      ],
      "stateMutability": "view",
      "type": "function"
    },
    {
      "inputs": [
        {
          "internalType": "address",
          "name": "who",
          "type": "address"
        }
      ],
      "name": "balanceOf",
      "outputs": [
        {
          "internalType": "uint256",
          "name": "",
          "type": "uint256"
        }
      ],
      "stateMutability": "view",
      "type": "function"
    },
    {
      "inputs": [],
      "name": "decimals",
      "outputs": [
        {
          "internalType": "uint8",
          "name": "",
          "type": "uint8"
        }
      ],
      "stateMutability": "view",
      "type": "function"
    },
    {
      "inputs": [],
      "name": "epoch",
      "outputs": [
        {
          "internalType": "uint256",
          "name": "",
          "type": "uint256"
        }
      ],
      "stateMutability": "view",
      "type": "function"
    },
    {
      "inputs": [
        {
          "internalType": "address",
          "name": "who",
          "type": "address"
        }
      ],
      "name": "estUserGooAmount",
      "outputs": [
        {
          "internalType": "uint256",
          "name": "",
          "type": "uint256"
        }
      ],
      "stateMutability": "view",
      "type": "function"
    },
    {
      "inputs": [],
      "name": "gobblerUnion",
      "outputs": [
        {
          "internalType": "address",
          "name": "",
          "type": "address"
        }
      ],
      "stateMutability": "view",
      "type": "function"
    },
    {
      "inputs": [],
      "name": "gobblers",
      "outputs": [
        {
          "internalType": "address",
          "name": "",
          "type": "address"
        }
      ],
      "stateMutability": "view",
      "type": "function"
    },
    {
      "inputs": [],
      "name": "gooSharePerFragment",
      "outputs": [
        {
          "internalType": "uint256",
          "name": "",
          "type": "uint256"
        }
      ],
      "stateMutability": "view",
      "type": "function"
    },
    {
      "inputs": [],
      "name": "gooSharePerGon",
      "outputs": [
        {
          "internalType": "uint256",
          "name": "",
          "type": "uint256"
        }
      ],
      "stateMutability": "view",
      "type": "function"
    },
    {
      "inputs": [],
      "name": "gooTogether",
      "outputs": [
        {
          "internalType": "address",
          "name": "",
          "type": "address"
        }
      ],
      "stateMutability": "view",
      "type": "function"
    },
    {
      "inputs": [],
      "name": "internalGooBalance",
      "outputs": [
        {
          "internalType": "uint256",
          "name": "",
          "type": "uint256"
        }
      ],
      "stateMutability": "view",
      "type": "function"
    },
    {
      "inputs": [],
      "name": "name",
      "outputs": [
        {
          "internalType": "string",
          "name": "",
          "type": "string"
        }
      ],
      "stateMutability": "view",
      "type": "function"
    },
    {
      "inputs": [
        {
          "internalType": "address",
          "name": "who",
          "type": "address"
        }
      ],
      "name": "nonces",
      "outputs": [
        {
          "internalType": "uint256",
          "name": "",
          "type": "uint256"
        }
      ],
      "stateMutability": "view",
      "type": "function"
    },
    {
      "inputs": [
        {
          "internalType": "uint256",
          "name": "supplyAdd",
          "type": "uint256"
        },
        {
          "internalType": "uint256",
          "name": "supplyRemove",
          "type": "uint256"
        }
      ],
      "name": "rebase",
      "outputs": [
        {
          "internalType": "uint256",
          "name": "",
          "type": "uint256"
        }
      ],
      "stateMutability": "nonpayable",
      "type": "function"
    },
    {
      "inputs": [
        {
          "internalType": "uint256",
          "name": "supplyAdd",
          "type": "uint256"
        },
        {
          "internalType": "uint256",
          "name": "supplyRemove",
          "type": "uint256"
        }
      ],
      "name": "rebaseGons",
      "outputs": [
        {
          "internalType": "uint256",
          "name": "",
          "type": "uint256"
        }
      ],
      "stateMutability": "nonpayable",
      "type": "function"
    },
    {
      "inputs": [
        {
          "internalType": "address",
          "name": "who",
          "type": "address"
        }
      ],
      "name": "scaledBalanceOf",
      "outputs": [
        {
          "internalType": "uint256",
          "name": "",
          "type": "uint256"
        }
      ],
      "stateMutability": "view",
      "type": "function"
    },
    {
      "inputs": [],
      "name": "scaledTotalSupply",
      "outputs": [
        {
          "internalType": "uint256",
          "name": "",
          "type": "uint256"
        }
      ],
      "stateMutability": "view",
      "type": "function"
    },
    {
      "inputs": [],
      "name": "startTime",
      "outputs": [
        {
          "internalType": "uint256",
          "name": "",
          "type": "uint256"
        }
      ],
      "stateMutability": "view",
      "type": "function"
    },
    {
      "inputs": [],
      "name": "symbol",
      "outputs": [
        {
          "internalType": "string",
          "name": "",
          "type": "string"
        }
      ],
      "stateMutability": "view",
      "type": "function"
    },
    {
      "inputs": [],
      "name": "totalSupply",
      "outputs": [
        {
          "internalType": "uint256",
          "name": "",
          "type": "uint256"
        }
      ],
      "stateMutability": "view",
      "type": "function"
    },
    {
      "inputs": [
        {
          "internalType": "address",
          "name": "who",
          "type": "address"
        }
      ],
      "name": "userGooAmount",
      "outputs": [
        {
          "internalType": "uint256",
          "name": "",
          "type": "uint256"
        }
      ],
      "stateMutability": "view",
      "type": "function"
    }
  ],
  "bytecode": {
    "object": "0x608060405234801561001057600080fd5b50610f6d806100206000396000f3fe608060405234801561001057600080fd5b50600436106101e55760003560e01c8063781603761161010f578063ac153052116100a2578063d7f3285211610071578063d7f3285214610402578063e1b11da414610415578063f6df86691461043c578063fd5eb09d1461044557600080fd5b8063ac153052146103cb578063b1bf962d146103de578063c4996f51146103e6578063c7758423146103ef57600080fd5b8063900cf0cf116100de578063900cf0cf1461039f57806390d1498c146103a857806395d89b41146103b0578063a10daee3146103b857600080fd5b8063781603761461033a57806378e979251461035a5780637da066c6146103635780637ecebe001461037657600080fd5b80633570f3f111610187578063469ddd1211610156578063469ddd12146102e15780634b5d28a41461030c57806370a082311461031f57806374692e431461033257600080fd5b80633570f3f11461029b5780633644e515146102b057806336fed975146102b85780633eaaf86b146102d857600080fd5b80631da24f3e116101c35780631da24f3e1461022d57806330adf81f14610256578063313ce5671461027d57806332cb6b0c1461029257600080fd5b8063058ecdb4146101ea57806306fdde031461021057806318160ddd14610225575b600080fd5b6101fd6101f8366004610acf565b61044e565b6040519081526020015b60405180910390f35b610218610570565b6040516102079190610af1565b6038546101fd565b6101fd61023b366004610b5b565b6001600160a01b031660009081526040602081905290205490565b6101fd7f6e71edae12b1b97f4d1f60370fef10105fa2faae0126114a169c64845d6126c981565b60035460405160ff9091168152602001610207565b6101fd60375481565b6102ae6102a9366004610c20565b610602565b005b6101fd610778565b6101fd6102c6366004610b5b565b60406020819052600091825290205481565b6101fd60385481565b603a546102f4906001600160a01b031681565b6040516001600160a01b039091168152602001610207565b6101fd61031a366004610b5b565b610824565b6101fd61032d366004610b5b565b610872565b6101fd610899565b610218604051806040016040528060018152602001603160f81b81525081565b6101fd603e5481565b603b546102f4906001600160a01b031681565b6101fd610384366004610b5b565b6001600160a01b031660009081526042602052604090205490565b6101fd603d5481565b6101fd6108b0565b6102186108cf565b6102ae6103c6366004610c94565b6108de565b6101fd6103d9366004610acf565b610975565b6036546101fd565b6101fd60395481565b6101fd6103fd366004610b5b565b610a3a565b603c546102f4906001600160a01b031681565b6101fd7f8b73c3c69bb8fe3d512ecc4cf759cc79239f7b179b0ffacaa9a75d522b39400f81565b6101fd603f5481565b6101fd60365481565b603c546000906001600160a01b0316331461046857600080fd5b6001603d600082825461047b9190610d28565b90915550508215801561048c575081155b156104d857603d547f72725a3b1e5bd622d6bcd1339bb31279c351abe8f541ac7fd320f24e1b1641f26038546040516104c791815260200190565b60405180910390a25060385461056a565b82156104f457826038546104ec9190610d28565b603855610506565b816038546105029190610d3b565b6038555b6037546038541115610519576037546038555b6038546036546105299190610d4e565b603955603d546038546040519081527f72725a3b1e5bd622d6bcd1339bb31279c351abe8f541ac7fd320f24e1b1641f29060200160405180910390a2506038545b92915050565b60606001805461057f90610d70565b80601f01602080910402602001604051908101604052809291908181526020018280546105ab90610d70565b80156105f85780601f106105cd576101008083540402835291602001916105f8565b820191906000526020600020905b8154815290600101906020018083116105db57829003601f168201915b5050505050905090565b600054610100900460ff168061061b575060005460ff16155b6106405760405162461bcd60e51b815260040161063790610daa565b60405180910390fd5b600054610100900460ff16158015610662576000805461ffff19166101011790555b61066e848460126108de565b671bc16d674ec800006036819055600019603755670de0b6b3a764000060388190556000805260406020527f72d0927ca0fe30cbe8022c9a81259da3fa697099c3a44d94726bf134bd7668ca8290556106c691610d4e565b603955603a8054736761a059eb3881627ad33553dbef81a2ba576dbf6001600160a01b031991821617909155603b80547360bb1e2aa1c9acafb4d34f71585d7e959f387769908316179055603c80549091166001600160a01b03841617905560385460405190815260009030907fddf252ad1be2c89b69c2b068fc378daa952ba7f163c4a11628f55a4df523b3ef9060200160405180910390a38015610772576000805461ff00191690555b50505050565b6000467f8b73c3c69bb8fe3d512ecc4cf759cc79239f7b179b0ffacaa9a75d522b39400f6107a4610570565b805160209182012060408051808201825260018152603160f81b90840152805192830193909352918101919091527fc89efdaa54c0f20c7adf612882df0950f5a951637e0307cdcb4c672f298b8bc66060820152608081018290523060a082015260c0016040516020818303038152906040528051906020012091505090565b6039546001600160a01b038216600090815260406020819052812054909161084b91610d4e565b60395460365461085b9190610d4e565b603f546108689190610d4e565b61056a9190610df8565b6039546001600160a01b038216600090815260406020819052812054909161056a91610d4e565b6000603654603f546108ab9190610d4e565b905090565b60006039546036546108c29190610d4e565b603f546108ab9190610d4e565b60606002805461057f90610d70565b600054610100900460ff16806108f7575060005460ff16155b6109135760405162461bcd60e51b815260040161063790610daa565b600054610100900460ff16158015610935576000805461ffff19166101011790555b60016109418582610e5e565b50600261094e8482610e5e565b506003805460ff191660ff84161790558015610772576000805461ff001916905550505050565b603c546000906001600160a01b0316331461098f57600080fd5b6001603d60008282546109a29190610d28565b9091555050821580156109b3575081155b156109ff57603d547f72725a3b1e5bd622d6bcd1339bb31279c351abe8f541ac7fd320f24e1b1641f26036546040516109ee91815260200190565b60405180910390a25060365461056a565b8215610a1b5782603654610a139190610d28565b603655610519565b81603654610a299190610d3b565b603681905560385461052991610d4e565b6001600160a01b0381811660009081526040602081905280822054603654603b54603c54935163683afddd60e11b8152938616600485015293949193909291169063d075fbba90602401602060405180830381865afa158015610aa1573d6000803e3d6000fd5b505050506040513d601f19601f82011682018060405250810190610ac59190610f1e565b6108689190610d4e565b60008060408385031215610ae257600080fd5b50508035926020909101359150565b600060208083528351808285015260005b81811015610b1e57858101830151858201604001528201610b02565b506000604082860101526040601f19601f8301168501019250505092915050565b80356001600160a01b0381168114610b5657600080fd5b919050565b600060208284031215610b6d57600080fd5b610b7682610b3f565b9392505050565b634e487b7160e01b600052604160045260246000fd5b600082601f830112610ba457600080fd5b813567ffffffffffffffff80821115610bbf57610bbf610b7d565b604051601f8301601f19908116603f01168101908282118183101715610be757610be7610b7d565b81604052838152866020858801011115610c0057600080fd5b836020870160208301376000602085830101528094505050505092915050565b600080600060608486031215610c3557600080fd5b833567ffffffffffffffff80821115610c4d57600080fd5b610c5987838801610b93565b94506020860135915080821115610c6f57600080fd5b50610c7c86828701610b93565b925050610c8b60408501610b3f565b90509250925092565b600080600060608486031215610ca957600080fd5b833567ffffffffffffffff80821115610cc157600080fd5b610ccd87838801610b93565b94506020860135915080821115610ce357600080fd5b50610cf086828701610b93565b925050604084013560ff81168114610d0757600080fd5b809150509250925092565b634e487b7160e01b600052601160045260246000fd5b8082018082111561056a5761056a610d12565b8181038181111561056a5761056a610d12565b600082610d6b57634e487b7160e01b600052601260045260246000fd5b500490565b600181811c90821680610d8457607f821691505b602082108103610da457634e487b7160e01b600052602260045260246000fd5b50919050565b6020808252602e908201527f496e697469616c697a61626c653a20636f6e747261637420697320616c72656160408201526d191e481a5b9a5d1a585b1a5e995960921b606082015260800190565b808202811582820484141761056a5761056a610d12565b601f821115610e5957600081815260208120601f850160051c81016020861015610e365750805b601f850160051c820191505b81811015610e5557828155600101610e42565b5050505b505050565b815167ffffffffffffffff811115610e7857610e78610b7d565b610e8c81610e868454610d70565b84610e0f565b602080601f831160018114610ec15760008415610ea95750858301515b600019600386901b1c1916600185901b178555610e55565b600085815260208120601f198616915b82811015610ef057888601518255948401946001909101908401610ed1565b5085821015610f0e5787850151600019600388901b60f8161c191681555b5050505050600190811b01905550565b600060208284031215610f3057600080fd5b505191905056fea2646970667358221220da9d031124575a13e28cacb02b68bde02600c6ad0a9c14b67fa3f68fa794c03364736f6c63430008110033",
    "linkReferences": {}
  },
  "methodIdentifiers": {
    "DOMAIN_SEPARATOR()": "3644e515",
    "EIP712_DOMAIN()": "e1b11da4",
    "EIP712_REVISION()": "78160376",
    "MAX_SUPPLY()": "32cb6b0c",
    "PERMIT_TYPEHASH()": "30adf81f",
    "__ERC20Detailed_init(string,string,uint8)": "a10daee3",
    "__UFragments_init(string,string,address)": "3570f3f1",
    "_gonBalances(address)": "36fed975",
    "_gonsPerFragment()": "c4996f51",
    "_totalGons()": "fd5eb09d",
    "_totalSupply()": "3eaaf86b",
    "balanceOf(address)": "70a08231",
    "decimals()": "313ce567",
    "epoch()": "900cf0cf",
    "estUserGooAmount(address)": "c7758423",
    "gobblerUnion()": "469ddd12",
    "gobblers()": "7da066c6",
    "gooSharePerFragment()": "90d1498c",
    "gooSharePerGon()": "74692e43",
    "gooTogether()": "d7f32852",
    "internalGooBalance()": "f6df8669",
    "name()": "06fdde03",
    "nonces(address)": "7ecebe00",
    "rebase(uint256,uint256)": "058ecdb4",
    "rebaseGons(uint256,uint256)": "ac153052",
    "scaledBalanceOf(address)": "1da24f3e",
    "scaledTotalSupply()": "b1bf962d",
    "startTime()": "78e97925",
    "symbol()": "95d89b41",
    "totalSupply()": "18160ddd",
    "userGooAmount(address)": "4b5d28a4"
  },
  "id": 27
}